{
  "address": "0x734C82a2A70f180B9832499eB67A0997720b6ebB",
  "abi": [
    {
      "inputs": [],
      "stateMutability": "nonpayable",
      "type": "constructor"
    },
    {
      "anonymous": false,
      "inputs": [
        {
          "indexed": true,
          "internalType": "address",
          "name": "owner",
          "type": "address"
        },
        {
          "indexed": true,
          "internalType": "address",
          "name": "approved",
          "type": "address"
        },
        {
          "indexed": true,
          "internalType": "uint256",
          "name": "tokenId",
          "type": "uint256"
        }
      ],
      "name": "Approval",
      "type": "event"
    },
    {
      "anonymous": false,
      "inputs": [
        {
          "indexed": true,
          "internalType": "address",
          "name": "owner",
          "type": "address"
        },
        {
          "indexed": true,
          "internalType": "address",
          "name": "operator",
          "type": "address"
        },
        {
          "indexed": false,
          "internalType": "bool",
          "name": "approved",
          "type": "bool"
        }
      ],
      "name": "ApprovalForAll",
      "type": "event"
    },
    {
      "anonymous": false,
      "inputs": [
        {
          "indexed": true,
          "internalType": "uint256",
          "name": "tokenId",
          "type": "uint256"
        },
        {
          "indexed": false,
          "internalType": "string",
          "name": "tokenURI",
          "type": "string"
        }
      ],
      "name": "CreatedAIBanner",
      "type": "event"
    },
    {
      "anonymous": false,
      "inputs": [
        {
          "indexed": true,
          "internalType": "address",
          "name": "from",
          "type": "address"
        },
        {
          "indexed": true,
          "internalType": "address",
          "name": "to",
          "type": "address"
        },
        {
          "indexed": true,
          "internalType": "uint256",
          "name": "tokenId",
          "type": "uint256"
        }
      ],
      "name": "Transfer",
      "type": "event"
    },
    {
      "inputs": [],
      "name": "MAX_Tokens",
      "outputs": [
        {
          "internalType": "uint256",
          "name": "",
          "type": "uint256"
        }
      ],
      "stateMutability": "view",
      "type": "function"
    },
    {
      "inputs": [
        {
          "internalType": "address",
          "name": "to",
          "type": "address"
        },
        {
          "internalType": "uint256",
          "name": "tokenId",
          "type": "uint256"
        }
      ],
      "name": "approve",
      "outputs": [],
      "stateMutability": "nonpayable",
      "type": "function"
    },
    {
      "inputs": [
        {
          "internalType": "address",
          "name": "owner",
          "type": "address"
        }
      ],
      "name": "balanceOf",
      "outputs": [
        {
          "internalType": "uint256",
          "name": "",
          "type": "uint256"
        }
      ],
      "stateMutability": "view",
      "type": "function"
    },
    {
      "inputs": [],
      "name": "flipSaleState",
      "outputs": [],
      "stateMutability": "nonpayable",
      "type": "function"
    },
    {
      "inputs": [
        {
          "internalType": "uint256",
          "name": "tokenId",
          "type": "uint256"
        }
      ],
      "name": "getApproved",
      "outputs": [
        {
          "internalType": "address",
          "name": "",
          "type": "address"
        }
      ],
      "stateMutability": "view",
      "type": "function"
    },
    {
      "inputs": [
        {
          "internalType": "address",
          "name": "owner",
          "type": "address"
        },
        {
          "internalType": "address",
          "name": "operator",
          "type": "address"
        }
      ],
      "name": "isApprovedForAll",
      "outputs": [
        {
          "internalType": "bool",
          "name": "",
          "type": "bool"
        }
      ],
      "stateMutability": "view",
      "type": "function"
    },
    {
      "inputs": [
        {
          "internalType": "string",
          "name": "imageURI",
          "type": "string"
        },
        {
          "internalType": "string[]",
          "name": "attributeArr",
          "type": "string[]"
        }
      ],
      "name": "mintBanner",
      "outputs": [],
      "stateMutability": "payable",
      "type": "function"
    },
    {
      "inputs": [],
      "name": "name",
      "outputs": [
        {
          "internalType": "string",
          "name": "",
          "type": "string"
        }
      ],
      "stateMutability": "view",
      "type": "function"
    },
    {
      "inputs": [
        {
          "internalType": "uint256",
          "name": "tokenId",
          "type": "uint256"
        }
      ],
      "name": "ownerOf",
      "outputs": [
        {
          "internalType": "address",
          "name": "",
          "type": "address"
        }
      ],
      "stateMutability": "view",
      "type": "function"
    },
    {
      "inputs": [],
      "name": "price",
      "outputs": [
        {
          "internalType": "uint256",
          "name": "",
          "type": "uint256"
        }
      ],
      "stateMutability": "view",
      "type": "function"
    },
    {
      "inputs": [
        {
          "internalType": "address",
          "name": "from",
          "type": "address"
        },
        {
          "internalType": "address",
          "name": "to",
          "type": "address"
        },
        {
          "internalType": "uint256",
          "name": "tokenId",
          "type": "uint256"
        }
      ],
      "name": "safeTransferFrom",
      "outputs": [],
      "stateMutability": "nonpayable",
      "type": "function"
    },
    {
      "inputs": [
        {
          "internalType": "address",
          "name": "from",
          "type": "address"
        },
        {
          "internalType": "address",
          "name": "to",
          "type": "address"
        },
        {
          "internalType": "uint256",
          "name": "tokenId",
          "type": "uint256"
        },
        {
          "internalType": "bytes",
          "name": "_data",
          "type": "bytes"
        }
      ],
      "name": "safeTransferFrom",
      "outputs": [],
      "stateMutability": "nonpayable",
      "type": "function"
    },
    {
      "inputs": [],
      "name": "saleIsActive",
      "outputs": [
        {
          "internalType": "bool",
          "name": "",
          "type": "bool"
        }
      ],
      "stateMutability": "view",
      "type": "function"
    },
    {
      "inputs": [
        {
          "internalType": "address",
          "name": "operator",
          "type": "address"
        },
        {
          "internalType": "bool",
          "name": "approved",
          "type": "bool"
        }
      ],
      "name": "setApprovalForAll",
      "outputs": [],
      "stateMutability": "nonpayable",
      "type": "function"
    },
    {
      "inputs": [
        {
          "internalType": "bytes4",
          "name": "interfaceId",
          "type": "bytes4"
        }
      ],
      "name": "supportsInterface",
      "outputs": [
        {
          "internalType": "bool",
          "name": "",
          "type": "bool"
        }
      ],
      "stateMutability": "view",
      "type": "function"
    },
    {
      "inputs": [],
      "name": "symbol",
      "outputs": [
        {
          "internalType": "string",
          "name": "",
          "type": "string"
        }
      ],
      "stateMutability": "view",
      "type": "function"
    },
    {
      "inputs": [],
      "name": "tokenCounter",
      "outputs": [
        {
          "internalType": "uint256",
          "name": "",
          "type": "uint256"
        }
      ],
      "stateMutability": "view",
      "type": "function"
    },
    {
      "inputs": [
        {
          "internalType": "uint256",
          "name": "tokenId",
          "type": "uint256"
        }
      ],
      "name": "tokenURI",
      "outputs": [
        {
          "internalType": "string",
          "name": "",
          "type": "string"
        }
      ],
      "stateMutability": "view",
      "type": "function"
    },
    {
      "inputs": [
        {
          "internalType": "address",
          "name": "from",
          "type": "address"
        },
        {
          "internalType": "address",
          "name": "to",
          "type": "address"
        },
        {
          "internalType": "uint256",
          "name": "tokenId",
          "type": "uint256"
        }
      ],
      "name": "transferFrom",
      "outputs": [],
      "stateMutability": "nonpayable",
      "type": "function"
    }
  ],
  "transactionHash": "0xfe7e61ef080137ee10260cd784d7661ae8e52483cd9f6acb8afb14b8a21df6a0",
  "args": [],
  "solcInputHash": "9fb2ff732554d2228b6ac90c8565f2d4",
  "bytecode": "0x60806040526000600860006101000a81548160ff0219169083151502179055503480156200002c57600080fd5b506040518060400160405280600981526020017f41492042616e6e657200000000000000000000000000000000000000000000008152506040518060400160405280600881526020017f414942616e6e65720000000000000000000000000000000000000000000000008152508160009080519060200190620000b1929190620000db565b508060019080519060200190620000ca929190620000db565b5050506000600781905550620001f0565b828054620000e9906200018b565b90600052602060002090601f0160209004810192826200010d576000855562000159565b82601f106200012857805160ff191683800117855562000159565b8280016001018555821562000159579182015b82811115620001585782518255916020019190600101906200013b565b5b5090506200016891906200016c565b5090565b5b80821115620001875760008160009055506001016200016d565b5090565b60006002820490506001821680620001a457607f821691505b60208210811415620001bb57620001ba620001c1565b5b50919050565b7f4e487b7100000000000000000000000000000000000000000000000000000000600052602260045260246000fd5b61367d80620002006000396000f3fe6080604052600436106101145760003560e01c806371de315c116100a0578063b88d4fde11610064578063b88d4fde14610390578063c87b56dd146103b9578063d082e381146103f6578063e985e9c514610421578063eb8d24441461045e57610114565b806371de315c146102ca57806395d89b41146102f55780639c78ab7814610320578063a035b1fe1461033c578063a22cb4651461036757610114565b806323b872dd116100e757806323b872dd146101e757806334918dfd1461021057806342842e0e146102275780636352211e1461025057806370a082311461028d57610114565b806301ffc9a71461011957806306fdde0314610156578063081812fc14610181578063095ea7b3146101be575b600080fd5b34801561012557600080fd5b50610140600480360381019061013b91906122f9565b610489565b60405161014d9190612eaf565b60405180910390f35b34801561016257600080fd5b5061016b61056b565b6040516101789190612eca565b60405180910390f35b34801561018d57600080fd5b506101a860048036038101906101a391906123b7565b6105fd565b6040516101b59190612e48565b60405180910390f35b3480156101ca57600080fd5b506101e560048036038101906101e091906122bd565b610682565b005b3480156101f357600080fd5b5061020e600480360381019061020991906121b7565b61079a565b005b34801561021c57600080fd5b506102256107fa565b005b34801561023357600080fd5b5061024e600480360381019061024991906121b7565b610826565b005b34801561025c57600080fd5b50610277600480360381019061027291906123b7565b610846565b6040516102849190612e48565b60405180910390f35b34801561029957600080fd5b506102b460048036038101906102af9190612152565b6108f8565b6040516102c1919061314c565b60405180910390f35b3480156102d657600080fd5b506102df6109b0565b6040516102ec919061314c565b60405180910390f35b34801561030157600080fd5b5061030a6109b6565b6040516103179190612eca565b60405180910390f35b61033a6004803603810190610335919061234b565b610a48565b005b34801561034857600080fd5b50610351610bae565b60405161035e919061314c565b60405180910390f35b34801561037357600080fd5b5061038e60048036038101906103899190612281565b610bba565b005b34801561039c57600080fd5b506103b760048036038101906103b29190612206565b610d3b565b005b3480156103c557600080fd5b506103e060048036038101906103db91906123b7565b610d9d565b6040516103ed9190612eca565b60405180910390f35b34801561040257600080fd5b5061040b610eef565b604051610418919061314c565b60405180910390f35b34801561042d57600080fd5b506104486004803603810190610443919061217b565b610ef5565b6040516104559190612eaf565b60405180910390f35b34801561046a57600080fd5b50610473610f89565b6040516104809190612eaf565b60405180910390f35b60007f80ac58cd000000000000000000000000000000000000000000000000000000007bffffffffffffffffffffffffffffffffffffffffffffffffffffffff1916827bffffffffffffffffffffffffffffffffffffffffffffffffffffffff1916148061055457507f5b5e139f000000000000000000000000000000000000000000000000000000007bffffffffffffffffffffffffffffffffffffffffffffffffffffffff1916827bffffffffffffffffffffffffffffffffffffffffffffffffffffffff1916145b80610564575061056382610f9c565b5b9050919050565b60606000805461057a90613432565b80601f01602080910402602001604051908101604052809291908181526020018280546105a690613432565b80156105f35780601f106105c8576101008083540402835291602001916105f3565b820191906000526020600020905b8154815290600101906020018083116105d657829003601f168201915b5050505050905090565b600061060882611006565b610647576040517f08c379a000000000000000000000000000000000000000000000000000000000815260040161063e9061308c565b60405180910390fd5b6004600083815260200190815260200160002060009054906101000a900473ffffffffffffffffffffffffffffffffffffffff169050919050565b600061068d82610846565b90508073ffffffffffffffffffffffffffffffffffffffff168373ffffffffffffffffffffffffffffffffffffffff1614156106fe576040517f08c379a00000000000000000000000000000000000000000000000000000000081526004016106f59061310c565b60405180910390fd5b8073ffffffffffffffffffffffffffffffffffffffff1661071d611072565b73ffffffffffffffffffffffffffffffffffffffff16148061074c575061074b81610746611072565b610ef5565b5b61078b576040517f08c379a000000000000000000000000000000000000000000000000000000000815260040161078290612fac565b60405180910390fd5b610795838361107a565b505050565b6107ab6107a5611072565b82611133565b6107ea576040517f08c379a00000000000000000000000000000000000000000000000000000000081526004016107e19061312c565b60405180910390fd5b6107f5838383611211565b505050565b600860009054906101000a900460ff1615600860006101000a81548160ff021916908315150217905550565b61084183838360405180602001604052806000815250610d3b565b505050565b6000806002600084815260200190815260200160002060009054906101000a900473ffffffffffffffffffffffffffffffffffffffff169050600073ffffffffffffffffffffffffffffffffffffffff168173ffffffffffffffffffffffffffffffffffffffff1614156108ef576040517f08c379a00000000000000000000000000000000000000000000000000000000081526004016108e690612fec565b60405180910390fd5b80915050919050565b60008073ffffffffffffffffffffffffffffffffffffffff168273ffffffffffffffffffffffffffffffffffffffff161415610969576040517f08c379a000000000000000000000000000000000000000000000000000000000815260040161096090612fcc565b60405180910390fd5b600360008373ffffffffffffffffffffffffffffffffffffffff1673ffffffffffffffffffffffffffffffffffffffff168152602001908152602001600020549050919050565b6122b881565b6060600180546109c590613432565b80601f01602080910402602001604051908101604052809291908181526020018280546109f190613432565b8015610a3e5780601f10610a1357610100808354040283529160200191610a3e565b820191906000526020600020905b815481529060010190602001808311610a2157829003601f168201915b5050505050905090565b346701bc16d674ec800014610a92576040517f08c379a0000000000000000000000000000000000000000000000000000000008152600401610a8990612f6c565b60405180910390fd5b600860009054906101000a900460ff16610ae1576040517f08c379a0000000000000000000000000000000000000000000000000000000008152600401610ad8906130ec565b60405180910390fd5b6122b86001600754610af39190613267565b1115610b34576040517f08c379a0000000000000000000000000000000000000000000000000000000008152600401610b2b9061302c565b60405180910390fd5b610b403360075461146d565b6000610b4c838361148b565b9050610b5a60075482611631565b6007547fe851783ba8a3c655a2dea91aa58be9db00033ae9e46b7d8b81e1ed03358f37a782604051610b8c9190612eca565b60405180910390a26001600754610ba39190613267565b600781905550505050565b6701bc16d674ec800081565b610bc2611072565b73ffffffffffffffffffffffffffffffffffffffff168273ffffffffffffffffffffffffffffffffffffffff161415610c30576040517f08c379a0000000000000000000000000000000000000000000000000000000008152600401610c2790612f4c565b60405180910390fd5b8060056000610c3d611072565b73ffffffffffffffffffffffffffffffffffffffff1673ffffffffffffffffffffffffffffffffffffffff16815260200190815260200160002060008473ffffffffffffffffffffffffffffffffffffffff1673ffffffffffffffffffffffffffffffffffffffff16815260200190815260200160002060006101000a81548160ff0219169083151502179055508173ffffffffffffffffffffffffffffffffffffffff16610cea611072565b73ffffffffffffffffffffffffffffffffffffffff167f17307eab39ab6107e8899845ad3d59bd9653f200f220920489ca2b5937696c3183604051610d2f9190612eaf565b60405180910390a35050565b610d4c610d46611072565b83611133565b610d8b576040517f08c379a0000000000000000000000000000000000000000000000000000000008152600401610d829061312c565b60405180910390fd5b610d97848484846116a5565b50505050565b6060610da882611006565b610de7576040517f08c379a0000000000000000000000000000000000000000000000000000000008152600401610dde9061306c565b60405180910390fd5b6000600660008481526020019081526020016000208054610e0790613432565b80601f0160208091040260200160405190810160405280929190818152602001828054610e3390613432565b8015610e805780601f10610e5557610100808354040283529160200191610e80565b820191906000526020600020905b815481529060010190602001808311610e6357829003601f168201915b505050505090506000610e91611701565b9050600081511415610ea7578192505050610eea565b600082511115610edc578082604051602001610ec4929190612d76565b60405160208183030381529060405292505050610eea565b610ee584611718565b925050505b919050565b60075481565b6000600560008473ffffffffffffffffffffffffffffffffffffffff1673ffffffffffffffffffffffffffffffffffffffff16815260200190815260200160002060008373ffffffffffffffffffffffffffffffffffffffff1673ffffffffffffffffffffffffffffffffffffffff16815260200190815260200160002060009054906101000a900460ff16905092915050565b600860009054906101000a900460ff1681565b60007f01ffc9a7000000000000000000000000000000000000000000000000000000007bffffffffffffffffffffffffffffffffffffffffffffffffffffffff1916827bffffffffffffffffffffffffffffffffffffffffffffffffffffffff1916149050919050565b60008073ffffffffffffffffffffffffffffffffffffffff166002600084815260200190815260200160002060009054906101000a900473ffffffffffffffffffffffffffffffffffffffff1673ffffffffffffffffffffffffffffffffffffffff1614159050919050565b600033905090565b816004600083815260200190815260200160002060006101000a81548173ffffffffffffffffffffffffffffffffffffffff021916908373ffffffffffffffffffffffffffffffffffffffff160217905550808273ffffffffffffffffffffffffffffffffffffffff166110ed83610846565b73ffffffffffffffffffffffffffffffffffffffff167f8c5be1e5ebec7d5bd14f71427d1e84f3dd0314c0f7b2291e5b200ac8c7c3b92560405160405180910390a45050565b600061113e82611006565b61117d576040517f08c379a000000000000000000000000000000000000000000000000000000000815260040161117490612f8c565b60405180910390fd5b600061118883610846565b90508073ffffffffffffffffffffffffffffffffffffffff168473ffffffffffffffffffffffffffffffffffffffff1614806111f757508373ffffffffffffffffffffffffffffffffffffffff166111df846105fd565b73ffffffffffffffffffffffffffffffffffffffff16145b8061120857506112078185610ef5565b5b91505092915050565b8273ffffffffffffffffffffffffffffffffffffffff1661123182610846565b73ffffffffffffffffffffffffffffffffffffffff1614611287576040517f08c379a000000000000000000000000000000000000000000000000000000000815260040161127e906130ac565b60405180910390fd5b600073ffffffffffffffffffffffffffffffffffffffff168273ffffffffffffffffffffffffffffffffffffffff1614156112f7576040517f08c379a00000000000000000000000000000000000000000000000000000000081526004016112ee90612f2c565b60405180910390fd5b6113028383836117bf565b61130d60008261107a565b6001600360008573ffffffffffffffffffffffffffffffffffffffff1673ffffffffffffffffffffffffffffffffffffffff168152602001908152602001600020600082825461135d9190613348565b925050819055506001600360008473ffffffffffffffffffffffffffffffffffffffff1673ffffffffffffffffffffffffffffffffffffffff16815260200190815260200160002060008282546113b49190613267565b92505081905550816002600083815260200190815260200160002060006101000a81548173ffffffffffffffffffffffffffffffffffffffff021916908373ffffffffffffffffffffffffffffffffffffffff160217905550808273ffffffffffffffffffffffffffffffffffffffff168473ffffffffffffffffffffffffffffffffffffffff167fddf252ad1be2c89b69c2b068fc378daa952ba7f163c4a11628f55a4df523b3ef60405160405180910390a4505050565b6114878282604051806020016040528060008152506117c4565b5050565b606060006040518060400160405280601d81526020017f646174613a6170706c69636174696f6e2f6a736f6e3b6261736536342c0000008152509050600060405180602001604052806000815250905060005b600185516114ec9190613348565b81101561156a578185828151811061152d577f4e487b7100000000000000000000000000000000000000000000000000000000600052603260045260246000fd5b6020026020010151604051602001611546929190612d9a565b6040516020818303038152906040529150808061156290613464565b9150506114de565b5080846001865161157b9190613348565b815181106115b2577f4e487b7100000000000000000000000000000000000000000000000000000000600052603260045260246000fd5b60200260200101516040516020016115cb929190612e0e565b60405160208183030381529060405290508161160782876040516020016115f3929190612dc9565b60405160208183030381529060405261181f565b604051602001611618929190612d76565b6040516020818303038152906040529250505092915050565b61163a82611006565b611679576040517f08c379a00000000000000000000000000000000000000000000000000000000081526004016116709061300c565b60405180910390fd5b806006600084815260200190815260200160002090805190602001906116a0929190611eef565b505050565b6116b0848484611211565b6116bc848484846119ca565b6116fb576040517f08c379a00000000000000000000000000000000000000000000000000000000081526004016116f290612eec565b60405180910390fd5b50505050565b606060405180602001604052806000815250905090565b606061172382611006565b611762576040517f08c379a0000000000000000000000000000000000000000000000000000000008152600401611759906130cc565b60405180910390fd5b600061176c611701565b9050600081511161178c57604051806020016040528060008152506117b7565b8061179684611b61565b6040516020016117a7929190612d76565b6040516020818303038152906040525b915050919050565b505050565b6117ce8383611d0e565b6117db60008484846119ca565b61181a576040517f08c379a000000000000000000000000000000000000000000000000000000000815260040161181190612eec565b60405180910390fd5b505050565b6060600082511415611842576040518060200160405280600081525090506119c5565b600060405180606001604052806040815260200161360860409139905060006003600285516118719190613267565b61187b91906132bd565b600461188791906132ee565b905060006020826118989190613267565b67ffffffffffffffff8111156118d7577f4e487b7100000000000000000000000000000000000000000000000000000000600052604160045260246000fd5b6040519080825280601f01601f1916602001820160405280156119095781602001600182028036833780820191505090505b509050818152600183018586518101602084015b81831015611984576003830192508251603f8160121c1685015160f81b8252600182019150603f81600c1c1685015160f81b8252600182019150603f8160061c1685015160f81b8252600182019150603f811685015160f81b82526001820191505061191d565b60038951066001811461199e57600281146119ae576119b9565b613d3d60f01b60028303526119b9565b603d60f81b60018303525b50505050508093505050505b919050565b60006119eb8473ffffffffffffffffffffffffffffffffffffffff16611edc565b15611b54578373ffffffffffffffffffffffffffffffffffffffff1663150b7a02611a14611072565b8786866040518563ffffffff1660e01b8152600401611a369493929190612e63565b602060405180830381600087803b158015611a5057600080fd5b505af1925050508015611a8157506040513d601f19601f82011682018060405250810190611a7e9190612322565b60015b611b04573d8060008114611ab1576040519150601f19603f3d011682016040523d82523d6000602084013e611ab6565b606091505b50600081511415611afc576040517f08c379a0000000000000000000000000000000000000000000000000000000008152600401611af390612eec565b60405180910390fd5b805181602001fd5b63150b7a0260e01b7bffffffffffffffffffffffffffffffffffffffffffffffffffffffff1916817bffffffffffffffffffffffffffffffffffffffffffffffffffffffff191614915050611b59565b600190505b949350505050565b60606000821415611ba9576040518060400160405280600181526020017f30000000000000000000000000000000000000000000000000000000000000008152509050611d09565b600082905060005b60008214611bdb578080611bc490613464565b915050600a82611bd491906132bd565b9150611bb1565b60008167ffffffffffffffff811115611c1d577f4e487b7100000000000000000000000000000000000000000000000000000000600052604160045260246000fd5b6040519080825280601f01601f191660200182016040528015611c4f5781602001600182028036833780820191505090505b5090505b60008514611d0257600182611c689190613348565b9150600a85611c7791906134ad565b6030611c839190613267565b60f81b818381518110611cbf577f4e487b7100000000000000000000000000000000000000000000000000000000600052603260045260246000fd5b60200101907effffffffffffffffffffffffffffffffffffffffffffffffffffffffffffff1916908160001a905350600a85611cfb91906132bd565b9450611c53565b8093505050505b919050565b600073ffffffffffffffffffffffffffffffffffffffff168273ffffffffffffffffffffffffffffffffffffffff161415611d7e576040517f08c379a0000000000000000000000000000000000000000000000000000000008152600401611d759061304c565b60405180910390fd5b611d8781611006565b15611dc7576040517f08c379a0000000000000000000000000000000000000000000000000000000008152600401611dbe90612f0c565b60405180910390fd5b611dd3600083836117bf565b6001600360008473ffffffffffffffffffffffffffffffffffffffff1673ffffffffffffffffffffffffffffffffffffffff1681526020019081526020016000206000828254611e239190613267565b92505081905550816002600083815260200190815260200160002060006101000a81548173ffffffffffffffffffffffffffffffffffffffff021916908373ffffffffffffffffffffffffffffffffffffffff160217905550808273ffffffffffffffffffffffffffffffffffffffff16600073ffffffffffffffffffffffffffffffffffffffff167fddf252ad1be2c89b69c2b068fc378daa952ba7f163c4a11628f55a4df523b3ef60405160405180910390a45050565b600080823b905060008111915050919050565b828054611efb90613432565b90600052602060002090601f016020900481019282611f1d5760008555611f64565b82601f10611f3657805160ff1916838001178555611f64565b82800160010185558215611f64579182015b82811115611f63578251825591602001919060010190611f48565b5b509050611f719190611f75565b5090565b5b80821115611f8e576000816000905550600101611f76565b5090565b6000611fa5611fa084613198565b613167565b9050808382526020820190508260005b85811015611fe55781358501611fcb8882612113565b845260208401935060208301925050600181019050611fb5565b5050509392505050565b6000612002611ffd846131c4565b613167565b90508281526020810184848401111561201a57600080fd5b6120258482856133f0565b509392505050565b600061204061203b846131f4565b613167565b90508281526020810184848401111561205857600080fd5b6120638482856133f0565b509392505050565b60008135905061207a816135ab565b92915050565b600082601f83011261209157600080fd5b81356120a1848260208601611f92565b91505092915050565b6000813590506120b9816135c2565b92915050565b6000813590506120ce816135d9565b92915050565b6000815190506120e3816135d9565b92915050565b600082601f8301126120fa57600080fd5b813561210a848260208601611fef565b91505092915050565b600082601f83011261212457600080fd5b813561213484826020860161202d565b91505092915050565b60008135905061214c816135f0565b92915050565b60006020828403121561216457600080fd5b60006121728482850161206b565b91505092915050565b6000806040838503121561218e57600080fd5b600061219c8582860161206b565b92505060206121ad8582860161206b565b9150509250929050565b6000806000606084860312156121cc57600080fd5b60006121da8682870161206b565b93505060206121eb8682870161206b565b92505060406121fc8682870161213d565b9150509250925092565b6000806000806080858703121561221c57600080fd5b600061222a8782880161206b565b945050602061223b8782880161206b565b935050604061224c8782880161213d565b925050606085013567ffffffffffffffff81111561226957600080fd5b612275878288016120e9565b91505092959194509250565b6000806040838503121561229457600080fd5b60006122a28582860161206b565b92505060206122b3858286016120aa565b9150509250929050565b600080604083850312156122d057600080fd5b60006122de8582860161206b565b92505060206122ef8582860161213d565b9150509250929050565b60006020828403121561230b57600080fd5b6000612319848285016120bf565b91505092915050565b60006020828403121561233457600080fd5b6000612342848285016120d4565b91505092915050565b6000806040838503121561235e57600080fd5b600083013567ffffffffffffffff81111561237857600080fd5b61238485828601612113565b925050602083013567ffffffffffffffff8111156123a157600080fd5b6123ad85828601612080565b9150509250929050565b6000602082840312156123c957600080fd5b60006123d78482850161213d565b91505092915050565b6123e98161337c565b82525050565b6123f88161338e565b82525050565b600061240982613224565b612413818561323a565b93506124238185602086016133ff565b61242c8161359a565b840191505092915050565b60006124428261322f565b61244c818561324b565b935061245c8185602086016133ff565b6124658161359a565b840191505092915050565b600061247b8261322f565b612485818561325c565b93506124958185602086016133ff565b80840191505092915050565b60006124ae604a8361325c565b91507f7b226e616d65223a202242616e6e6572222c226465736372697074696f6e223a60008301527f20224e46542041492047656e6572617465642042616e6e657221222c2022617460208301527f7472696275746573223a000000000000000000000000000000000000000000006040830152604a82019050919050565b600061253a60328361324b565b91507f4552433732313a207472616e7366657220746f206e6f6e20455243373231526560008301527f63656976657220696d706c656d656e74657200000000000000000000000000006020830152604082019050919050565b60006125a0601c8361324b565b91507f4552433732313a20746f6b656e20616c7265616479206d696e746564000000006000830152602082019050919050565b60006125e060018361325c565b91507f2c000000000000000000000000000000000000000000000000000000000000006000830152600182019050919050565b600061262060248361324b565b91507f4552433732313a207472616e7366657220746f20746865207a65726f2061646460008301527f72657373000000000000000000000000000000000000000000000000000000006020830152604082019050919050565b600061268660198361324b565b91507f4552433732313a20617070726f766520746f2063616c6c6572000000000000006000830152602082019050919050565b60006126c6601f8361324b565b91507f45746865722076616c75652073656e74206973206e6f7420636f7272656374006000830152602082019050919050565b6000612706602c8361324b565b91507f4552433732313a206f70657261746f7220717565727920666f72206e6f6e657860008301527f697374656e7420746f6b656e00000000000000000000000000000000000000006020830152604082019050919050565b600061276c60388361324b565b91507f4552433732313a20617070726f76652063616c6c6572206973206e6f74206f7760008301527f6e6572206e6f7220617070726f76656420666f7220616c6c00000000000000006020830152604082019050919050565b60006127d2600a8361325c565b91507f2c2022696d616765223a000000000000000000000000000000000000000000006000830152600a82019050919050565b6000612812602a8361324b565b91507f4552433732313a2062616c616e636520717565727920666f7220746865207a6560008301527f726f2061646472657373000000000000000000000000000000000000000000006020830152604082019050919050565b600061287860298361324b565b91507f4552433732313a206f776e657220717565727920666f72206e6f6e657869737460008301527f656e7420746f6b656e00000000000000000000000000000000000000000000006020830152604082019050919050565b60006128de602e8361324b565b91507f45524337323155524953746f726167653a2055524920736574206f66206e6f6e60008301527f6578697374656e7420746f6b656e0000000000000000000000000000000000006020830152604082019050919050565b6000612944602a8361324b565b91507f507572636861736520776f756c6420657863656564206d617820737570706c7960008301527f206f6620746f6b656e73000000000000000000000000000000000000000000006020830152604082019050919050565b60006129aa60028361325c565b91507f227d0000000000000000000000000000000000000000000000000000000000006000830152600282019050919050565b60006129ea60208361324b565b91507f4552433732313a206d696e7420746f20746865207a65726f20616464726573736000830152602082019050919050565b6000612a2a60318361324b565b91507f45524337323155524953746f726167653a2055524920717565727920666f722060008301527f6e6f6e6578697374656e7420746f6b656e0000000000000000000000000000006020830152604082019050919050565b6000612a90602c8361324b565b91507f4552433732313a20617070726f76656420717565727920666f72206e6f6e657860008301527f697374656e7420746f6b656e00000000000000000000000000000000000000006020830152604082019050919050565b6000612af660018361325c565b91507f5b000000000000000000000000000000000000000000000000000000000000006000830152600182019050919050565b6000612b3660298361324b565b91507f4552433732313a207472616e73666572206f6620746f6b656e2074686174206960008301527f73206e6f74206f776e00000000000000000000000000000000000000000000006020830152604082019050919050565b6000612b9c602f8361324b565b91507f4552433732314d657461646174613a2055524920717565727920666f72206e6f60008301527f6e6578697374656e7420746f6b656e00000000000000000000000000000000006020830152604082019050919050565b6000612c0260228361324b565b91507f53616c65206d7573742062652061637469766520746f206d696e7420746f6b6560008301527f6e730000000000000000000000000000000000000000000000000000000000006020830152604082019050919050565b6000612c6860018361325c565b91507f5d000000000000000000000000000000000000000000000000000000000000006000830152600182019050919050565b6000612ca860218361324b565b91507f4552433732313a20617070726f76616c20746f2063757272656e74206f776e6560008301527f72000000000000000000000000000000000000000000000000000000000000006020830152604082019050919050565b6000612d0e60318361324b565b91507f4552433732313a207472616e736665722063616c6c6572206973206e6f74206f60008301527f776e6572206e6f7220617070726f7665640000000000000000000000000000006020830152604082019050919050565b612d70816133e6565b82525050565b6000612d828285612470565b9150612d8e8284612470565b91508190509392505050565b6000612da68285612470565b9150612db28284612470565b9150612dbd826125d3565b91508190509392505050565b6000612dd4826124a1565b9150612de08285612470565b9150612deb826127c5565b9150612df78284612470565b9150612e028261299d565b91508190509392505050565b6000612e1982612ae9565b9150612e258285612470565b9150612e318284612470565b9150612e3c82612c5b565b91508190509392505050565b6000602082019050612e5d60008301846123e0565b92915050565b6000608082019050612e7860008301876123e0565b612e8560208301866123e0565b612e926040830185612d67565b8181036060830152612ea481846123fe565b905095945050505050565b6000602082019050612ec460008301846123ef565b92915050565b60006020820190508181036000830152612ee48184612437565b905092915050565b60006020820190508181036000830152612f058161252d565b9050919050565b60006020820190508181036000830152612f2581612593565b9050919050565b60006020820190508181036000830152612f4581612613565b9050919050565b60006020820190508181036000830152612f6581612679565b9050919050565b60006020820190508181036000830152612f85816126b9565b9050919050565b60006020820190508181036000830152612fa5816126f9565b9050919050565b60006020820190508181036000830152612fc58161275f565b9050919050565b60006020820190508181036000830152612fe581612805565b9050919050565b600060208201905081810360008301526130058161286b565b9050919050565b60006020820190508181036000830152613025816128d1565b9050919050565b6000602082019050818103600083015261304581612937565b9050919050565b60006020820190508181036000830152613065816129dd565b9050919050565b6000602082019050818103600083015261308581612a1d565b9050919050565b600060208201905081810360008301526130a581612a83565b9050919050565b600060208201905081810360008301526130c581612b29565b9050919050565b600060208201905081810360008301526130e581612b8f565b9050919050565b6000602082019050818103600083015261310581612bf5565b9050919050565b6000602082019050818103600083015261312581612c9b565b9050919050565b6000602082019050818103600083015261314581612d01565b9050919050565b60006020820190506131616000830184612d67565b92915050565b6000604051905081810181811067ffffffffffffffff8211171561318e5761318d61356b565b5b8060405250919050565b600067ffffffffffffffff8211156131b3576131b261356b565b5b602082029050602081019050919050565b600067ffffffffffffffff8211156131df576131de61356b565b5b601f19601f8301169050602081019050919050565b600067ffffffffffffffff82111561320f5761320e61356b565b5b601f19601f8301169050602081019050919050565b600081519050919050565b600081519050919050565b600082825260208201905092915050565b600082825260208201905092915050565b600081905092915050565b6000613272826133e6565b915061327d836133e6565b9250827fffffffffffffffffffffffffffffffffffffffffffffffffffffffffffffffff038211156132b2576132b16134de565b5b828201905092915050565b60006132c8826133e6565b91506132d3836133e6565b9250826132e3576132e261350d565b5b828204905092915050565b60006132f9826133e6565b9150613304836133e6565b9250817fffffffffffffffffffffffffffffffffffffffffffffffffffffffffffffffff048311821515161561333d5761333c6134de565b5b828202905092915050565b6000613353826133e6565b915061335e836133e6565b925082821015613371576133706134de565b5b828203905092915050565b6000613387826133c6565b9050919050565b60008115159050919050565b60007fffffffff0000000000000000000000000000000000000000000000000000000082169050919050565b600073ffffffffffffffffffffffffffffffffffffffff82169050919050565b6000819050919050565b82818337600083830152505050565b60005b8381101561341d578082015181840152602081019050613402565b8381111561342c576000848401525b50505050565b6000600282049050600182168061344a57607f821691505b6020821081141561345e5761345d61353c565b5b50919050565b600061346f826133e6565b91507fffffffffffffffffffffffffffffffffffffffffffffffffffffffffffffffff8214156134a2576134a16134de565b5b600182019050919050565b60006134b8826133e6565b91506134c3836133e6565b9250826134d3576134d261350d565b5b828206905092915050565b7f4e487b7100000000000000000000000000000000000000000000000000000000600052601160045260246000fd5b7f4e487b7100000000000000000000000000000000000000000000000000000000600052601260045260246000fd5b7f4e487b7100000000000000000000000000000000000000000000000000000000600052602260045260246000fd5b7f4e487b7100000000000000000000000000000000000000000000000000000000600052604160045260246000fd5b6000601f19601f8301169050919050565b6135b48161337c565b81146135bf57600080fd5b50565b6135cb8161338e565b81146135d657600080fd5b50565b6135e28161339a565b81146135ed57600080fd5b50565b6135f9816133e6565b811461360457600080fd5b5056fe4142434445464748494a4b4c4d4e4f505152535455565758595a6162636465666768696a6b6c6d6e6f707172737475767778797a303132333435363738392b2fa26469706673582212207b33fbd733da9fbd20e0ddb1ed763a04f94d4c92628a48d21eff5dac3c12ab6064736f6c63430008000033",
  "devdoc": {
    "kind": "dev",
    "methods": {
      "approve(address,uint256)": {
        "details": "See {IERC721-approve}."
      },
      "balanceOf(address)": {
        "details": "See {IERC721-balanceOf}."
      },
      "getApproved(uint256)": {
        "details": "See {IERC721-getApproved}."
      },
      "isApprovedForAll(address,address)": {
        "details": "See {IERC721-isApprovedForAll}."
      },
      "name()": {
        "details": "See {IERC721Metadata-name}."
      },
      "ownerOf(uint256)": {
        "details": "See {IERC721-ownerOf}."
      },
      "safeTransferFrom(address,address,uint256)": {
        "details": "See {IERC721-safeTransferFrom}."
      },
      "safeTransferFrom(address,address,uint256,bytes)": {
        "details": "See {IERC721-safeTransferFrom}."
      },
      "setApprovalForAll(address,bool)": {
        "details": "See {IERC721-setApprovalForAll}."
      },
      "supportsInterface(bytes4)": {
        "details": "See {IERC165-supportsInterface}."
      },
      "symbol()": {
        "details": "See {IERC721Metadata-symbol}."
      },
      "tokenURI(uint256)": {
        "details": "See {IERC721Metadata-tokenURI}."
      },
      "transferFrom(address,address,uint256)": {
        "details": "See {IERC721-transferFrom}."
      }
    },
    "version": 1
  },
  "userdoc": {
    "kind": "user",
    "methods": {},
    "version": 1
  },
  "storageLayout": {
    "storage": [
      {
        "astId": 25,
        "contract": "contracts/AIBanner.sol:AIBanner",
        "label": "_name",
        "offset": 0,
        "slot": "0",
        "type": "t_string_storage"
      },
      {
        "astId": 27,
        "contract": "contracts/AIBanner.sol:AIBanner",
        "label": "_symbol",
        "offset": 0,
        "slot": "1",
        "type": "t_string_storage"
      },
      {
        "astId": 31,
        "contract": "contracts/AIBanner.sol:AIBanner",
        "label": "_owners",
        "offset": 0,
        "slot": "2",
        "type": "t_mapping(t_uint256,t_address)"
      },
      {
        "astId": 35,
        "contract": "contracts/AIBanner.sol:AIBanner",
        "label": "_balances",
        "offset": 0,
        "slot": "3",
        "type": "t_mapping(t_address,t_uint256)"
      },
      {
        "astId": 39,
        "contract": "contracts/AIBanner.sol:AIBanner",
        "label": "_tokenApprovals",
        "offset": 0,
        "slot": "4",
        "type": "t_mapping(t_uint256,t_address)"
      },
      {
        "astId": 45,
        "contract": "contracts/AIBanner.sol:AIBanner",
        "label": "_operatorApprovals",
        "offset": 0,
        "slot": "5",
        "type": "t_mapping(t_address,t_mapping(t_address,t_bool))"
      },
      {
        "astId": 962,
        "contract": "contracts/AIBanner.sol:AIBanner",
        "label": "_tokenURIs",
        "offset": 0,
        "slot": "6",
        "type": "t_mapping(t_uint256,t_string_storage)"
      },
      {
        "astId": 1720,
        "contract": "contracts/AIBanner.sol:AIBanner",
        "label": "tokenCounter",
        "offset": 0,
        "slot": "7",
        "type": "t_uint256"
      },
      {
        "astId": 1735,
        "contract": "contracts/AIBanner.sol:AIBanner",
        "label": "saleIsActive",
        "offset": 0,
        "slot": "8",
        "type": "t_bool"
      }
    ],
    "types": {
      "t_address": {
        "encoding": "inplace",
        "label": "address",
        "numberOfBytes": "20"
      },
      "t_bool": {
        "encoding": "inplace",
        "label": "bool",
        "numberOfBytes": "1"
      },
      "t_mapping(t_address,t_bool)": {
        "encoding": "mapping",
        "key": "t_address",
        "label": "mapping(address => bool)",
        "numberOfBytes": "32",
        "value": "t_bool"
      },
      "t_mapping(t_address,t_mapping(t_address,t_bool))": {
        "encoding": "mapping",
        "key": "t_address",
        "label": "mapping(address => mapping(address => bool))",
        "numberOfBytes": "32",
        "value": "t_mapping(t_address,t_bool)"
      },
      "t_mapping(t_address,t_uint256)": {
        "encoding": "mapping",
        "key": "t_address",
        "label": "mapping(address => uint256)",
        "numberOfBytes": "32",
        "value": "t_uint256"
      },
      "t_mapping(t_uint256,t_address)": {
        "encoding": "mapping",
        "key": "t_uint256",
        "label": "mapping(uint256 => address)",
        "numberOfBytes": "32",
        "value": "t_address"
      },
      "t_mapping(t_uint256,t_string_storage)": {
        "encoding": "mapping",
        "key": "t_uint256",
        "label": "mapping(uint256 => string)",
        "numberOfBytes": "32",
        "value": "t_string_storage"
      },
      "t_string_storage": {
        "encoding": "bytes",
        "label": "string",
        "numberOfBytes": "32"
      },
      "t_uint256": {
        "encoding": "inplace",
        "label": "uint256",
        "numberOfBytes": "32"
      }
    }
  }
}