{
  "address": "0xe23997D62b453bF78E7FE1F9d93E10008909434F",
  "abi": [
    {
      "inputs": [],
      "stateMutability": "nonpayable",
      "type": "constructor"
    },
    {
      "anonymous": false,
      "inputs": [
        {
          "indexed": true,
          "internalType": "address",
          "name": "owner",
          "type": "address"
        },
        {
          "indexed": true,
          "internalType": "address",
          "name": "approved",
          "type": "address"
        },
        {
          "indexed": true,
          "internalType": "uint256",
          "name": "tokenId",
          "type": "uint256"
        }
      ],
      "name": "Approval",
      "type": "event"
    },
    {
      "anonymous": false,
      "inputs": [
        {
          "indexed": true,
          "internalType": "address",
          "name": "owner",
          "type": "address"
        },
        {
          "indexed": true,
          "internalType": "address",
          "name": "operator",
          "type": "address"
        },
        {
          "indexed": false,
          "internalType": "bool",
          "name": "approved",
          "type": "bool"
        }
      ],
      "name": "ApprovalForAll",
      "type": "event"
    },
    {
      "anonymous": false,
      "inputs": [
        {
          "indexed": true,
          "internalType": "uint256",
          "name": "tokenId",
          "type": "uint256"
        },
        {
          "indexed": false,
          "internalType": "string",
          "name": "tokenURI",
          "type": "string"
        }
      ],
      "name": "CreatedAIBanner",
      "type": "event"
    },
    {
      "anonymous": false,
      "inputs": [
        {
          "indexed": true,
          "internalType": "address",
          "name": "from",
          "type": "address"
        },
        {
          "indexed": true,
          "internalType": "address",
          "name": "to",
          "type": "address"
        },
        {
          "indexed": true,
          "internalType": "uint256",
          "name": "tokenId",
          "type": "uint256"
        }
      ],
      "name": "Transfer",
      "type": "event"
    },
    {
      "inputs": [
        {
          "internalType": "address",
          "name": "to",
          "type": "address"
        },
        {
          "internalType": "uint256",
          "name": "tokenId",
          "type": "uint256"
        }
      ],
      "name": "approve",
      "outputs": [],
      "stateMutability": "nonpayable",
      "type": "function"
    },
    {
      "inputs": [
        {
          "internalType": "address",
          "name": "owner",
          "type": "address"
        }
      ],
      "name": "balanceOf",
      "outputs": [
        {
          "internalType": "uint256",
          "name": "",
          "type": "uint256"
        }
      ],
      "stateMutability": "view",
      "type": "function"
    },
    {
      "inputs": [
        {
          "internalType": "string",
          "name": "imageURI",
          "type": "string"
        },
        {
          "internalType": "string[]",
          "name": "attributeArr",
          "type": "string[]"
        }
      ],
      "name": "formatTokenURI",
      "outputs": [
        {
          "internalType": "string",
          "name": "",
          "type": "string"
        }
      ],
      "stateMutability": "pure",
      "type": "function"
    },
    {
      "inputs": [
        {
          "internalType": "uint256",
          "name": "tokenId",
          "type": "uint256"
        }
      ],
      "name": "getApproved",
      "outputs": [
        {
          "internalType": "address",
          "name": "",
          "type": "address"
        }
      ],
      "stateMutability": "view",
      "type": "function"
    },
    {
      "inputs": [
        {
          "internalType": "address",
          "name": "owner",
          "type": "address"
        },
        {
          "internalType": "address",
          "name": "operator",
          "type": "address"
        }
      ],
      "name": "isApprovedForAll",
      "outputs": [
        {
          "internalType": "bool",
          "name": "",
          "type": "bool"
        }
      ],
      "stateMutability": "view",
      "type": "function"
    },
    {
      "inputs": [
        {
          "internalType": "string",
          "name": "imageURI",
          "type": "string"
        },
        {
          "internalType": "string[]",
          "name": "attributeArr",
          "type": "string[]"
        }
      ],
      "name": "mintBanner",
      "outputs": [],
      "stateMutability": "payable",
      "type": "function"
    },
    {
      "inputs": [],
      "name": "name",
      "outputs": [
        {
          "internalType": "string",
          "name": "",
          "type": "string"
        }
      ],
      "stateMutability": "view",
      "type": "function"
    },
    {
      "inputs": [
        {
          "internalType": "uint256",
          "name": "tokenId",
          "type": "uint256"
        }
      ],
      "name": "ownerOf",
      "outputs": [
        {
          "internalType": "address",
          "name": "",
          "type": "address"
        }
      ],
      "stateMutability": "view",
      "type": "function"
    },
    {
      "inputs": [
        {
          "internalType": "address",
          "name": "from",
          "type": "address"
        },
        {
          "internalType": "address",
          "name": "to",
          "type": "address"
        },
        {
          "internalType": "uint256",
          "name": "tokenId",
          "type": "uint256"
        }
      ],
      "name": "safeTransferFrom",
      "outputs": [],
      "stateMutability": "nonpayable",
      "type": "function"
    },
    {
      "inputs": [
        {
          "internalType": "address",
          "name": "from",
          "type": "address"
        },
        {
          "internalType": "address",
          "name": "to",
          "type": "address"
        },
        {
          "internalType": "uint256",
          "name": "tokenId",
          "type": "uint256"
        },
        {
          "internalType": "bytes",
          "name": "_data",
          "type": "bytes"
        }
      ],
      "name": "safeTransferFrom",
      "outputs": [],
      "stateMutability": "nonpayable",
      "type": "function"
    },
    {
      "inputs": [
        {
          "internalType": "address",
          "name": "operator",
          "type": "address"
        },
        {
          "internalType": "bool",
          "name": "approved",
          "type": "bool"
        }
      ],
      "name": "setApprovalForAll",
      "outputs": [],
      "stateMutability": "nonpayable",
      "type": "function"
    },
    {
      "inputs": [
        {
          "internalType": "bytes4",
          "name": "interfaceId",
          "type": "bytes4"
        }
      ],
      "name": "supportsInterface",
      "outputs": [
        {
          "internalType": "bool",
          "name": "",
          "type": "bool"
        }
      ],
      "stateMutability": "view",
      "type": "function"
    },
    {
      "inputs": [],
      "name": "symbol",
      "outputs": [
        {
          "internalType": "string",
          "name": "",
          "type": "string"
        }
      ],
      "stateMutability": "view",
      "type": "function"
    },
    {
      "inputs": [],
      "name": "tokenCounter",
      "outputs": [
        {
          "internalType": "uint256",
          "name": "",
          "type": "uint256"
        }
      ],
      "stateMutability": "view",
      "type": "function"
    },
    {
      "inputs": [
        {
          "internalType": "uint256",
          "name": "tokenId",
          "type": "uint256"
        }
      ],
      "name": "tokenURI",
      "outputs": [
        {
          "internalType": "string",
          "name": "",
          "type": "string"
        }
      ],
      "stateMutability": "view",
      "type": "function"
    },
    {
      "inputs": [
        {
          "internalType": "address",
          "name": "from",
          "type": "address"
        },
        {
          "internalType": "address",
          "name": "to",
          "type": "address"
        },
        {
          "internalType": "uint256",
          "name": "tokenId",
          "type": "uint256"
        }
      ],
      "name": "transferFrom",
      "outputs": [],
      "stateMutability": "nonpayable",
      "type": "function"
    }
  ],
  "transactionHash": "0x96a9ed5e5f64ad1172aff85d5042abd37fcd07e53f2d4a0ed9f10309d39ab96a",
  "args": [],
  "solcInputHash": "da45802aeecd8294dae18048991e7a06",
  "bytecode": "0x60806040523480156200001157600080fd5b506040518060400160405280600981526020017f41492042616e6e657200000000000000000000000000000000000000000000008152506040518060400160405280600881526020017f414942616e6e6572000000000000000000000000000000000000000000000000815250816000908051906020019062000096929190620000c0565b508060019080519060200190620000af929190620000c0565b5050506000600781905550620001d5565b828054620000ce9062000170565b90600052602060002090601f016020900481019282620000f257600085556200013e565b82601f106200010d57805160ff19168380011785556200013e565b828001600101855582156200013e579182015b828111156200013d57825182559160200191906001019062000120565b5b5090506200014d919062000151565b5090565b5b808211156200016c57600081600090555060010162000152565b5090565b600060028204905060018216806200018957607f821691505b60208210811415620001a0576200019f620001a6565b5b50919050565b7f4e487b7100000000000000000000000000000000000000000000000000000000600052602260045260246000fd5b61335880620001e56000396000f3fe6080604052600436106100f35760003560e01c806370a082311161008a578063b88d4fde11610059578063b88d4fde1461033f578063c87b56dd14610368578063d082e381146103a5578063e985e9c5146103d0576100f3565b806370a082311461029257806395d89b41146102cf5780639c78ab78146102fa578063a22cb46514610316576100f3565b8063095ea7b3116100c6578063095ea7b3146101da57806323b872dd1461020357806342842e0e1461022c5780636352211e14610255576100f3565b806301ffc9a7146100f8578063027ccd0e1461013557806306fdde0314610172578063081812fc1461019d575b600080fd5b34801561010457600080fd5b5061011f600480360381019061011a9190612140565b61040d565b60405161012c9190612bea565b60405180910390f35b34801561014157600080fd5b5061015c60048036038101906101579190612192565b6104ef565b6040516101699190612c05565b60405180910390f35b34801561017e57600080fd5b50610187610695565b6040516101949190612c05565b60405180910390f35b3480156101a957600080fd5b506101c460048036038101906101bf91906121fe565b610727565b6040516101d19190612b83565b60405180910390f35b3480156101e657600080fd5b5061020160048036038101906101fc9190612104565b6107ac565b005b34801561020f57600080fd5b5061022a60048036038101906102259190611ffe565b6108c4565b005b34801561023857600080fd5b50610253600480360381019061024e9190611ffe565b610924565b005b34801561026157600080fd5b5061027c600480360381019061027791906121fe565b610944565b6040516102899190612b83565b60405180910390f35b34801561029e57600080fd5b506102b960048036038101906102b49190611f99565b6109f6565b6040516102c69190612e27565b60405180910390f35b3480156102db57600080fd5b506102e4610aae565b6040516102f19190612c05565b60405180910390f35b610314600480360381019061030f9190612192565b610b40565b005b34801561032257600080fd5b5061033d600480360381019061033891906120c8565b610bba565b005b34801561034b57600080fd5b506103666004803603810190610361919061204d565b610d3b565b005b34801561037457600080fd5b5061038f600480360381019061038a91906121fe565b610d9d565b60405161039c9190612c05565b60405180910390f35b3480156103b157600080fd5b506103ba610eef565b6040516103c79190612e27565b60405180910390f35b3480156103dc57600080fd5b506103f760048036038101906103f29190611fc2565b610ef5565b6040516104049190612bea565b60405180910390f35b60007f80ac58cd000000000000000000000000000000000000000000000000000000007bffffffffffffffffffffffffffffffffffffffffffffffffffffffff1916827bffffffffffffffffffffffffffffffffffffffffffffffffffffffff191614806104d857507f5b5e139f000000000000000000000000000000000000000000000000000000007bffffffffffffffffffffffffffffffffffffffffffffffffffffffff1916827bffffffffffffffffffffffffffffffffffffffffffffffffffffffff1916145b806104e857506104e782610f89565b5b9050919050565b606060006040518060400160405280601d81526020017f646174613a6170706c69636174696f6e2f6a736f6e3b6261736536342c0000008152509050600060405180602001604052806000815250905060005b600185516105509190613023565b8110156105ce5781858281518110610591577f4e487b7100000000000000000000000000000000000000000000000000000000600052603260045260246000fd5b60200260200101516040516020016105aa929190612ad5565b604051602081830303815290604052915080806105c69061313f565b915050610542565b508084600186516105df9190613023565b81518110610616577f4e487b7100000000000000000000000000000000000000000000000000000000600052603260045260246000fd5b602002602001015160405160200161062f929190612b49565b60405160208183030381529060405290508161066b8287604051602001610657929190612b04565b604051602081830303815290604052610ff3565b60405160200161067c929190612ab1565b6040516020818303038152906040529250505092915050565b6060600080546106a49061310d565b80601f01602080910402602001604051908101604052809291908181526020018280546106d09061310d565b801561071d5780601f106106f25761010080835404028352916020019161071d565b820191906000526020600020905b81548152906001019060200180831161070057829003601f168201915b5050505050905090565b60006107328261119e565b610771576040517f08c379a000000000000000000000000000000000000000000000000000000000815260040161076890612d87565b60405180910390fd5b6004600083815260200190815260200160002060009054906101000a900473ffffffffffffffffffffffffffffffffffffffff169050919050565b60006107b782610944565b90508073ffffffffffffffffffffffffffffffffffffffff168373ffffffffffffffffffffffffffffffffffffffff161415610828576040517f08c379a000000000000000000000000000000000000000000000000000000000815260040161081f90612de7565b60405180910390fd5b8073ffffffffffffffffffffffffffffffffffffffff1661084761120a565b73ffffffffffffffffffffffffffffffffffffffff16148061087657506108758161087061120a565b610ef5565b5b6108b5576040517f08c379a00000000000000000000000000000000000000000000000000000000081526004016108ac90612cc7565b60405180910390fd5b6108bf8383611212565b505050565b6108d56108cf61120a565b826112cb565b610914576040517f08c379a000000000000000000000000000000000000000000000000000000000815260040161090b90612e07565b60405180910390fd5b61091f8383836113a9565b505050565b61093f83838360405180602001604052806000815250610d3b565b505050565b6000806002600084815260200190815260200160002060009054906101000a900473ffffffffffffffffffffffffffffffffffffffff169050600073ffffffffffffffffffffffffffffffffffffffff168173ffffffffffffffffffffffffffffffffffffffff1614156109ed576040517f08c379a00000000000000000000000000000000000000000000000000000000081526004016109e490612d07565b60405180910390fd5b80915050919050565b60008073ffffffffffffffffffffffffffffffffffffffff168273ffffffffffffffffffffffffffffffffffffffff161415610a67576040517f08c379a0000000000000000000000000000000000000000000000000000000008152600401610a5e90612ce7565b60405180910390fd5b600360008373ffffffffffffffffffffffffffffffffffffffff1673ffffffffffffffffffffffffffffffffffffffff168152602001908152602001600020549050919050565b606060018054610abd9061310d565b80601f0160208091040260200160405190810160405280929190818152602001828054610ae99061310d565b8015610b365780601f10610b0b57610100808354040283529160200191610b36565b820191906000526020600020905b815481529060010190602001808311610b1957829003601f168201915b5050505050905090565b610b4c33600754611605565b6000610b5883836104ef565b9050610b6660075482611623565b6007547fe851783ba8a3c655a2dea91aa58be9db00033ae9e46b7d8b81e1ed03358f37a782604051610b989190612c05565b60405180910390a26001600754610baf9190612f42565b600781905550505050565b610bc261120a565b73ffffffffffffffffffffffffffffffffffffffff168273ffffffffffffffffffffffffffffffffffffffff161415610c30576040517f08c379a0000000000000000000000000000000000000000000000000000000008152600401610c2790612c87565b60405180910390fd5b8060056000610c3d61120a565b73ffffffffffffffffffffffffffffffffffffffff1673ffffffffffffffffffffffffffffffffffffffff16815260200190815260200160002060008473ffffffffffffffffffffffffffffffffffffffff1673ffffffffffffffffffffffffffffffffffffffff16815260200190815260200160002060006101000a81548160ff0219169083151502179055508173ffffffffffffffffffffffffffffffffffffffff16610cea61120a565b73ffffffffffffffffffffffffffffffffffffffff167f17307eab39ab6107e8899845ad3d59bd9653f200f220920489ca2b5937696c3183604051610d2f9190612bea565b60405180910390a35050565b610d4c610d4661120a565b836112cb565b610d8b576040517f08c379a0000000000000000000000000000000000000000000000000000000008152600401610d8290612e07565b60405180910390fd5b610d9784848484611697565b50505050565b6060610da88261119e565b610de7576040517f08c379a0000000000000000000000000000000000000000000000000000000008152600401610dde90612d67565b60405180910390fd5b6000600660008481526020019081526020016000208054610e079061310d565b80601f0160208091040260200160405190810160405280929190818152602001828054610e339061310d565b8015610e805780601f10610e5557610100808354040283529160200191610e80565b820191906000526020600020905b815481529060010190602001808311610e6357829003601f168201915b505050505090506000610e916116f3565b9050600081511415610ea7578192505050610eea565b600082511115610edc578082604051602001610ec4929190612ab1565b60405160208183030381529060405292505050610eea565b610ee58461170a565b925050505b919050565b60075481565b6000600560008473ffffffffffffffffffffffffffffffffffffffff1673ffffffffffffffffffffffffffffffffffffffff16815260200190815260200160002060008373ffffffffffffffffffffffffffffffffffffffff1673ffffffffffffffffffffffffffffffffffffffff16815260200190815260200160002060009054906101000a900460ff16905092915050565b60007f01ffc9a7000000000000000000000000000000000000000000000000000000007bffffffffffffffffffffffffffffffffffffffffffffffffffffffff1916827bffffffffffffffffffffffffffffffffffffffffffffffffffffffff1916149050919050565b606060008251141561101657604051806020016040528060008152509050611199565b60006040518060600160405280604081526020016132e360409139905060006003600285516110459190612f42565b61104f9190612f98565b600461105b9190612fc9565b9050600060208261106c9190612f42565b67ffffffffffffffff8111156110ab577f4e487b7100000000000000000000000000000000000000000000000000000000600052604160045260246000fd5b6040519080825280601f01601f1916602001820160405280156110dd5781602001600182028036833780820191505090505b509050818152600183018586518101602084015b81831015611158576003830192508251603f8160121c1685015160f81b8252600182019150603f81600c1c1685015160f81b8252600182019150603f8160061c1685015160f81b8252600182019150603f811685015160f81b8252600182019150506110f1565b60038951066001811461117257600281146111825761118d565b613d3d60f01b600283035261118d565b603d60f81b60018303525b50505050508093505050505b919050565b60008073ffffffffffffffffffffffffffffffffffffffff166002600084815260200190815260200160002060009054906101000a900473ffffffffffffffffffffffffffffffffffffffff1673ffffffffffffffffffffffffffffffffffffffff1614159050919050565b600033905090565b816004600083815260200190815260200160002060006101000a81548173ffffffffffffffffffffffffffffffffffffffff021916908373ffffffffffffffffffffffffffffffffffffffff160217905550808273ffffffffffffffffffffffffffffffffffffffff1661128583610944565b73ffffffffffffffffffffffffffffffffffffffff167f8c5be1e5ebec7d5bd14f71427d1e84f3dd0314c0f7b2291e5b200ac8c7c3b92560405160405180910390a45050565b60006112d68261119e565b611315576040517f08c379a000000000000000000000000000000000000000000000000000000000815260040161130c90612ca7565b60405180910390fd5b600061132083610944565b90508073ffffffffffffffffffffffffffffffffffffffff168473ffffffffffffffffffffffffffffffffffffffff16148061138f57508373ffffffffffffffffffffffffffffffffffffffff1661137784610727565b73ffffffffffffffffffffffffffffffffffffffff16145b806113a0575061139f8185610ef5565b5b91505092915050565b8273ffffffffffffffffffffffffffffffffffffffff166113c982610944565b73ffffffffffffffffffffffffffffffffffffffff161461141f576040517f08c379a000000000000000000000000000000000000000000000000000000000815260040161141690612da7565b60405180910390fd5b600073ffffffffffffffffffffffffffffffffffffffff168273ffffffffffffffffffffffffffffffffffffffff16141561148f576040517f08c379a000000000000000000000000000000000000000000000000000000000815260040161148690612c67565b60405180910390fd5b61149a8383836117b1565b6114a5600082611212565b6001600360008573ffffffffffffffffffffffffffffffffffffffff1673ffffffffffffffffffffffffffffffffffffffff16815260200190815260200160002060008282546114f59190613023565b925050819055506001600360008473ffffffffffffffffffffffffffffffffffffffff1673ffffffffffffffffffffffffffffffffffffffff168152602001908152602001600020600082825461154c9190612f42565b92505081905550816002600083815260200190815260200160002060006101000a81548173ffffffffffffffffffffffffffffffffffffffff021916908373ffffffffffffffffffffffffffffffffffffffff160217905550808273ffffffffffffffffffffffffffffffffffffffff168473ffffffffffffffffffffffffffffffffffffffff167fddf252ad1be2c89b69c2b068fc378daa952ba7f163c4a11628f55a4df523b3ef60405160405180910390a4505050565b61161f8282604051806020016040528060008152506117b6565b5050565b61162c8261119e565b61166b576040517f08c379a000000000000000000000000000000000000000000000000000000000815260040161166290612d27565b60405180910390fd5b80600660008481526020019081526020016000209080519060200190611692929190611d36565b505050565b6116a28484846113a9565b6116ae84848484611811565b6116ed576040517f08c379a00000000000000000000000000000000000000000000000000000000081526004016116e490612c27565b60405180910390fd5b50505050565b606060405180602001604052806000815250905090565b60606117158261119e565b611754576040517f08c379a000000000000000000000000000000000000000000000000000000000815260040161174b90612dc7565b60405180910390fd5b600061175e6116f3565b9050600081511161177e57604051806020016040528060008152506117a9565b80611788846119a8565b604051602001611799929190612ab1565b6040516020818303038152906040525b915050919050565b505050565b6117c08383611b55565b6117cd6000848484611811565b61180c576040517f08c379a000000000000000000000000000000000000000000000000000000000815260040161180390612c27565b60405180910390fd5b505050565b60006118328473ffffffffffffffffffffffffffffffffffffffff16611d23565b1561199b578373ffffffffffffffffffffffffffffffffffffffff1663150b7a0261185b61120a565b8786866040518563ffffffff1660e01b815260040161187d9493929190612b9e565b602060405180830381600087803b15801561189757600080fd5b505af19250505080156118c857506040513d601f19601f820116820180604052508101906118c59190612169565b60015b61194b573d80600081146118f8576040519150601f19603f3d011682016040523d82523d6000602084013e6118fd565b606091505b50600081511415611943576040517f08c379a000000000000000000000000000000000000000000000000000000000815260040161193a90612c27565b60405180910390fd5b805181602001fd5b63150b7a0260e01b7bffffffffffffffffffffffffffffffffffffffffffffffffffffffff1916817bffffffffffffffffffffffffffffffffffffffffffffffffffffffff1916149150506119a0565b600190505b949350505050565b606060008214156119f0576040518060400160405280600181526020017f30000000000000000000000000000000000000000000000000000000000000008152509050611b50565b600082905060005b60008214611a22578080611a0b9061313f565b915050600a82611a1b9190612f98565b91506119f8565b60008167ffffffffffffffff811115611a64577f4e487b7100000000000000000000000000000000000000000000000000000000600052604160045260246000fd5b6040519080825280601f01601f191660200182016040528015611a965781602001600182028036833780820191505090505b5090505b60008514611b4957600182611aaf9190613023565b9150600a85611abe9190613188565b6030611aca9190612f42565b60f81b818381518110611b06577f4e487b7100000000000000000000000000000000000000000000000000000000600052603260045260246000fd5b60200101907effffffffffffffffffffffffffffffffffffffffffffffffffffffffffffff1916908160001a905350600a85611b429190612f98565b9450611a9a565b8093505050505b919050565b600073ffffffffffffffffffffffffffffffffffffffff168273ffffffffffffffffffffffffffffffffffffffff161415611bc5576040517f08c379a0000000000000000000000000000000000000000000000000000000008152600401611bbc90612d47565b60405180910390fd5b611bce8161119e565b15611c0e576040517f08c379a0000000000000000000000000000000000000000000000000000000008152600401611c0590612c47565b60405180910390fd5b611c1a600083836117b1565b6001600360008473ffffffffffffffffffffffffffffffffffffffff1673ffffffffffffffffffffffffffffffffffffffff1681526020019081526020016000206000828254611c6a9190612f42565b92505081905550816002600083815260200190815260200160002060006101000a81548173ffffffffffffffffffffffffffffffffffffffff021916908373ffffffffffffffffffffffffffffffffffffffff160217905550808273ffffffffffffffffffffffffffffffffffffffff16600073ffffffffffffffffffffffffffffffffffffffff167fddf252ad1be2c89b69c2b068fc378daa952ba7f163c4a11628f55a4df523b3ef60405160405180910390a45050565b600080823b905060008111915050919050565b828054611d429061310d565b90600052602060002090601f016020900481019282611d645760008555611dab565b82601f10611d7d57805160ff1916838001178555611dab565b82800160010185558215611dab579182015b82811115611daa578251825591602001919060010190611d8f565b5b509050611db89190611dbc565b5090565b5b80821115611dd5576000816000905550600101611dbd565b5090565b6000611dec611de784612e73565b612e42565b9050808382526020820190508260005b85811015611e2c5781358501611e128882611f5a565b845260208401935060208301925050600181019050611dfc565b5050509392505050565b6000611e49611e4484612e9f565b612e42565b905082815260208101848484011115611e6157600080fd5b611e6c8482856130cb565b509392505050565b6000611e87611e8284612ecf565b612e42565b905082815260208101848484011115611e9f57600080fd5b611eaa8482856130cb565b509392505050565b600081359050611ec181613286565b92915050565b600082601f830112611ed857600080fd5b8135611ee8848260208601611dd9565b91505092915050565b600081359050611f008161329d565b92915050565b600081359050611f15816132b4565b92915050565b600081519050611f2a816132b4565b92915050565b600082601f830112611f4157600080fd5b8135611f51848260208601611e36565b91505092915050565b600082601f830112611f6b57600080fd5b8135611f7b848260208601611e74565b91505092915050565b600081359050611f93816132cb565b92915050565b600060208284031215611fab57600080fd5b6000611fb984828501611eb2565b91505092915050565b60008060408385031215611fd557600080fd5b6000611fe385828601611eb2565b9250506020611ff485828601611eb2565b9150509250929050565b60008060006060848603121561201357600080fd5b600061202186828701611eb2565b935050602061203286828701611eb2565b925050604061204386828701611f84565b9150509250925092565b6000806000806080858703121561206357600080fd5b600061207187828801611eb2565b945050602061208287828801611eb2565b935050604061209387828801611f84565b925050606085013567ffffffffffffffff8111156120b057600080fd5b6120bc87828801611f30565b91505092959194509250565b600080604083850312156120db57600080fd5b60006120e985828601611eb2565b92505060206120fa85828601611ef1565b9150509250929050565b6000806040838503121561211757600080fd5b600061212585828601611eb2565b925050602061213685828601611f84565b9150509250929050565b60006020828403121561215257600080fd5b600061216084828501611f06565b91505092915050565b60006020828403121561217b57600080fd5b600061218984828501611f1b565b91505092915050565b600080604083850312156121a557600080fd5b600083013567ffffffffffffffff8111156121bf57600080fd5b6121cb85828601611f5a565b925050602083013567ffffffffffffffff8111156121e857600080fd5b6121f485828601611ec7565b9150509250929050565b60006020828403121561221057600080fd5b600061221e84828501611f84565b91505092915050565b61223081613057565b82525050565b61223f81613069565b82525050565b600061225082612eff565b61225a8185612f15565b935061226a8185602086016130da565b61227381613275565b840191505092915050565b600061228982612f0a565b6122938185612f26565b93506122a38185602086016130da565b6122ac81613275565b840191505092915050565b60006122c282612f0a565b6122cc8185612f37565b93506122dc8185602086016130da565b80840191505092915050565b60006122f5604a83612f37565b91507f7b226e616d65223a202242616e6e6572222c226465736372697074696f6e223a60008301527f20224e46542041492047656e6572617465642042616e6e657221222c2022617460208301527f7472696275746573223a000000000000000000000000000000000000000000006040830152604a82019050919050565b6000612381603283612f26565b91507f4552433732313a207472616e7366657220746f206e6f6e20455243373231526560008301527f63656976657220696d706c656d656e74657200000000000000000000000000006020830152604082019050919050565b60006123e7601c83612f26565b91507f4552433732313a20746f6b656e20616c7265616479206d696e746564000000006000830152602082019050919050565b6000612427600183612f37565b91507f2c000000000000000000000000000000000000000000000000000000000000006000830152600182019050919050565b6000612467602483612f26565b91507f4552433732313a207472616e7366657220746f20746865207a65726f2061646460008301527f72657373000000000000000000000000000000000000000000000000000000006020830152604082019050919050565b60006124cd601983612f26565b91507f4552433732313a20617070726f766520746f2063616c6c6572000000000000006000830152602082019050919050565b600061250d602c83612f26565b91507f4552433732313a206f70657261746f7220717565727920666f72206e6f6e657860008301527f697374656e7420746f6b656e00000000000000000000000000000000000000006020830152604082019050919050565b6000612573603883612f26565b91507f4552433732313a20617070726f76652063616c6c6572206973206e6f74206f7760008301527f6e6572206e6f7220617070726f76656420666f7220616c6c00000000000000006020830152604082019050919050565b60006125d9600a83612f37565b91507f2c2022696d616765223a000000000000000000000000000000000000000000006000830152600a82019050919050565b6000612619602a83612f26565b91507f4552433732313a2062616c616e636520717565727920666f7220746865207a6560008301527f726f2061646472657373000000000000000000000000000000000000000000006020830152604082019050919050565b600061267f602983612f26565b91507f4552433732313a206f776e657220717565727920666f72206e6f6e657869737460008301527f656e7420746f6b656e00000000000000000000000000000000000000000000006020830152604082019050919050565b60006126e5602e83612f26565b91507f45524337323155524953746f726167653a2055524920736574206f66206e6f6e60008301527f6578697374656e7420746f6b656e0000000000000000000000000000000000006020830152604082019050919050565b600061274b600283612f37565b91507f227d0000000000000000000000000000000000000000000000000000000000006000830152600282019050919050565b600061278b602083612f26565b91507f4552433732313a206d696e7420746f20746865207a65726f20616464726573736000830152602082019050919050565b60006127cb603183612f26565b91507f45524337323155524953746f726167653a2055524920717565727920666f722060008301527f6e6f6e6578697374656e7420746f6b656e0000000000000000000000000000006020830152604082019050919050565b6000612831602c83612f26565b91507f4552433732313a20617070726f76656420717565727920666f72206e6f6e657860008301527f697374656e7420746f6b656e00000000000000000000000000000000000000006020830152604082019050919050565b6000612897600183612f37565b91507f5b000000000000000000000000000000000000000000000000000000000000006000830152600182019050919050565b60006128d7602983612f26565b91507f4552433732313a207472616e73666572206f6620746f6b656e2074686174206960008301527f73206e6f74206f776e00000000000000000000000000000000000000000000006020830152604082019050919050565b600061293d602f83612f26565b91507f4552433732314d657461646174613a2055524920717565727920666f72206e6f60008301527f6e6578697374656e7420746f6b656e00000000000000000000000000000000006020830152604082019050919050565b60006129a3600183612f37565b91507f5d000000000000000000000000000000000000000000000000000000000000006000830152600182019050919050565b60006129e3602183612f26565b91507f4552433732313a20617070726f76616c20746f2063757272656e74206f776e6560008301527f72000000000000000000000000000000000000000000000000000000000000006020830152604082019050919050565b6000612a49603183612f26565b91507f4552433732313a207472616e736665722063616c6c6572206973206e6f74206f60008301527f776e6572206e6f7220617070726f7665640000000000000000000000000000006020830152604082019050919050565b612aab816130c1565b82525050565b6000612abd82856122b7565b9150612ac982846122b7565b91508190509392505050565b6000612ae182856122b7565b9150612aed82846122b7565b9150612af88261241a565b91508190509392505050565b6000612b0f826122e8565b9150612b1b82856122b7565b9150612b26826125cc565b9150612b3282846122b7565b9150612b3d8261273e565b91508190509392505050565b6000612b548261288a565b9150612b6082856122b7565b9150612b6c82846122b7565b9150612b7782612996565b91508190509392505050565b6000602082019050612b986000830184612227565b92915050565b6000608082019050612bb36000830187612227565b612bc06020830186612227565b612bcd6040830185612aa2565b8181036060830152612bdf8184612245565b905095945050505050565b6000602082019050612bff6000830184612236565b92915050565b60006020820190508181036000830152612c1f818461227e565b905092915050565b60006020820190508181036000830152612c4081612374565b9050919050565b60006020820190508181036000830152612c60816123da565b9050919050565b60006020820190508181036000830152612c808161245a565b9050919050565b60006020820190508181036000830152612ca0816124c0565b9050919050565b60006020820190508181036000830152612cc081612500565b9050919050565b60006020820190508181036000830152612ce081612566565b9050919050565b60006020820190508181036000830152612d008161260c565b9050919050565b60006020820190508181036000830152612d2081612672565b9050919050565b60006020820190508181036000830152612d40816126d8565b9050919050565b60006020820190508181036000830152612d608161277e565b9050919050565b60006020820190508181036000830152612d80816127be565b9050919050565b60006020820190508181036000830152612da081612824565b9050919050565b60006020820190508181036000830152612dc0816128ca565b9050919050565b60006020820190508181036000830152612de081612930565b9050919050565b60006020820190508181036000830152612e00816129d6565b9050919050565b60006020820190508181036000830152612e2081612a3c565b9050919050565b6000602082019050612e3c6000830184612aa2565b92915050565b6000604051905081810181811067ffffffffffffffff82111715612e6957612e68613246565b5b8060405250919050565b600067ffffffffffffffff821115612e8e57612e8d613246565b5b602082029050602081019050919050565b600067ffffffffffffffff821115612eba57612eb9613246565b5b601f19601f8301169050602081019050919050565b600067ffffffffffffffff821115612eea57612ee9613246565b5b601f19601f8301169050602081019050919050565b600081519050919050565b600081519050919050565b600082825260208201905092915050565b600082825260208201905092915050565b600081905092915050565b6000612f4d826130c1565b9150612f58836130c1565b9250827fffffffffffffffffffffffffffffffffffffffffffffffffffffffffffffffff03821115612f8d57612f8c6131b9565b5b828201905092915050565b6000612fa3826130c1565b9150612fae836130c1565b925082612fbe57612fbd6131e8565b5b828204905092915050565b6000612fd4826130c1565b9150612fdf836130c1565b9250817fffffffffffffffffffffffffffffffffffffffffffffffffffffffffffffffff0483118215151615613018576130176131b9565b5b828202905092915050565b600061302e826130c1565b9150613039836130c1565b92508282101561304c5761304b6131b9565b5b828203905092915050565b6000613062826130a1565b9050919050565b60008115159050919050565b60007fffffffff0000000000000000000000000000000000000000000000000000000082169050919050565b600073ffffffffffffffffffffffffffffffffffffffff82169050919050565b6000819050919050565b82818337600083830152505050565b60005b838110156130f85780820151818401526020810190506130dd565b83811115613107576000848401525b50505050565b6000600282049050600182168061312557607f821691505b6020821081141561313957613138613217565b5b50919050565b600061314a826130c1565b91507fffffffffffffffffffffffffffffffffffffffffffffffffffffffffffffffff82141561317d5761317c6131b9565b5b600182019050919050565b6000613193826130c1565b915061319e836130c1565b9250826131ae576131ad6131e8565b5b828206905092915050565b7f4e487b7100000000000000000000000000000000000000000000000000000000600052601160045260246000fd5b7f4e487b7100000000000000000000000000000000000000000000000000000000600052601260045260246000fd5b7f4e487b7100000000000000000000000000000000000000000000000000000000600052602260045260246000fd5b7f4e487b7100000000000000000000000000000000000000000000000000000000600052604160045260246000fd5b6000601f19601f8301169050919050565b61328f81613057565b811461329a57600080fd5b50565b6132a681613069565b81146132b157600080fd5b50565b6132bd81613075565b81146132c857600080fd5b50565b6132d4816130c1565b81146132df57600080fd5b5056fe4142434445464748494a4b4c4d4e4f505152535455565758595a6162636465666768696a6b6c6d6e6f707172737475767778797a303132333435363738392b2fa264697066735822122003b62493907e195d00e4ce4682787a6bc79246ec87cf6c52dd2d39e9b1a4f0c564736f6c63430008000033",
  "devdoc": {
    "kind": "dev",
    "methods": {
      "approve(address,uint256)": {
        "details": "See {IERC721-approve}."
      },
      "balanceOf(address)": {
        "details": "See {IERC721-balanceOf}."
      },
      "getApproved(uint256)": {
        "details": "See {IERC721-getApproved}."
      },
      "isApprovedForAll(address,address)": {
        "details": "See {IERC721-isApprovedForAll}."
      },
      "name()": {
        "details": "See {IERC721Metadata-name}."
      },
      "ownerOf(uint256)": {
        "details": "See {IERC721-ownerOf}."
      },
      "safeTransferFrom(address,address,uint256)": {
        "details": "See {IERC721-safeTransferFrom}."
      },
      "safeTransferFrom(address,address,uint256,bytes)": {
        "details": "See {IERC721-safeTransferFrom}."
      },
      "setApprovalForAll(address,bool)": {
        "details": "See {IERC721-setApprovalForAll}."
      },
      "supportsInterface(bytes4)": {
        "details": "See {IERC165-supportsInterface}."
      },
      "symbol()": {
        "details": "See {IERC721Metadata-symbol}."
      },
      "tokenURI(uint256)": {
        "details": "See {IERC721Metadata-tokenURI}."
      },
      "transferFrom(address,address,uint256)": {
        "details": "See {IERC721-transferFrom}."
      }
    },
    "version": 1
  },
  "userdoc": {
    "kind": "user",
    "methods": {},
    "version": 1
  },
  "storageLayout": {
    "storage": [
      {
        "astId": 25,
        "contract": "contracts/AIBanner.sol:AIBanner",
        "label": "_name",
        "offset": 0,
        "slot": "0",
        "type": "t_string_storage"
      },
      {
        "astId": 27,
        "contract": "contracts/AIBanner.sol:AIBanner",
        "label": "_symbol",
        "offset": 0,
        "slot": "1",
        "type": "t_string_storage"
      },
      {
        "astId": 31,
        "contract": "contracts/AIBanner.sol:AIBanner",
        "label": "_owners",
        "offset": 0,
        "slot": "2",
        "type": "t_mapping(t_uint256,t_address)"
      },
      {
        "astId": 35,
        "contract": "contracts/AIBanner.sol:AIBanner",
        "label": "_balances",
        "offset": 0,
        "slot": "3",
        "type": "t_mapping(t_address,t_uint256)"
      },
      {
        "astId": 39,
        "contract": "contracts/AIBanner.sol:AIBanner",
        "label": "_tokenApprovals",
        "offset": 0,
        "slot": "4",
        "type": "t_mapping(t_uint256,t_address)"
      },
      {
        "astId": 45,
        "contract": "contracts/AIBanner.sol:AIBanner",
        "label": "_operatorApprovals",
        "offset": 0,
        "slot": "5",
        "type": "t_mapping(t_address,t_mapping(t_address,t_bool))"
      },
      {
        "astId": 962,
        "contract": "contracts/AIBanner.sol:AIBanner",
        "label": "_tokenURIs",
        "offset": 0,
        "slot": "6",
        "type": "t_mapping(t_uint256,t_string_storage)"
      },
      {
        "astId": 1720,
        "contract": "contracts/AIBanner.sol:AIBanner",
        "label": "tokenCounter",
        "offset": 0,
        "slot": "7",
        "type": "t_uint256"
      }
    ],
    "types": {
      "t_address": {
        "encoding": "inplace",
        "label": "address",
        "numberOfBytes": "20"
      },
      "t_bool": {
        "encoding": "inplace",
        "label": "bool",
        "numberOfBytes": "1"
      },
      "t_mapping(t_address,t_bool)": {
        "encoding": "mapping",
        "key": "t_address",
        "label": "mapping(address => bool)",
        "numberOfBytes": "32",
        "value": "t_bool"
      },
      "t_mapping(t_address,t_mapping(t_address,t_bool))": {
        "encoding": "mapping",
        "key": "t_address",
        "label": "mapping(address => mapping(address => bool))",
        "numberOfBytes": "32",
        "value": "t_mapping(t_address,t_bool)"
      },
      "t_mapping(t_address,t_uint256)": {
        "encoding": "mapping",
        "key": "t_address",
        "label": "mapping(address => uint256)",
        "numberOfBytes": "32",
        "value": "t_uint256"
      },
      "t_mapping(t_uint256,t_address)": {
        "encoding": "mapping",
        "key": "t_uint256",
        "label": "mapping(uint256 => address)",
        "numberOfBytes": "32",
        "value": "t_address"
      },
      "t_mapping(t_uint256,t_string_storage)": {
        "encoding": "mapping",
        "key": "t_uint256",
        "label": "mapping(uint256 => string)",
        "numberOfBytes": "32",
        "value": "t_string_storage"
      },
      "t_string_storage": {
        "encoding": "bytes",
        "label": "string",
        "numberOfBytes": "32"
      },
      "t_uint256": {
        "encoding": "inplace",
        "label": "uint256",
        "numberOfBytes": "32"
      }
    }
  }
}