{
  "address": "0x853AB3E75704411021670fF132A8028B0087CC20",
  "abi": [
    {
      "inputs": [],
      "stateMutability": "nonpayable",
      "type": "constructor"
    },
    {
      "anonymous": false,
      "inputs": [
        {
          "indexed": true,
          "internalType": "address",
          "name": "owner",
          "type": "address"
        },
        {
          "indexed": true,
          "internalType": "address",
          "name": "approved",
          "type": "address"
        },
        {
          "indexed": true,
          "internalType": "uint256",
          "name": "tokenId",
          "type": "uint256"
        }
      ],
      "name": "Approval",
      "type": "event"
    },
    {
      "anonymous": false,
      "inputs": [
        {
          "indexed": true,
          "internalType": "address",
          "name": "owner",
          "type": "address"
        },
        {
          "indexed": true,
          "internalType": "address",
          "name": "operator",
          "type": "address"
        },
        {
          "indexed": false,
          "internalType": "bool",
          "name": "approved",
          "type": "bool"
        }
      ],
      "name": "ApprovalForAll",
      "type": "event"
    },
    {
      "anonymous": false,
      "inputs": [
        {
          "indexed": true,
          "internalType": "uint256",
          "name": "tokenId",
          "type": "uint256"
        },
        {
          "indexed": false,
          "internalType": "string",
          "name": "tokenURI",
          "type": "string"
        }
      ],
      "name": "CreatedSVGNFT",
      "type": "event"
    },
    {
      "anonymous": false,
      "inputs": [
        {
          "indexed": true,
          "internalType": "address",
          "name": "from",
          "type": "address"
        },
        {
          "indexed": true,
          "internalType": "address",
          "name": "to",
          "type": "address"
        },
        {
          "indexed": true,
          "internalType": "uint256",
          "name": "tokenId",
          "type": "uint256"
        }
      ],
      "name": "Transfer",
      "type": "event"
    },
    {
      "inputs": [
        {
          "internalType": "address",
          "name": "to",
          "type": "address"
        },
        {
          "internalType": "uint256",
          "name": "tokenId",
          "type": "uint256"
        }
      ],
      "name": "approve",
      "outputs": [],
      "stateMutability": "nonpayable",
      "type": "function"
    },
    {
      "inputs": [
        {
          "internalType": "address",
          "name": "owner",
          "type": "address"
        }
      ],
      "name": "balanceOf",
      "outputs": [
        {
          "internalType": "uint256",
          "name": "",
          "type": "uint256"
        }
      ],
      "stateMutability": "view",
      "type": "function"
    },
    {
      "inputs": [
        {
          "internalType": "bytes",
          "name": "imgBytes",
          "type": "bytes"
        }
      ],
      "name": "create",
      "outputs": [],
      "stateMutability": "nonpayable",
      "type": "function"
    },
    {
      "inputs": [
        {
          "internalType": "string",
          "name": "png",
          "type": "string"
        }
      ],
      "name": "createFromPNG",
      "outputs": [],
      "stateMutability": "nonpayable",
      "type": "function"
    },
    {
      "inputs": [
        {
          "internalType": "string",
          "name": "svg",
          "type": "string"
        }
      ],
      "name": "createFromSVG",
      "outputs": [],
      "stateMutability": "nonpayable",
      "type": "function"
    },
    {
      "inputs": [
        {
          "internalType": "string",
          "name": "imageURI",
          "type": "string"
        }
      ],
      "name": "formatTokenURI",
      "outputs": [
        {
          "internalType": "string",
          "name": "",
          "type": "string"
        }
      ],
      "stateMutability": "pure",
      "type": "function"
    },
    {
      "inputs": [
        {
          "internalType": "uint256",
          "name": "tokenId",
          "type": "uint256"
        }
      ],
      "name": "getApproved",
      "outputs": [
        {
          "internalType": "address",
          "name": "",
          "type": "address"
        }
      ],
      "stateMutability": "view",
      "type": "function"
    },
    {
      "inputs": [
        {
          "internalType": "address",
          "name": "owner",
          "type": "address"
        },
        {
          "internalType": "address",
          "name": "operator",
          "type": "address"
        }
      ],
      "name": "isApprovedForAll",
      "outputs": [
        {
          "internalType": "bool",
          "name": "",
          "type": "bool"
        }
      ],
      "stateMutability": "view",
      "type": "function"
    },
    {
      "inputs": [],
      "name": "name",
      "outputs": [
        {
          "internalType": "string",
          "name": "",
          "type": "string"
        }
      ],
      "stateMutability": "view",
      "type": "function"
    },
    {
      "inputs": [],
      "name": "owner",
      "outputs": [
        {
          "internalType": "address",
          "name": "",
          "type": "address"
        }
      ],
      "stateMutability": "view",
      "type": "function"
    },
    {
      "inputs": [
        {
          "internalType": "uint256",
          "name": "tokenId",
          "type": "uint256"
        }
      ],
      "name": "ownerOf",
      "outputs": [
        {
          "internalType": "address",
          "name": "",
          "type": "address"
        }
      ],
      "stateMutability": "view",
      "type": "function"
    },
    {
      "inputs": [
        {
          "internalType": "string",
          "name": "png",
          "type": "string"
        }
      ],
      "name": "pngToImageURI",
      "outputs": [
        {
          "internalType": "string",
          "name": "",
          "type": "string"
        }
      ],
      "stateMutability": "pure",
      "type": "function"
    },
    {
      "inputs": [
        {
          "internalType": "address",
          "name": "from",
          "type": "address"
        },
        {
          "internalType": "address",
          "name": "to",
          "type": "address"
        },
        {
          "internalType": "uint256",
          "name": "tokenId",
          "type": "uint256"
        }
      ],
      "name": "safeTransferFrom",
      "outputs": [],
      "stateMutability": "nonpayable",
      "type": "function"
    },
    {
      "inputs": [
        {
          "internalType": "address",
          "name": "from",
          "type": "address"
        },
        {
          "internalType": "address",
          "name": "to",
          "type": "address"
        },
        {
          "internalType": "uint256",
          "name": "tokenId",
          "type": "uint256"
        },
        {
          "internalType": "bytes",
          "name": "_data",
          "type": "bytes"
        }
      ],
      "name": "safeTransferFrom",
      "outputs": [],
      "stateMutability": "nonpayable",
      "type": "function"
    },
    {
      "inputs": [
        {
          "internalType": "address",
          "name": "operator",
          "type": "address"
        },
        {
          "internalType": "bool",
          "name": "approved",
          "type": "bool"
        }
      ],
      "name": "setApprovalForAll",
      "outputs": [],
      "stateMutability": "nonpayable",
      "type": "function"
    },
    {
      "inputs": [
        {
          "internalType": "bytes4",
          "name": "interfaceId",
          "type": "bytes4"
        }
      ],
      "name": "supportsInterface",
      "outputs": [
        {
          "internalType": "bool",
          "name": "",
          "type": "bool"
        }
      ],
      "stateMutability": "view",
      "type": "function"
    },
    {
      "inputs": [
        {
          "internalType": "string",
          "name": "svg",
          "type": "string"
        }
      ],
      "name": "svgToImageURI",
      "outputs": [
        {
          "internalType": "string",
          "name": "",
          "type": "string"
        }
      ],
      "stateMutability": "pure",
      "type": "function"
    },
    {
      "inputs": [],
      "name": "symbol",
      "outputs": [
        {
          "internalType": "string",
          "name": "",
          "type": "string"
        }
      ],
      "stateMutability": "view",
      "type": "function"
    },
    {
      "inputs": [
        {
          "internalType": "bytes",
          "name": "imgBytes",
          "type": "bytes"
        }
      ],
      "name": "toImageURI",
      "outputs": [
        {
          "internalType": "string",
          "name": "",
          "type": "string"
        }
      ],
      "stateMutability": "pure",
      "type": "function"
    },
    {
      "inputs": [],
      "name": "tokenCounter",
      "outputs": [
        {
          "internalType": "uint256",
          "name": "",
          "type": "uint256"
        }
      ],
      "stateMutability": "view",
      "type": "function"
    },
    {
      "inputs": [
        {
          "internalType": "uint256",
          "name": "tokenId",
          "type": "uint256"
        }
      ],
      "name": "tokenURI",
      "outputs": [
        {
          "internalType": "string",
          "name": "",
          "type": "string"
        }
      ],
      "stateMutability": "view",
      "type": "function"
    },
    {
      "inputs": [
        {
          "internalType": "address",
          "name": "from",
          "type": "address"
        },
        {
          "internalType": "address",
          "name": "to",
          "type": "address"
        },
        {
          "internalType": "uint256",
          "name": "tokenId",
          "type": "uint256"
        }
      ],
      "name": "transferFrom",
      "outputs": [],
      "stateMutability": "nonpayable",
      "type": "function"
    }
  ],
  "transactionHash": "0x241a036dac95ec08709d00ed66a68a9f4484705814929c65b444406dcd87f558",
  "args": [],
  "solcInputHash": "fb92a731614757b0a61df4ea52eca9f1",
  "bytecode": "0x60806040523480156200001157600080fd5b506040518060400160405280601181526020017f4661742048656164206f6e20636861696e0000000000000000000000000000008152506040518060400160405280600e81526020017f466174486561644f6e436861696e00000000000000000000000000000000000081525081600090805190602001906200009692919062000101565b508060019080519060200190620000af92919062000101565b505050600060078190555033600860006101000a81548173ffffffffffffffffffffffffffffffffffffffff021916908373ffffffffffffffffffffffffffffffffffffffff16021790555062000216565b8280546200010f90620001b1565b90600052602060002090601f0160209004810192826200013357600085556200017f565b82601f106200014e57805160ff19168380011785556200017f565b828001600101855582156200017f579182015b828111156200017e57825182559160200191906001019062000161565b5b5090506200018e919062000192565b5090565b5b80821115620001ad57600081600090555060010162000193565b5090565b60006002820490506001821680620001ca57607f821691505b60208210811415620001e157620001e0620001e7565b5b50919050565b7f4e487b7100000000000000000000000000000000000000000000000000000000600052602260045260246000fd5b61339480620002266000396000f3fe608060405234801561001057600080fd5b50600436106101425760003560e01c806371aee193116100b8578063b88d4fde1161007c578063b88d4fde146103ad578063c87b56dd146103c9578063cf5ba53f146103f9578063d082e38114610415578063e220d43f14610433578063e985e9c51461044f57610142565b806371aee193146103095780637c1b339e146103395780638da5cb5b1461035557806395d89b4114610373578063a22cb4651461039157610142565b806323b872dd1161010a57806323b872dd1461021157806330d871c61461022d5780633dd4853d1461025d57806342842e0e1461028d5780636352211e146102a957806370a08231146102d957610142565b806301ffc9a71461014757806306fdde0314610177578063081812fc14610195578063095ea7b3146101c55780632379f127146101e1575b600080fd5b610161600480360381019061015c91906122fc565b61047f565b60405161016e9190612c52565b60405180910390f35b61017f610561565b60405161018c9190612c6d565b60405180910390f35b6101af60048036038101906101aa91906123d0565b6105f3565b6040516101bc9190612beb565b60405180910390f35b6101df60048036038101906101da91906122c0565b610678565b005b6101fb60048036038101906101f6919061234e565b610790565b6040516102089190612c6d565b60405180910390f35b61022b600480360381019061022691906121ba565b61080a565b005b6102476004803603810190610242919061238f565b61086a565b6040516102549190612c6d565b60405180910390f35b6102776004803603810190610272919061238f565b610903565b6040516102849190612c6d565b60405180910390f35b6102a760048036038101906102a291906121ba565b61099c565b005b6102c360048036038101906102be91906123d0565b6109bc565b6040516102d09190612beb565b60405180910390f35b6102f360048036038101906102ee9190612155565b610a6e565b6040516103009190612e8f565b60405180910390f35b610323600480360381019061031e919061238f565b610b26565b6040516103309190612c6d565b60405180910390f35b610353600480360381019061034e919061238f565b610bb3565b005b61035d610c39565b60405161036a9190612beb565b60405180910390f35b61037b610c5f565b6040516103889190612c6d565b60405180910390f35b6103ab60048036038101906103a69190612284565b610cf1565b005b6103c760048036038101906103c29190612209565b610e72565b005b6103e360048036038101906103de91906123d0565b610ed4565b6040516103f09190612c6d565b60405180910390f35b610413600480360381019061040e919061234e565b611026565b005b61041d6110ac565b60405161042a9190612e8f565b60405180910390f35b61044d6004803603810190610448919061238f565b6110b2565b005b6104696004803603810190610464919061217e565b611138565b6040516104769190612c52565b60405180910390f35b60007f80ac58cd000000000000000000000000000000000000000000000000000000007bffffffffffffffffffffffffffffffffffffffffffffffffffffffff1916827bffffffffffffffffffffffffffffffffffffffffffffffffffffffff1916148061054a57507f5b5e139f000000000000000000000000000000000000000000000000000000007bffffffffffffffffffffffffffffffffffffffffffffffffffffffff1916827bffffffffffffffffffffffffffffffffffffffffffffffffffffffff1916145b8061055a5750610559826111cc565b5b9050919050565b60606000805461057090613149565b80601f016020809104026020016040519081016040528092919081815260200182805461059c90613149565b80156105e95780601f106105be576101008083540402835291602001916105e9565b820191906000526020600020905b8154815290600101906020018083116105cc57829003601f168201915b5050505050905090565b60006105fe82611236565b61063d576040517f08c379a000000000000000000000000000000000000000000000000000000000815260040161063490612def565b60405180910390fd5b6004600083815260200190815260200160002060009054906101000a900473ffffffffffffffffffffffffffffffffffffffff169050919050565b6000610683826109bc565b90508073ffffffffffffffffffffffffffffffffffffffff168373ffffffffffffffffffffffffffffffffffffffff1614156106f4576040517f08c379a00000000000000000000000000000000000000000000000000000000081526004016106eb90612e4f565b60405180910390fd5b8073ffffffffffffffffffffffffffffffffffffffff166107136112a2565b73ffffffffffffffffffffffffffffffffffffffff16148061074257506107418161073c6112a2565b611138565b5b610781576040517f08c379a000000000000000000000000000000000000000000000000000000000815260040161077890612d2f565b60405180910390fd5b61078b83836112aa565b505050565b606060006040518060400160405280601a81526020017f646174613a696d6167652f706e672b786d6c3b6261736536342c000000000000815250905060006107d784611363565b9050600082826040516020016107ee929190612b9a565b6040516020818303038152906040529050809350505050919050565b61081b6108156112a2565b8261150e565b61085a576040517f08c379a000000000000000000000000000000000000000000000000000000000815260040161085190612e6f565b60405180910390fd5b6108658383836115ec565b505050565b606060006040518060400160405280601a81526020017f646174613a696d6167652f7376672b786d6c3b6261736536342c000000000000815250905060006108d0846040516020016108bc9190612b83565b604051602081830303815290604052611363565b9050600082826040516020016108e7929190612b9a565b6040516020818303038152906040529050809350505050919050565b606060006040518060400160405280601a81526020017f646174613a696d6167652f706e672b786d6c3b6261736536342c00000000000081525090506000610969846040516020016109559190612b83565b604051602081830303815290604052611363565b905060008282604051602001610980929190612b9a565b6040516020818303038152906040529050809350505050919050565b6109b783838360405180602001604052806000815250610e72565b505050565b6000806002600084815260200190815260200160002060009054906101000a900473ffffffffffffffffffffffffffffffffffffffff169050600073ffffffffffffffffffffffffffffffffffffffff168173ffffffffffffffffffffffffffffffffffffffff161415610a65576040517f08c379a0000000000000000000000000000000000000000000000000000000008152600401610a5c90612d6f565b60405180910390fd5b80915050919050565b60008073ffffffffffffffffffffffffffffffffffffffff168273ffffffffffffffffffffffffffffffffffffffff161415610adf576040517f08c379a0000000000000000000000000000000000000000000000000000000008152600401610ad690612d4f565b60405180910390fd5b600360008373ffffffffffffffffffffffffffffffffffffffff1673ffffffffffffffffffffffffffffffffffffffff168152602001908152602001600020549050919050565b606060006040518060400160405280601d81526020017f646174613a6170706c69636174696f6e2f6a736f6e3b6261736536342c000000815250905080610b8b84604051602001610b779190612bbe565b604051602081830303815290604052611363565b604051602001610b9c929190612b9a565b604051602081830303815290604052915050919050565b610bbf33600754611848565b6000610bca8261086a565b90506000610bd782610b26565b9050610be560075482611866565b6007547ff5acc616aa8ecd00e5d76674d7812f9c3c3571d662c9fba4499deefa6d0be12d82604051610c179190612c6d565b60405180910390a26001600754610c2e9190612f7e565b600781905550505050565b600860009054906101000a900473ffffffffffffffffffffffffffffffffffffffff1681565b606060018054610c6e90613149565b80601f0160208091040260200160405190810160405280929190818152602001828054610c9a90613149565b8015610ce75780601f10610cbc57610100808354040283529160200191610ce7565b820191906000526020600020905b815481529060010190602001808311610cca57829003601f168201915b5050505050905090565b610cf96112a2565b73ffffffffffffffffffffffffffffffffffffffff168273ffffffffffffffffffffffffffffffffffffffff161415610d67576040517f08c379a0000000000000000000000000000000000000000000000000000000008152600401610d5e90612cef565b60405180910390fd5b8060056000610d746112a2565b73ffffffffffffffffffffffffffffffffffffffff1673ffffffffffffffffffffffffffffffffffffffff16815260200190815260200160002060008473ffffffffffffffffffffffffffffffffffffffff1673ffffffffffffffffffffffffffffffffffffffff16815260200190815260200160002060006101000a81548160ff0219169083151502179055508173ffffffffffffffffffffffffffffffffffffffff16610e216112a2565b73ffffffffffffffffffffffffffffffffffffffff167f17307eab39ab6107e8899845ad3d59bd9653f200f220920489ca2b5937696c3183604051610e669190612c52565b60405180910390a35050565b610e83610e7d6112a2565b8361150e565b610ec2576040517f08c379a0000000000000000000000000000000000000000000000000000000008152600401610eb990612e6f565b60405180910390fd5b610ece848484846118da565b50505050565b6060610edf82611236565b610f1e576040517f08c379a0000000000000000000000000000000000000000000000000000000008152600401610f1590612dcf565b60405180910390fd5b6000600660008481526020019081526020016000208054610f3e90613149565b80601f0160208091040260200160405190810160405280929190818152602001828054610f6a90613149565b8015610fb75780601f10610f8c57610100808354040283529160200191610fb7565b820191906000526020600020905b815481529060010190602001808311610f9a57829003601f168201915b505050505090506000610fc8611936565b9050600081511415610fde578192505050611021565b600082511115611013578082604051602001610ffb929190612b9a565b60405160208183030381529060405292505050611021565b61101c8461194d565b925050505b919050565b61103233600754611848565b600061103d82610790565b9050600061104a82610b26565b905061105860075482611866565b6007547ff5acc616aa8ecd00e5d76674d7812f9c3c3571d662c9fba4499deefa6d0be12d8260405161108a9190612c6d565b60405180910390a260016007546110a19190612f7e565b600781905550505050565b60075481565b6110be33600754611848565b60006110c982610903565b905060006110d682610b26565b90506110e460075482611866565b6007547ff5acc616aa8ecd00e5d76674d7812f9c3c3571d662c9fba4499deefa6d0be12d826040516111169190612c6d565b60405180910390a2600160075461112d9190612f7e565b600781905550505050565b6000600560008473ffffffffffffffffffffffffffffffffffffffff1673ffffffffffffffffffffffffffffffffffffffff16815260200190815260200160002060008373ffffffffffffffffffffffffffffffffffffffff1673ffffffffffffffffffffffffffffffffffffffff16815260200190815260200160002060009054906101000a900460ff16905092915050565b60007f01ffc9a7000000000000000000000000000000000000000000000000000000007bffffffffffffffffffffffffffffffffffffffffffffffffffffffff1916827bffffffffffffffffffffffffffffffffffffffffffffffffffffffff1916149050919050565b60008073ffffffffffffffffffffffffffffffffffffffff166002600084815260200190815260200160002060009054906101000a900473ffffffffffffffffffffffffffffffffffffffff1673ffffffffffffffffffffffffffffffffffffffff1614159050919050565b600033905090565b816004600083815260200190815260200160002060006101000a81548173ffffffffffffffffffffffffffffffffffffffff021916908373ffffffffffffffffffffffffffffffffffffffff160217905550808273ffffffffffffffffffffffffffffffffffffffff1661131d836109bc565b73ffffffffffffffffffffffffffffffffffffffff167f8c5be1e5ebec7d5bd14f71427d1e84f3dd0314c0f7b2291e5b200ac8c7c3b92560405160405180910390a45050565b606060008251141561138657604051806020016040528060008152509050611509565b600060405180606001604052806040815260200161331f60409139905060006003600285516113b59190612f7e565b6113bf9190612fd4565b60046113cb9190613005565b905060006020826113dc9190612f7e565b67ffffffffffffffff81111561141b577f4e487b7100000000000000000000000000000000000000000000000000000000600052604160045260246000fd5b6040519080825280601f01601f19166020018201604052801561144d5781602001600182028036833780820191505090505b509050818152600183018586518101602084015b818310156114c8576003830192508251603f8160121c1685015160f81b8252600182019150603f81600c1c1685015160f81b8252600182019150603f8160061c1685015160f81b8252600182019150603f811685015160f81b825260018201915050611461565b6003895106600181146114e257600281146114f2576114fd565b613d3d60f01b60028303526114fd565b603d60f81b60018303525b50505050508093505050505b919050565b600061151982611236565b611558576040517f08c379a000000000000000000000000000000000000000000000000000000000815260040161154f90612d0f565b60405180910390fd5b6000611563836109bc565b90508073ffffffffffffffffffffffffffffffffffffffff168473ffffffffffffffffffffffffffffffffffffffff1614806115d257508373ffffffffffffffffffffffffffffffffffffffff166115ba846105f3565b73ffffffffffffffffffffffffffffffffffffffff16145b806115e357506115e28185611138565b5b91505092915050565b8273ffffffffffffffffffffffffffffffffffffffff1661160c826109bc565b73ffffffffffffffffffffffffffffffffffffffff1614611662576040517f08c379a000000000000000000000000000000000000000000000000000000000815260040161165990612e0f565b60405180910390fd5b600073ffffffffffffffffffffffffffffffffffffffff168273ffffffffffffffffffffffffffffffffffffffff1614156116d2576040517f08c379a00000000000000000000000000000000000000000000000000000000081526004016116c990612ccf565b60405180910390fd5b6116dd8383836119f4565b6116e86000826112aa565b6001600360008573ffffffffffffffffffffffffffffffffffffffff1673ffffffffffffffffffffffffffffffffffffffff1681526020019081526020016000206000828254611738919061305f565b925050819055506001600360008473ffffffffffffffffffffffffffffffffffffffff1673ffffffffffffffffffffffffffffffffffffffff168152602001908152602001600020600082825461178f9190612f7e565b92505081905550816002600083815260200190815260200160002060006101000a81548173ffffffffffffffffffffffffffffffffffffffff021916908373ffffffffffffffffffffffffffffffffffffffff160217905550808273ffffffffffffffffffffffffffffffffffffffff168473ffffffffffffffffffffffffffffffffffffffff167fddf252ad1be2c89b69c2b068fc378daa952ba7f163c4a11628f55a4df523b3ef60405160405180910390a4505050565b6118628282604051806020016040528060008152506119f9565b5050565b61186f82611236565b6118ae576040517f08c379a00000000000000000000000000000000000000000000000000000000081526004016118a590612d8f565b60405180910390fd5b806006600084815260200190815260200160002090805190602001906118d5929190611f79565b505050565b6118e58484846115ec565b6118f184848484611a54565b611930576040517f08c379a000000000000000000000000000000000000000000000000000000000815260040161192790612c8f565b60405180910390fd5b50505050565b606060405180602001604052806000815250905090565b606061195882611236565b611997576040517f08c379a000000000000000000000000000000000000000000000000000000000815260040161198e90612e2f565b60405180910390fd5b60006119a1611936565b905060008151116119c157604051806020016040528060008152506119ec565b806119cb84611beb565b6040516020016119dc929190612b9a565b6040516020818303038152906040525b915050919050565b505050565b611a038383611d98565b611a106000848484611a54565b611a4f576040517f08c379a0000000000000000000000000000000000000000000000000000000008152600401611a4690612c8f565b60405180910390fd5b505050565b6000611a758473ffffffffffffffffffffffffffffffffffffffff16611f66565b15611bde578373ffffffffffffffffffffffffffffffffffffffff1663150b7a02611a9e6112a2565b8786866040518563ffffffff1660e01b8152600401611ac09493929190612c06565b602060405180830381600087803b158015611ada57600080fd5b505af1925050508015611b0b57506040513d601f19601f82011682018060405250810190611b089190612325565b60015b611b8e573d8060008114611b3b576040519150601f19603f3d011682016040523d82523d6000602084013e611b40565b606091505b50600081511415611b86576040517f08c379a0000000000000000000000000000000000000000000000000000000008152600401611b7d90612c8f565b60405180910390fd5b805181602001fd5b63150b7a0260e01b7bffffffffffffffffffffffffffffffffffffffffffffffffffffffff1916817bffffffffffffffffffffffffffffffffffffffffffffffffffffffff191614915050611be3565b600190505b949350505050565b60606000821415611c33576040518060400160405280600181526020017f30000000000000000000000000000000000000000000000000000000000000008152509050611d93565b600082905060005b60008214611c65578080611c4e9061317b565b915050600a82611c5e9190612fd4565b9150611c3b565b60008167ffffffffffffffff811115611ca7577f4e487b7100000000000000000000000000000000000000000000000000000000600052604160045260246000fd5b6040519080825280601f01601f191660200182016040528015611cd95781602001600182028036833780820191505090505b5090505b60008514611d8c57600182611cf2919061305f565b9150600a85611d0191906131c4565b6030611d0d9190612f7e565b60f81b818381518110611d49577f4e487b7100000000000000000000000000000000000000000000000000000000600052603260045260246000fd5b60200101907effffffffffffffffffffffffffffffffffffffffffffffffffffffffffffff1916908160001a905350600a85611d859190612fd4565b9450611cdd565b8093505050505b919050565b600073ffffffffffffffffffffffffffffffffffffffff168273ffffffffffffffffffffffffffffffffffffffff161415611e08576040517f08c379a0000000000000000000000000000000000000000000000000000000008152600401611dff90612daf565b60405180910390fd5b611e1181611236565b15611e51576040517f08c379a0000000000000000000000000000000000000000000000000000000008152600401611e4890612caf565b60405180910390fd5b611e5d600083836119f4565b6001600360008473ffffffffffffffffffffffffffffffffffffffff1673ffffffffffffffffffffffffffffffffffffffff1681526020019081526020016000206000828254611ead9190612f7e565b92505081905550816002600083815260200190815260200160002060006101000a81548173ffffffffffffffffffffffffffffffffffffffff021916908373ffffffffffffffffffffffffffffffffffffffff160217905550808273ffffffffffffffffffffffffffffffffffffffff16600073ffffffffffffffffffffffffffffffffffffffff167fddf252ad1be2c89b69c2b068fc378daa952ba7f163c4a11628f55a4df523b3ef60405160405180910390a45050565b600080823b905060008111915050919050565b828054611f8590613149565b90600052602060002090601f016020900481019282611fa75760008555611fee565b82601f10611fc057805160ff1916838001178555611fee565b82800160010185558215611fee579182015b82811115611fed578251825591602001919060010190611fd2565b5b509050611ffb9190611fff565b5090565b5b80821115612018576000816000905550600101612000565b5090565b600061202f61202a84612edb565b612eaa565b90508281526020810184848401111561204757600080fd5b612052848285613107565b509392505050565b600061206d61206884612f0b565b612eaa565b90508281526020810184848401111561208557600080fd5b612090848285613107565b509392505050565b6000813590506120a7816132c2565b92915050565b6000813590506120bc816132d9565b92915050565b6000813590506120d1816132f0565b92915050565b6000815190506120e6816132f0565b92915050565b600082601f8301126120fd57600080fd5b813561210d84826020860161201c565b91505092915050565b600082601f83011261212757600080fd5b813561213784826020860161205a565b91505092915050565b60008135905061214f81613307565b92915050565b60006020828403121561216757600080fd5b600061217584828501612098565b91505092915050565b6000806040838503121561219157600080fd5b600061219f85828601612098565b92505060206121b085828601612098565b9150509250929050565b6000806000606084860312156121cf57600080fd5b60006121dd86828701612098565b93505060206121ee86828701612098565b92505060406121ff86828701612140565b9150509250925092565b6000806000806080858703121561221f57600080fd5b600061222d87828801612098565b945050602061223e87828801612098565b935050604061224f87828801612140565b925050606085013567ffffffffffffffff81111561226c57600080fd5b612278878288016120ec565b91505092959194509250565b6000806040838503121561229757600080fd5b60006122a585828601612098565b92505060206122b6858286016120ad565b9150509250929050565b600080604083850312156122d357600080fd5b60006122e185828601612098565b92505060206122f285828601612140565b9150509250929050565b60006020828403121561230e57600080fd5b600061231c848285016120c2565b91505092915050565b60006020828403121561233757600080fd5b6000612345848285016120d7565b91505092915050565b60006020828403121561236057600080fd5b600082013567ffffffffffffffff81111561237a57600080fd5b612386848285016120ec565b91505092915050565b6000602082840312156123a157600080fd5b600082013567ffffffffffffffff8111156123bb57600080fd5b6123c784828501612116565b91505092915050565b6000602082840312156123e257600080fd5b60006123f084828501612140565b91505092915050565b61240281613093565b82525050565b612411816130a5565b82525050565b600061242282612f3b565b61242c8185612f51565b935061243c818560208601613116565b612445816132b1565b840191505092915050565b600061245b82612f46565b6124658185612f62565b9350612475818560208601613116565b61247e816132b1565b840191505092915050565b600061249482612f46565b61249e8185612f73565b93506124ae818560208601613116565b80840191505092915050565b60006124c7603283612f62565b91507f4552433732313a207472616e7366657220746f206e6f6e20455243373231526560008301527f63656976657220696d706c656d656e74657200000000000000000000000000006020830152604082019050919050565b600061252d601c83612f62565b91507f4552433732313a20746f6b656e20616c7265616479206d696e746564000000006000830152602082019050919050565b600061256d602483612f62565b91507f4552433732313a207472616e7366657220746f20746865207a65726f2061646460008301527f72657373000000000000000000000000000000000000000000000000000000006020830152604082019050919050565b60006125d3601983612f62565b91507f4552433732313a20617070726f766520746f2063616c6c6572000000000000006000830152602082019050919050565b6000612613602c83612f62565b91507f4552433732313a206f70657261746f7220717565727920666f72206e6f6e657860008301527f697374656e7420746f6b656e00000000000000000000000000000000000000006020830152604082019050919050565b6000612679603883612f62565b91507f4552433732313a20617070726f76652063616c6c6572206973206e6f74206f7760008301527f6e6572206e6f7220617070726f76656420666f7220616c6c00000000000000006020830152604082019050919050565b60006126df602a83612f62565b91507f4552433732313a2062616c616e636520717565727920666f7220746865207a6560008301527f726f2061646472657373000000000000000000000000000000000000000000006020830152604082019050919050565b6000612745602983612f62565b91507f4552433732313a206f776e657220717565727920666f72206e6f6e657869737460008301527f656e7420746f6b656e00000000000000000000000000000000000000000000006020830152604082019050919050565b60006127ab602e83612f62565b91507f45524337323155524953746f726167653a2055524920736574206f66206e6f6e60008301527f6578697374656e7420746f6b656e0000000000000000000000000000000000006020830152604082019050919050565b6000612811600283612f73565b91507f227d0000000000000000000000000000000000000000000000000000000000006000830152600282019050919050565b6000612851602083612f62565b91507f4552433732313a206d696e7420746f20746865207a65726f20616464726573736000830152602082019050919050565b6000612891603183612f62565b91507f45524337323155524953746f726167653a2055524920717565727920666f722060008301527f6e6f6e6578697374656e7420746f6b656e0000000000000000000000000000006020830152604082019050919050565b60006128f7602c83612f62565b91507f4552433732313a20617070726f76656420717565727920666f72206e6f6e657860008301527f697374656e7420746f6b656e00000000000000000000000000000000000000006020830152604082019050919050565b600061295d602983612f62565b91507f4552433732313a207472616e73666572206f6620746f6b656e2074686174206960008301527f73206e6f74206f776e00000000000000000000000000000000000000000000006020830152604082019050919050565b60006129c3602f83612f62565b91507f4552433732314d657461646174613a2055524920717565727920666f72206e6f60008301527f6e6578697374656e7420746f6b656e00000000000000000000000000000000006020830152604082019050919050565b6000612a29605183612f73565b91507f7b226e616d65223a202246617448656164222c226465736372697074696f6e2260008301527f3a202246617448656164206f6e20636861696e21222c2022617474726962757460208301527f6573223a2022222c2022696d616765223a0000000000000000000000000000006040830152605182019050919050565b6000612ab5602183612f62565b91507f4552433732313a20617070726f76616c20746f2063757272656e74206f776e6560008301527f72000000000000000000000000000000000000000000000000000000000000006020830152604082019050919050565b6000612b1b603183612f62565b91507f4552433732313a207472616e736665722063616c6c6572206973206e6f74206f60008301527f776e6572206e6f7220617070726f7665640000000000000000000000000000006020830152604082019050919050565b612b7d816130fd565b82525050565b6000612b8f8284612489565b915081905092915050565b6000612ba68285612489565b9150612bb28284612489565b91508190509392505050565b6000612bc982612a1c565b9150612bd58284612489565b9150612be082612804565b915081905092915050565b6000602082019050612c0060008301846123f9565b92915050565b6000608082019050612c1b60008301876123f9565b612c2860208301866123f9565b612c356040830185612b74565b8181036060830152612c478184612417565b905095945050505050565b6000602082019050612c676000830184612408565b92915050565b60006020820190508181036000830152612c878184612450565b905092915050565b60006020820190508181036000830152612ca8816124ba565b9050919050565b60006020820190508181036000830152612cc881612520565b9050919050565b60006020820190508181036000830152612ce881612560565b9050919050565b60006020820190508181036000830152612d08816125c6565b9050919050565b60006020820190508181036000830152612d2881612606565b9050919050565b60006020820190508181036000830152612d488161266c565b9050919050565b60006020820190508181036000830152612d68816126d2565b9050919050565b60006020820190508181036000830152612d8881612738565b9050919050565b60006020820190508181036000830152612da88161279e565b9050919050565b60006020820190508181036000830152612dc881612844565b9050919050565b60006020820190508181036000830152612de881612884565b9050919050565b60006020820190508181036000830152612e08816128ea565b9050919050565b60006020820190508181036000830152612e2881612950565b9050919050565b60006020820190508181036000830152612e48816129b6565b9050919050565b60006020820190508181036000830152612e6881612aa8565b9050919050565b60006020820190508181036000830152612e8881612b0e565b9050919050565b6000602082019050612ea46000830184612b74565b92915050565b6000604051905081810181811067ffffffffffffffff82111715612ed157612ed0613282565b5b8060405250919050565b600067ffffffffffffffff821115612ef657612ef5613282565b5b601f19601f8301169050602081019050919050565b600067ffffffffffffffff821115612f2657612f25613282565b5b601f19601f8301169050602081019050919050565b600081519050919050565b600081519050919050565b600082825260208201905092915050565b600082825260208201905092915050565b600081905092915050565b6000612f89826130fd565b9150612f94836130fd565b9250827fffffffffffffffffffffffffffffffffffffffffffffffffffffffffffffffff03821115612fc957612fc86131f5565b5b828201905092915050565b6000612fdf826130fd565b9150612fea836130fd565b925082612ffa57612ff9613224565b5b828204905092915050565b6000613010826130fd565b915061301b836130fd565b9250817fffffffffffffffffffffffffffffffffffffffffffffffffffffffffffffffff0483118215151615613054576130536131f5565b5b828202905092915050565b600061306a826130fd565b9150613075836130fd565b925082821015613088576130876131f5565b5b828203905092915050565b600061309e826130dd565b9050919050565b60008115159050919050565b60007fffffffff0000000000000000000000000000000000000000000000000000000082169050919050565b600073ffffffffffffffffffffffffffffffffffffffff82169050919050565b6000819050919050565b82818337600083830152505050565b60005b83811015613134578082015181840152602081019050613119565b83811115613143576000848401525b50505050565b6000600282049050600182168061316157607f821691505b6020821081141561317557613174613253565b5b50919050565b6000613186826130fd565b91507fffffffffffffffffffffffffffffffffffffffffffffffffffffffffffffffff8214156131b9576131b86131f5565b5b600182019050919050565b60006131cf826130fd565b91506131da836130fd565b9250826131ea576131e9613224565b5b828206905092915050565b7f4e487b7100000000000000000000000000000000000000000000000000000000600052601160045260246000fd5b7f4e487b7100000000000000000000000000000000000000000000000000000000600052601260045260246000fd5b7f4e487b7100000000000000000000000000000000000000000000000000000000600052602260045260246000fd5b7f4e487b7100000000000000000000000000000000000000000000000000000000600052604160045260246000fd5b6000601f19601f8301169050919050565b6132cb81613093565b81146132d657600080fd5b50565b6132e2816130a5565b81146132ed57600080fd5b50565b6132f9816130b1565b811461330457600080fd5b50565b613310816130fd565b811461331b57600080fd5b5056fe4142434445464748494a4b4c4d4e4f505152535455565758595a6162636465666768696a6b6c6d6e6f707172737475767778797a303132333435363738392b2fa264697066735822122017d55f62b515390a554c9c5480af85784ce31d7fdfacabad62f648f5b4f88cb464736f6c63430008000033",
  "devdoc": {
    "kind": "dev",
    "methods": {
      "approve(address,uint256)": {
        "details": "See {IERC721-approve}."
      },
      "balanceOf(address)": {
        "details": "See {IERC721-balanceOf}."
      },
      "getApproved(uint256)": {
        "details": "See {IERC721-getApproved}."
      },
      "isApprovedForAll(address,address)": {
        "details": "See {IERC721-isApprovedForAll}."
      },
      "name()": {
        "details": "See {IERC721Metadata-name}."
      },
      "ownerOf(uint256)": {
        "details": "See {IERC721-ownerOf}."
      },
      "safeTransferFrom(address,address,uint256)": {
        "details": "See {IERC721-safeTransferFrom}."
      },
      "safeTransferFrom(address,address,uint256,bytes)": {
        "details": "See {IERC721-safeTransferFrom}."
      },
      "setApprovalForAll(address,bool)": {
        "details": "See {IERC721-setApprovalForAll}."
      },
      "supportsInterface(bytes4)": {
        "details": "See {IERC165-supportsInterface}."
      },
      "symbol()": {
        "details": "See {IERC721Metadata-symbol}."
      },
      "tokenURI(uint256)": {
        "details": "See {IERC721Metadata-tokenURI}."
      },
      "transferFrom(address,address,uint256)": {
        "details": "See {IERC721-transferFrom}."
      }
    },
    "version": 1
  },
  "userdoc": {
    "kind": "user",
    "methods": {},
    "version": 1
  },
  "storageLayout": {
    "storage": [
      {
        "astId": 25,
        "contract": "contracts/FatheadOnChain.sol:FatheadOnChain",
        "label": "_name",
        "offset": 0,
        "slot": "0",
        "type": "t_string_storage"
      },
      {
        "astId": 27,
        "contract": "contracts/FatheadOnChain.sol:FatheadOnChain",
        "label": "_symbol",
        "offset": 0,
        "slot": "1",
        "type": "t_string_storage"
      },
      {
        "astId": 31,
        "contract": "contracts/FatheadOnChain.sol:FatheadOnChain",
        "label": "_owners",
        "offset": 0,
        "slot": "2",
        "type": "t_mapping(t_uint256,t_address)"
      },
      {
        "astId": 35,
        "contract": "contracts/FatheadOnChain.sol:FatheadOnChain",
        "label": "_balances",
        "offset": 0,
        "slot": "3",
        "type": "t_mapping(t_address,t_uint256)"
      },
      {
        "astId": 39,
        "contract": "contracts/FatheadOnChain.sol:FatheadOnChain",
        "label": "_tokenApprovals",
        "offset": 0,
        "slot": "4",
        "type": "t_mapping(t_uint256,t_address)"
      },
      {
        "astId": 45,
        "contract": "contracts/FatheadOnChain.sol:FatheadOnChain",
        "label": "_operatorApprovals",
        "offset": 0,
        "slot": "5",
        "type": "t_mapping(t_address,t_mapping(t_address,t_bool))"
      },
      {
        "astId": 962,
        "contract": "contracts/FatheadOnChain.sol:FatheadOnChain",
        "label": "_tokenURIs",
        "offset": 0,
        "slot": "6",
        "type": "t_mapping(t_uint256,t_string_storage)"
      },
      {
        "astId": 1720,
        "contract": "contracts/FatheadOnChain.sol:FatheadOnChain",
        "label": "tokenCounter",
        "offset": 0,
        "slot": "7",
        "type": "t_uint256"
      },
      {
        "astId": 1722,
        "contract": "contracts/FatheadOnChain.sol:FatheadOnChain",
        "label": "owner",
        "offset": 0,
        "slot": "8",
        "type": "t_address"
      }
    ],
    "types": {
      "t_address": {
        "encoding": "inplace",
        "label": "address",
        "numberOfBytes": "20"
      },
      "t_bool": {
        "encoding": "inplace",
        "label": "bool",
        "numberOfBytes": "1"
      },
      "t_mapping(t_address,t_bool)": {
        "encoding": "mapping",
        "key": "t_address",
        "label": "mapping(address => bool)",
        "numberOfBytes": "32",
        "value": "t_bool"
      },
      "t_mapping(t_address,t_mapping(t_address,t_bool))": {
        "encoding": "mapping",
        "key": "t_address",
        "label": "mapping(address => mapping(address => bool))",
        "numberOfBytes": "32",
        "value": "t_mapping(t_address,t_bool)"
      },
      "t_mapping(t_address,t_uint256)": {
        "encoding": "mapping",
        "key": "t_address",
        "label": "mapping(address => uint256)",
        "numberOfBytes": "32",
        "value": "t_uint256"
      },
      "t_mapping(t_uint256,t_address)": {
        "encoding": "mapping",
        "key": "t_uint256",
        "label": "mapping(uint256 => address)",
        "numberOfBytes": "32",
        "value": "t_address"
      },
      "t_mapping(t_uint256,t_string_storage)": {
        "encoding": "mapping",
        "key": "t_uint256",
        "label": "mapping(uint256 => string)",
        "numberOfBytes": "32",
        "value": "t_string_storage"
      },
      "t_string_storage": {
        "encoding": "bytes",
        "label": "string",
        "numberOfBytes": "32"
      },
      "t_uint256": {
        "encoding": "inplace",
        "label": "uint256",
        "numberOfBytes": "32"
      }
    }
  }
}