{
  "address": "0xc0755e7b7867a5eFdD37AfE1BaE3CfaC42Fe224C",
  "abi": [
    {
      "inputs": [],
      "stateMutability": "nonpayable",
      "type": "constructor"
    },
    {
      "anonymous": false,
      "inputs": [
        {
          "indexed": true,
          "internalType": "address",
          "name": "owner",
          "type": "address"
        },
        {
          "indexed": true,
          "internalType": "address",
          "name": "approved",
          "type": "address"
        },
        {
          "indexed": true,
          "internalType": "uint256",
          "name": "tokenId",
          "type": "uint256"
        }
      ],
      "name": "Approval",
      "type": "event"
    },
    {
      "anonymous": false,
      "inputs": [
        {
          "indexed": true,
          "internalType": "address",
          "name": "owner",
          "type": "address"
        },
        {
          "indexed": true,
          "internalType": "address",
          "name": "operator",
          "type": "address"
        },
        {
          "indexed": false,
          "internalType": "bool",
          "name": "approved",
          "type": "bool"
        }
      ],
      "name": "ApprovalForAll",
      "type": "event"
    },
    {
      "anonymous": false,
      "inputs": [
        {
          "indexed": true,
          "internalType": "address",
          "name": "previousOwner",
          "type": "address"
        },
        {
          "indexed": true,
          "internalType": "address",
          "name": "newOwner",
          "type": "address"
        }
      ],
      "name": "OwnershipTransferred",
      "type": "event"
    },
    {
      "anonymous": false,
      "inputs": [
        {
          "indexed": true,
          "internalType": "address",
          "name": "from",
          "type": "address"
        },
        {
          "indexed": true,
          "internalType": "address",
          "name": "to",
          "type": "address"
        },
        {
          "indexed": true,
          "internalType": "uint256",
          "name": "tokenId",
          "type": "uint256"
        }
      ],
      "name": "Transfer",
      "type": "event"
    },
    {
      "inputs": [],
      "name": "FatHead_PROVENANCE",
      "outputs": [
        {
          "internalType": "string",
          "name": "",
          "type": "string"
        }
      ],
      "stateMutability": "view",
      "type": "function"
    },
    {
      "inputs": [],
      "name": "MAX_FatHead",
      "outputs": [
        {
          "internalType": "uint256",
          "name": "",
          "type": "uint256"
        }
      ],
      "stateMutability": "view",
      "type": "function"
    },
    {
      "inputs": [
        {
          "internalType": "address",
          "name": "to",
          "type": "address"
        },
        {
          "internalType": "uint256",
          "name": "tokenId",
          "type": "uint256"
        }
      ],
      "name": "approve",
      "outputs": [],
      "stateMutability": "nonpayable",
      "type": "function"
    },
    {
      "inputs": [
        {
          "internalType": "address",
          "name": "owner",
          "type": "address"
        }
      ],
      "name": "balanceOf",
      "outputs": [
        {
          "internalType": "uint256",
          "name": "",
          "type": "uint256"
        }
      ],
      "stateMutability": "view",
      "type": "function"
    },
    {
      "inputs": [
        {
          "internalType": "uint256",
          "name": "t1",
          "type": "uint256"
        },
        {
          "internalType": "uint256",
          "name": "t2",
          "type": "uint256"
        }
      ],
      "name": "burnTwoForOne",
      "outputs": [],
      "stateMutability": "nonpayable",
      "type": "function"
    },
    {
      "inputs": [],
      "name": "customfatHeadMinted",
      "outputs": [
        {
          "internalType": "bool",
          "name": "",
          "type": "bool"
        }
      ],
      "stateMutability": "view",
      "type": "function"
    },
    {
      "inputs": [],
      "name": "fatHeadPrice",
      "outputs": [
        {
          "internalType": "uint256",
          "name": "",
          "type": "uint256"
        }
      ],
      "stateMutability": "view",
      "type": "function"
    },
    {
      "inputs": [],
      "name": "flipSaleState",
      "outputs": [],
      "stateMutability": "nonpayable",
      "type": "function"
    },
    {
      "inputs": [
        {
          "internalType": "uint256",
          "name": "tokenId",
          "type": "uint256"
        }
      ],
      "name": "getApproved",
      "outputs": [
        {
          "internalType": "address",
          "name": "",
          "type": "address"
        }
      ],
      "stateMutability": "view",
      "type": "function"
    },
    {
      "inputs": [
        {
          "internalType": "uint256",
          "name": "tokenId",
          "type": "uint256"
        }
      ],
      "name": "getTokenURI",
      "outputs": [
        {
          "internalType": "string",
          "name": "",
          "type": "string"
        }
      ],
      "stateMutability": "view",
      "type": "function"
    },
    {
      "inputs": [
        {
          "internalType": "address",
          "name": "owner",
          "type": "address"
        },
        {
          "internalType": "address",
          "name": "operator",
          "type": "address"
        }
      ],
      "name": "isApprovedForAll",
      "outputs": [
        {
          "internalType": "bool",
          "name": "",
          "type": "bool"
        }
      ],
      "stateMutability": "view",
      "type": "function"
    },
    {
      "inputs": [],
      "name": "maxFatHeadPurchase",
      "outputs": [
        {
          "internalType": "uint256",
          "name": "",
          "type": "uint256"
        }
      ],
      "stateMutability": "view",
      "type": "function"
    },
    {
      "inputs": [
        {
          "internalType": "uint256",
          "name": "numberOfTokens",
          "type": "uint256"
        }
      ],
      "name": "mintFatHead",
      "outputs": [],
      "stateMutability": "payable",
      "type": "function"
    },
    {
      "inputs": [],
      "name": "name",
      "outputs": [
        {
          "internalType": "string",
          "name": "",
          "type": "string"
        }
      ],
      "stateMutability": "view",
      "type": "function"
    },
    {
      "inputs": [],
      "name": "owner",
      "outputs": [
        {
          "internalType": "address",
          "name": "",
          "type": "address"
        }
      ],
      "stateMutability": "view",
      "type": "function"
    },
    {
      "inputs": [
        {
          "internalType": "uint256",
          "name": "tokenId",
          "type": "uint256"
        }
      ],
      "name": "ownerOf",
      "outputs": [
        {
          "internalType": "address",
          "name": "",
          "type": "address"
        }
      ],
      "stateMutability": "view",
      "type": "function"
    },
    {
      "inputs": [],
      "name": "renounceOwnership",
      "outputs": [],
      "stateMutability": "nonpayable",
      "type": "function"
    },
    {
      "inputs": [
        {
          "internalType": "uint256",
          "name": "numFatHead",
          "type": "uint256"
        }
      ],
      "name": "reserveFatHead",
      "outputs": [],
      "stateMutability": "nonpayable",
      "type": "function"
    },
    {
      "inputs": [
        {
          "internalType": "address",
          "name": "from",
          "type": "address"
        },
        {
          "internalType": "address",
          "name": "to",
          "type": "address"
        },
        {
          "internalType": "uint256",
          "name": "tokenId",
          "type": "uint256"
        }
      ],
      "name": "safeTransferFrom",
      "outputs": [],
      "stateMutability": "nonpayable",
      "type": "function"
    },
    {
      "inputs": [
        {
          "internalType": "address",
          "name": "from",
          "type": "address"
        },
        {
          "internalType": "address",
          "name": "to",
          "type": "address"
        },
        {
          "internalType": "uint256",
          "name": "tokenId",
          "type": "uint256"
        },
        {
          "internalType": "bytes",
          "name": "_data",
          "type": "bytes"
        }
      ],
      "name": "safeTransferFrom",
      "outputs": [],
      "stateMutability": "nonpayable",
      "type": "function"
    },
    {
      "inputs": [],
      "name": "saleIsActive",
      "outputs": [
        {
          "internalType": "bool",
          "name": "",
          "type": "bool"
        }
      ],
      "stateMutability": "view",
      "type": "function"
    },
    {
      "inputs": [
        {
          "internalType": "address",
          "name": "operator",
          "type": "address"
        },
        {
          "internalType": "bool",
          "name": "approved",
          "type": "bool"
        }
      ],
      "name": "setApprovalForAll",
      "outputs": [],
      "stateMutability": "nonpayable",
      "type": "function"
    },
    {
      "inputs": [
        {
          "internalType": "string",
          "name": "provenanceHash",
          "type": "string"
        }
      ],
      "name": "setProvenanceHash",
      "outputs": [],
      "stateMutability": "nonpayable",
      "type": "function"
    },
    {
      "inputs": [
        {
          "internalType": "bytes4",
          "name": "interfaceId",
          "type": "bytes4"
        }
      ],
      "name": "supportsInterface",
      "outputs": [
        {
          "internalType": "bool",
          "name": "",
          "type": "bool"
        }
      ],
      "stateMutability": "view",
      "type": "function"
    },
    {
      "inputs": [],
      "name": "symbol",
      "outputs": [
        {
          "internalType": "string",
          "name": "",
          "type": "string"
        }
      ],
      "stateMutability": "view",
      "type": "function"
    },
    {
      "inputs": [
        {
          "internalType": "uint256",
          "name": "index",
          "type": "uint256"
        }
      ],
      "name": "tokenByIndex",
      "outputs": [
        {
          "internalType": "uint256",
          "name": "",
          "type": "uint256"
        }
      ],
      "stateMutability": "view",
      "type": "function"
    },
    {
      "inputs": [
        {
          "internalType": "address",
          "name": "owner",
          "type": "address"
        },
        {
          "internalType": "uint256",
          "name": "index",
          "type": "uint256"
        }
      ],
      "name": "tokenOfOwnerByIndex",
      "outputs": [
        {
          "internalType": "uint256",
          "name": "",
          "type": "uint256"
        }
      ],
      "stateMutability": "view",
      "type": "function"
    },
    {
      "inputs": [
        {
          "internalType": "uint256",
          "name": "tokenId",
          "type": "uint256"
        }
      ],
      "name": "tokenURI",
      "outputs": [
        {
          "internalType": "string",
          "name": "",
          "type": "string"
        }
      ],
      "stateMutability": "view",
      "type": "function"
    },
    {
      "inputs": [],
      "name": "totalSupply",
      "outputs": [
        {
          "internalType": "uint256",
          "name": "",
          "type": "uint256"
        }
      ],
      "stateMutability": "view",
      "type": "function"
    },
    {
      "inputs": [
        {
          "internalType": "address",
          "name": "from",
          "type": "address"
        },
        {
          "internalType": "address",
          "name": "to",
          "type": "address"
        },
        {
          "internalType": "uint256",
          "name": "tokenId",
          "type": "uint256"
        }
      ],
      "name": "transferFrom",
      "outputs": [],
      "stateMutability": "nonpayable",
      "type": "function"
    },
    {
      "inputs": [
        {
          "internalType": "address",
          "name": "newOwner",
          "type": "address"
        }
      ],
      "name": "transferOwnership",
      "outputs": [],
      "stateMutability": "nonpayable",
      "type": "function"
    },
    {
      "inputs": [
        {
          "internalType": "address[]",
          "name": "wallets",
          "type": "address[]"
        }
      ],
      "name": "whitelistAddresses",
      "outputs": [],
      "stateMutability": "nonpayable",
      "type": "function"
    },
    {
      "inputs": [],
      "name": "withdrawAll",
      "outputs": [],
      "stateMutability": "payable",
      "type": "function"
    }
  ],
  "transactionHash": "0xc750cc2638760ae32d0d64f38da9f2c2208db0da7c9c71a1c496030641e0f2c0",
  "args": [],
  "solcInputHash": "a98643add4a7ce278fcf3832cce9131c",
  "bytecode": "0x608060405260405180602001604052806000815250600b90805190602001906200002b9291906200020c565b506000600d60006101000a81548160ff0219169083151502179055506000600d60016101000a81548160ff0219169083151502179055503480156200006f57600080fd5b506040518060400160405280600781526020017f66617448656164000000000000000000000000000000000000000000000000008152506040518060400160405280600781526020017f46415448454144000000000000000000000000000000000000000000000000008152508160009080519060200190620000f49291906200020c565b5080600190805190602001906200010d9291906200020c565b50505062000130620001246200013e60201b60201c565b6200014660201b60201c565b600a600c8190555062000321565b600033905090565b6000600a60009054906101000a900473ffffffffffffffffffffffffffffffffffffffff16905081600a60006101000a81548173ffffffffffffffffffffffffffffffffffffffff021916908373ffffffffffffffffffffffffffffffffffffffff1602179055508173ffffffffffffffffffffffffffffffffffffffff168173ffffffffffffffffffffffffffffffffffffffff167f8be0079c531659141344cd1fd0a4f28419497f9722a3daafe3b4186f6b6457e060405160405180910390a35050565b8280546200021a90620002bc565b90600052602060002090601f0160209004810192826200023e57600085556200028a565b82601f106200025957805160ff19168380011785556200028a565b828001600101855582156200028a579182015b82811115620002895782518255916020019190600101906200026c565b5b5090506200029991906200029d565b5090565b5b80821115620002b85760008160009055506001016200029e565b5090565b60006002820490506001821680620002d557607f821691505b60208210811415620002ec57620002eb620002f2565b5b50919050565b7f4e487b7100000000000000000000000000000000000000000000000000000000600052602260045260246000fd5b6143ab80620003316000396000f3fe6080604052600436106101ee5760003560e01c806370a082311161010d578063b715df13116100a0578063e985e9c51161006f578063e985e9c5146106cd578063eb8d24441461070a578063edd3ead214610735578063f2fde38b14610760578063f3a97fbd14610789576101ee565b8063b715df1314610613578063b88d4fde1461063e578063c63faa6b14610667578063c87b56dd14610690576101ee565b806395d89b41116100dc57806395d89b411461057a578063a22cb465146105a5578063ab5c3101146105ce578063ac90253d146105ea576101ee565b806370a08231146104f1578063715018a61461052e578063853828b6146105455780638da5cb5b1461054f576101ee565b80632f745c591161018557806342842e0e1161015457806342842e0e146104235780634f6ccce71461044c5780636352211e1461048957806369856204146104c6576101ee565b80632f745c591461036757806334918dfd146103a45780633495635b146103bb5780633bb3a24d146103e6576101ee565b806310969523116101c157806310969523146102c157806318160ddd146102ea57806323b872dd146103155780632bf043041461033e576101ee565b806301ffc9a7146101f357806306fdde0314610230578063081812fc1461025b578063095ea7b314610298575b600080fd5b3480156101ff57600080fd5b5061021a600480360381019061021591906130e3565b6107b4565b6040516102279190613bdf565b60405180910390f35b34801561023c57600080fd5b5061024561082e565b6040516102529190613bfa565b60405180910390f35b34801561026757600080fd5b50610282600480360381019061027d9190613176565b6108c0565b60405161028f9190613b78565b60405180910390f35b3480156102a457600080fd5b506102bf60048036038101906102ba9190613062565b610945565b005b3480156102cd57600080fd5b506102e860048036038101906102e39190613135565b610a5d565b005b3480156102f657600080fd5b506102ff610af3565b60405161030c9190613edc565b60405180910390f35b34801561032157600080fd5b5061033c60048036038101906103379190612f5c565b610b00565b005b34801561034a57600080fd5b506103656004803603810190610360919061309e565b610b60565b005b34801561037357600080fd5b5061038e60048036038101906103899190613062565b610ca7565b60405161039b9190613edc565b60405180910390f35b3480156103b057600080fd5b506103b9610d4c565b005b3480156103c757600080fd5b506103d0610df4565b6040516103dd9190613bdf565b60405180910390f35b3480156103f257600080fd5b5061040d60048036038101906104089190613176565b610e07565b60405161041a9190613bfa565b60405180910390f35b34801561042f57600080fd5b5061044a60048036038101906104459190612f5c565b610e19565b005b34801561045857600080fd5b50610473600480360381019061046e9190613176565b610e39565b6040516104809190613edc565b60405180910390f35b34801561049557600080fd5b506104b060048036038101906104ab9190613176565b610ed0565b6040516104bd9190613b78565b60405180910390f35b3480156104d257600080fd5b506104db610f82565b6040516104e89190613edc565b60405180910390f35b3480156104fd57600080fd5b5061051860048036038101906105139190612ef7565b610f87565b6040516105259190613edc565b60405180910390f35b34801561053a57600080fd5b5061054361103f565b005b61054d6110c7565b005b34801561055b57600080fd5b50610564611183565b6040516105719190613b78565b60405180910390f35b34801561058657600080fd5b5061058f6111ad565b60405161059c9190613bfa565b60405180910390f35b3480156105b157600080fd5b506105cc60048036038101906105c79190613026565b61123f565b005b6105e860048036038101906105e39190613176565b6113c0565b005b3480156105f657600080fd5b50610611600480360381019061060c9190613176565b61150c565b005b34801561061f57600080fd5b506106286115cc565b6040516106359190613bfa565b60405180910390f35b34801561064a57600080fd5b5061066560048036038101906106609190612fab565b61165a565b005b34801561067357600080fd5b5061068e6004803603810190610689919061319f565b6116bc565b005b34801561069c57600080fd5b506106b760048036038101906106b29190613176565b61172b565b6040516106c49190613bfa565b60405180910390f35b3480156106d957600080fd5b506106f460048036038101906106ef9190612f20565b6117d2565b6040516107019190613bdf565b60405180910390f35b34801561071657600080fd5b5061071f611866565b60405161072c9190613bdf565b60405180910390f35b34801561074157600080fd5b5061074a611879565b6040516107579190613edc565b60405180910390f35b34801561076c57600080fd5b5061078760048036038101906107829190612ef7565b61187f565b005b34801561079557600080fd5b5061079e611977565b6040516107ab9190613edc565b60405180910390f35b60007f780e9d63000000000000000000000000000000000000000000000000000000007bffffffffffffffffffffffffffffffffffffffffffffffffffffffff1916827bffffffffffffffffffffffffffffffffffffffffffffffffffffffff19161480610827575061082682611983565b5b9050919050565b60606000805461083d90614196565b80601f016020809104026020016040519081016040528092919081815260200182805461086990614196565b80156108b65780601f1061088b576101008083540402835291602001916108b6565b820191906000526020600020905b81548152906001019060200180831161089957829003601f168201915b5050505050905090565b60006108cb82611a65565b61090a576040517f08c379a000000000000000000000000000000000000000000000000000000000815260040161090190613dbc565b60405180910390fd5b6004600083815260200190815260200160002060009054906101000a900473ffffffffffffffffffffffffffffffffffffffff169050919050565b600061095082610ed0565b90508073ffffffffffffffffffffffffffffffffffffffff168373ffffffffffffffffffffffffffffffffffffffff1614156109c1576040517f08c379a00000000000000000000000000000000000000000000000000000000081526004016109b890613e3c565b60405180910390fd5b8073ffffffffffffffffffffffffffffffffffffffff166109e0611ad1565b73ffffffffffffffffffffffffffffffffffffffff161480610a0f5750610a0e81610a09611ad1565b6117d2565b5b610a4e576040517f08c379a0000000000000000000000000000000000000000000000000000000008152600401610a4590613d3c565b60405180910390fd5b610a588383611ad9565b505050565b610a65611ad1565b73ffffffffffffffffffffffffffffffffffffffff16610a83611183565b73ffffffffffffffffffffffffffffffffffffffff1614610ad9576040517f08c379a0000000000000000000000000000000000000000000000000000000008152600401610ad090613ddc565b60405180910390fd5b80600b9080519060200190610aef929190612cd1565b5050565b6000600880549050905090565b610b11610b0b611ad1565b82611b92565b610b50576040517f08c379a0000000000000000000000000000000000000000000000000000000008152600401610b4790613e5c565b60405180910390fd5b610b5b838383611c70565b505050565b610b68611ad1565b73ffffffffffffffffffffffffffffffffffffffff16610b86611183565b73ffffffffffffffffffffffffffffffffffffffff1614610bdc576040517f08c379a0000000000000000000000000000000000000000000000000000000008152600401610bd390613ddc565b60405180910390fd5b60005b82829050811015610ca2576001600e6000858585818110610c29577f4e487b7100000000000000000000000000000000000000000000000000000000600052603260045260246000fd5b9050602002016020810190610c3e9190612ef7565b73ffffffffffffffffffffffffffffffffffffffff1673ffffffffffffffffffffffffffffffffffffffff16815260200190815260200160002060006101000a81548160ff0219169083151502179055508080610c9a906141c8565b915050610bdf565b505050565b6000610cb283610f87565b8210610cf3576040517f08c379a0000000000000000000000000000000000000000000000000000000008152600401610cea90613c3c565b60405180910390fd5b600660008473ffffffffffffffffffffffffffffffffffffffff1673ffffffffffffffffffffffffffffffffffffffff168152602001908152602001600020600083815260200190815260200160002054905092915050565b610d54611ad1565b73ffffffffffffffffffffffffffffffffffffffff16610d72611183565b73ffffffffffffffffffffffffffffffffffffffff1614610dc8576040517f08c379a0000000000000000000000000000000000000000000000000000000008152600401610dbf90613ddc565b60405180910390fd5b600d60009054906101000a900460ff1615600d60006101000a81548160ff021916908315150217905550565b600d60019054906101000a900460ff1681565b6060610e128261172b565b9050919050565b610e348383836040518060200160405280600081525061165a565b505050565b6000610e43610af3565b8210610e84576040517f08c379a0000000000000000000000000000000000000000000000000000000008152600401610e7b90613e7c565b60405180910390fd5b60088281548110610ebe577f4e487b7100000000000000000000000000000000000000000000000000000000600052603260045260246000fd5b90600052602060002001549050919050565b6000806002600084815260200190815260200160002060009054906101000a900473ffffffffffffffffffffffffffffffffffffffff169050600073ffffffffffffffffffffffffffffffffffffffff168173ffffffffffffffffffffffffffffffffffffffff161415610f79576040517f08c379a0000000000000000000000000000000000000000000000000000000008152600401610f7090613d7c565b60405180910390fd5b80915050919050565b600a81565b60008073ffffffffffffffffffffffffffffffffffffffff168273ffffffffffffffffffffffffffffffffffffffff161415610ff8576040517f08c379a0000000000000000000000000000000000000000000000000000000008152600401610fef90613d5c565b60405180910390fd5b600360008373ffffffffffffffffffffffffffffffffffffffff1673ffffffffffffffffffffffffffffffffffffffff168152602001908152602001600020549050919050565b611047611ad1565b73ffffffffffffffffffffffffffffffffffffffff16611065611183565b73ffffffffffffffffffffffffffffffffffffffff16146110bb576040517f08c379a00000000000000000000000000000000000000000000000000000000081526004016110b290613ddc565b60405180910390fd5b6110c56000611ecc565b565b6110cf611ad1565b73ffffffffffffffffffffffffffffffffffffffff166110ed611183565b73ffffffffffffffffffffffffffffffffffffffff1614611143576040517f08c379a000000000000000000000000000000000000000000000000000000000815260040161113a90613ddc565b60405180910390fd5b3373ffffffffffffffffffffffffffffffffffffffff166108fc479081150290604051600060405180830381858888f1935050505061118157600080fd5b565b6000600a60009054906101000a900473ffffffffffffffffffffffffffffffffffffffff16905090565b6060600180546111bc90614196565b80601f01602080910402602001604051908101604052809291908181526020018280546111e890614196565b80156112355780601f1061120a57610100808354040283529160200191611235565b820191906000526020600020905b81548152906001019060200180831161121857829003601f168201915b5050505050905090565b611247611ad1565b73ffffffffffffffffffffffffffffffffffffffff168273ffffffffffffffffffffffffffffffffffffffff1614156112b5576040517f08c379a00000000000000000000000000000000000000000000000000000000081526004016112ac90613cdc565b60405180910390fd5b80600560006112c2611ad1565b73ffffffffffffffffffffffffffffffffffffffff1673ffffffffffffffffffffffffffffffffffffffff16815260200190815260200160002060008473ffffffffffffffffffffffffffffffffffffffff1673ffffffffffffffffffffffffffffffffffffffff16815260200190815260200160002060006101000a81548160ff0219169083151502179055508173ffffffffffffffffffffffffffffffffffffffff1661136f611ad1565b73ffffffffffffffffffffffffffffffffffffffff167f17307eab39ab6107e8899845ad3d59bd9653f200f220920489ca2b5937696c31836040516113b49190613bdf565b60405180910390a35050565b600d60009054906101000a900460ff1661140f576040517f08c379a000000000000000000000000000000000000000000000000000000000815260040161140690613c1c565b60405180910390fd5b600a811115611453576040517f08c379a000000000000000000000000000000000000000000000000000000000815260040161144a90613ebc565b60405180910390fd5b600c548161145f610af3565b6114699190613fcb565b11156114aa576040517f08c379a00000000000000000000000000000000000000000000000000000000081526004016114a190613e9c565b60405180910390fd5b3481670186cc6acd4b00006114bf9190614052565b1115611500576040517f08c379a00000000000000000000000000000000000000000000000000000000081526004016114f790613cfc565b60405180910390fd5b61150981611f92565b50565b611514611ad1565b73ffffffffffffffffffffffffffffffffffffffff16611532611183565b73ffffffffffffffffffffffffffffffffffffffff1614611588576040517f08c379a000000000000000000000000000000000000000000000000000000000815260040161157f90613ddc565b60405180910390fd5b6000611592610af3565b905060005b828110156115c7576115b43382846115af9190613fcb565b611fea565b80806115bf906141c8565b915050611597565b505050565b600b80546115d990614196565b80601f016020809104026020016040519081016040528092919081815260200182805461160590614196565b80156116525780601f1061162757610100808354040283529160200191611652565b820191906000526020600020905b81548152906001019060200180831161163557829003601f168201915b505050505081565b61166b611665611ad1565b83611b92565b6116aa576040517f08c379a00000000000000000000000000000000000000000000000000000000081526004016116a190613e5c565b60405180910390fd5b6116b684848484612008565b50505050565b600d60009054906101000a900460ff1661170b576040517f08c379a000000000000000000000000000000000000000000000000000000000815260040161170290613c1c565b60405180910390fd5b61171482612064565b61171d81612064565b6117276001611f92565b5050565b606061173682611a65565b611775576040517f08c379a000000000000000000000000000000000000000000000000000000000815260040161176c90613e1c565b60405180910390fd5b600061177f61212e565b9050600081511161179f57604051806020016040528060008152506117ca565b806117a984612145565b6040516020016117ba929190613b2e565b6040516020818303038152906040525b915050919050565b6000600560008473ffffffffffffffffffffffffffffffffffffffff1673ffffffffffffffffffffffffffffffffffffffff16815260200190815260200160002060008373ffffffffffffffffffffffffffffffffffffffff1673ffffffffffffffffffffffffffffffffffffffff16815260200190815260200160002060009054906101000a900460ff16905092915050565b600d60009054906101000a900460ff1681565b600c5481565b611887611ad1565b73ffffffffffffffffffffffffffffffffffffffff166118a5611183565b73ffffffffffffffffffffffffffffffffffffffff16146118fb576040517f08c379a00000000000000000000000000000000000000000000000000000000081526004016118f290613ddc565b60405180910390fd5b600073ffffffffffffffffffffffffffffffffffffffff168173ffffffffffffffffffffffffffffffffffffffff16141561196b576040517f08c379a000000000000000000000000000000000000000000000000000000000815260040161196290613c7c565b60405180910390fd5b61197481611ecc565b50565b670186cc6acd4b000081565b60007f80ac58cd000000000000000000000000000000000000000000000000000000007bffffffffffffffffffffffffffffffffffffffffffffffffffffffff1916827bffffffffffffffffffffffffffffffffffffffffffffffffffffffff19161480611a4e57507f5b5e139f000000000000000000000000000000000000000000000000000000007bffffffffffffffffffffffffffffffffffffffffffffffffffffffff1916827bffffffffffffffffffffffffffffffffffffffffffffffffffffffff1916145b80611a5e5750611a5d826122f2565b5b9050919050565b60008073ffffffffffffffffffffffffffffffffffffffff166002600084815260200190815260200160002060009054906101000a900473ffffffffffffffffffffffffffffffffffffffff1673ffffffffffffffffffffffffffffffffffffffff1614159050919050565b600033905090565b816004600083815260200190815260200160002060006101000a81548173ffffffffffffffffffffffffffffffffffffffff021916908373ffffffffffffffffffffffffffffffffffffffff160217905550808273ffffffffffffffffffffffffffffffffffffffff16611b4c83610ed0565b73ffffffffffffffffffffffffffffffffffffffff167f8c5be1e5ebec7d5bd14f71427d1e84f3dd0314c0f7b2291e5b200ac8c7c3b92560405160405180910390a45050565b6000611b9d82611a65565b611bdc576040517f08c379a0000000000000000000000000000000000000000000000000000000008152600401611bd390613d1c565b60405180910390fd5b6000611be783610ed0565b90508073ffffffffffffffffffffffffffffffffffffffff168473ffffffffffffffffffffffffffffffffffffffff161480611c5657508373ffffffffffffffffffffffffffffffffffffffff16611c3e846108c0565b73ffffffffffffffffffffffffffffffffffffffff16145b80611c675750611c6681856117d2565b5b91505092915050565b8273ffffffffffffffffffffffffffffffffffffffff16611c9082610ed0565b73ffffffffffffffffffffffffffffffffffffffff1614611ce6576040517f08c379a0000000000000000000000000000000000000000000000000000000008152600401611cdd90613dfc565b60405180910390fd5b600073ffffffffffffffffffffffffffffffffffffffff168273ffffffffffffffffffffffffffffffffffffffff161415611d56576040517f08c379a0000000000000000000000000000000000000000000000000000000008152600401611d4d90613cbc565b60405180910390fd5b611d6183838361235c565b611d6c600082611ad9565b6001600360008573ffffffffffffffffffffffffffffffffffffffff1673ffffffffffffffffffffffffffffffffffffffff1681526020019081526020016000206000828254611dbc91906140ac565b925050819055506001600360008473ffffffffffffffffffffffffffffffffffffffff1673ffffffffffffffffffffffffffffffffffffffff1681526020019081526020016000206000828254611e139190613fcb565b92505081905550816002600083815260200190815260200160002060006101000a81548173ffffffffffffffffffffffffffffffffffffffff021916908373ffffffffffffffffffffffffffffffffffffffff160217905550808273ffffffffffffffffffffffffffffffffffffffff168473ffffffffffffffffffffffffffffffffffffffff167fddf252ad1be2c89b69c2b068fc378daa952ba7f163c4a11628f55a4df523b3ef60405160405180910390a4505050565b6000600a60009054906101000a900473ffffffffffffffffffffffffffffffffffffffff16905081600a60006101000a81548173ffffffffffffffffffffffffffffffffffffffff021916908373ffffffffffffffffffffffffffffffffffffffff1602179055508173ffffffffffffffffffffffffffffffffffffffff168173ffffffffffffffffffffffffffffffffffffffff167f8be0079c531659141344cd1fd0a4f28419497f9722a3daafe3b4186f6b6457e060405160405180910390a35050565b60005b81811015611fe6576000611fa7610af3565b9050600c54611fb4610af3565b1015611fd257611fd133826101f4611fcc9190613fcb565b611fea565b5b508080611fde906141c8565b915050611f95565b5050565b612004828260405180602001604052806000815250612470565b5050565b612013848484611c70565b61201f848484846124cb565b61205e576040517f08c379a000000000000000000000000000000000000000000000000000000000815260040161205590613c5c565b60405180910390fd5b50505050565b61206e3382611b92565b61207757600080fd5b61208081611a65565b61208957600080fd5b3373ffffffffffffffffffffffffffffffffffffffff166120a982610ed0565b73ffffffffffffffffffffffffffffffffffffffff1614816040516020016120d19190613b52565b60405160208183030381529060405290612121576040517f08c379a00000000000000000000000000000000000000000000000000000000081526004016121189190613bfa565b60405180910390fd5b5061212b81612662565b50565b606060405180602001604052806000815250905090565b6060600082141561218d576040518060400160405280600181526020017f300000000000000000000000000000000000000000000000000000000000000081525090506122ed565b600082905060005b600082146121bf5780806121a8906141c8565b915050600a826121b89190614021565b9150612195565b60008167ffffffffffffffff811115612201577f4e487b7100000000000000000000000000000000000000000000000000000000600052604160045260246000fd5b6040519080825280601f01601f1916602001820160405280156122335781602001600182028036833780820191505090505b5090505b600085146122e65760018261224c91906140ac565b9150600a8561225b919061421b565b60306122679190613fcb565b60f81b8183815181106122a3577f4e487b7100000000000000000000000000000000000000000000000000000000600052603260045260246000fd5b60200101907effffffffffffffffffffffffffffffffffffffffffffffffffffffffffffff1916908160001a905350600a856122df9190614021565b9450612237565b8093505050505b919050565b60007f01ffc9a7000000000000000000000000000000000000000000000000000000007bffffffffffffffffffffffffffffffffffffffffffffffffffffffff1916827bffffffffffffffffffffffffffffffffffffffffffffffffffffffff1916149050919050565b612367838383612773565b600073ffffffffffffffffffffffffffffffffffffffff168373ffffffffffffffffffffffffffffffffffffffff1614156123aa576123a581612778565b6123e9565b8173ffffffffffffffffffffffffffffffffffffffff168373ffffffffffffffffffffffffffffffffffffffff16146123e8576123e783826127c1565b5b5b600073ffffffffffffffffffffffffffffffffffffffff168273ffffffffffffffffffffffffffffffffffffffff16141561242c576124278161292e565b61246b565b8273ffffffffffffffffffffffffffffffffffffffff168273ffffffffffffffffffffffffffffffffffffffff161461246a576124698282612a71565b5b5b505050565b61247a8383612af0565b61248760008484846124cb565b6124c6576040517f08c379a00000000000000000000000000000000000000000000000000000000081526004016124bd90613c5c565b60405180910390fd5b505050565b60006124ec8473ffffffffffffffffffffffffffffffffffffffff16612cbe565b15612655578373ffffffffffffffffffffffffffffffffffffffff1663150b7a02612515611ad1565b8786866040518563ffffffff1660e01b81526004016125379493929190613b93565b602060405180830381600087803b15801561255157600080fd5b505af192505050801561258257506040513d601f19601f8201168201806040525081019061257f919061310c565b60015b612605573d80600081146125b2576040519150601f19603f3d011682016040523d82523d6000602084013e6125b7565b606091505b506000815114156125fd576040517f08c379a00000000000000000000000000000000000000000000000000000000081526004016125f490613c5c565b60405180910390fd5b805181602001fd5b63150b7a0260e01b7bffffffffffffffffffffffffffffffffffffffffffffffffffffffff1916817bffffffffffffffffffffffffffffffffffffffffffffffffffffffff19161491505061265a565b600190505b949350505050565b600061266d82610ed0565b905061267b8160008461235c565b612686600083611ad9565b6001600360008373ffffffffffffffffffffffffffffffffffffffff1673ffffffffffffffffffffffffffffffffffffffff16815260200190815260200160002060008282546126d691906140ac565b925050819055506002600083815260200190815260200160002060006101000a81549073ffffffffffffffffffffffffffffffffffffffff021916905581600073ffffffffffffffffffffffffffffffffffffffff168273ffffffffffffffffffffffffffffffffffffffff167fddf252ad1be2c89b69c2b068fc378daa952ba7f163c4a11628f55a4df523b3ef60405160405180910390a45050565b505050565b6008805490506009600083815260200190815260200160002081905550600881908060018154018082558091505060019003906000526020600020016000909190919091505550565b600060016127ce84610f87565b6127d891906140ac565b90506000600760008481526020019081526020016000205490508181146128bd576000600660008673ffffffffffffffffffffffffffffffffffffffff1673ffffffffffffffffffffffffffffffffffffffff168152602001908152602001600020600084815260200190815260200160002054905080600660008773ffffffffffffffffffffffffffffffffffffffff1673ffffffffffffffffffffffffffffffffffffffff168152602001908152602001600020600084815260200190815260200160002081905550816007600083815260200190815260200160002081905550505b6007600084815260200190815260200160002060009055600660008573ffffffffffffffffffffffffffffffffffffffff1673ffffffffffffffffffffffffffffffffffffffff16815260200190815260200160002060008381526020019081526020016000206000905550505050565b6000600160088054905061294291906140ac565b9050600060096000848152602001908152602001600020549050600060088381548110612998577f4e487b7100000000000000000000000000000000000000000000000000000000600052603260045260246000fd5b9060005260206000200154905080600883815481106129e0577f4e487b7100000000000000000000000000000000000000000000000000000000600052603260045260246000fd5b906000526020600020018190555081600960008381526020019081526020016000208190555060096000858152602001908152602001600020600090556008805480612a55577f4e487b7100000000000000000000000000000000000000000000000000000000600052603160045260246000fd5b6001900381819060005260206000200160009055905550505050565b6000612a7c83610f87565b905081600660008573ffffffffffffffffffffffffffffffffffffffff1673ffffffffffffffffffffffffffffffffffffffff168152602001908152602001600020600083815260200190815260200160002081905550806007600084815260200190815260200160002081905550505050565b600073ffffffffffffffffffffffffffffffffffffffff168273ffffffffffffffffffffffffffffffffffffffff161415612b60576040517f08c379a0000000000000000000000000000000000000000000000000000000008152600401612b5790613d9c565b60405180910390fd5b612b6981611a65565b15612ba9576040517f08c379a0000000000000000000000000000000000000000000000000000000008152600401612ba090613c9c565b60405180910390fd5b612bb56000838361235c565b6001600360008473ffffffffffffffffffffffffffffffffffffffff1673ffffffffffffffffffffffffffffffffffffffff1681526020019081526020016000206000828254612c059190613fcb565b92505081905550816002600083815260200190815260200160002060006101000a81548173ffffffffffffffffffffffffffffffffffffffff021916908373ffffffffffffffffffffffffffffffffffffffff160217905550808273ffffffffffffffffffffffffffffffffffffffff16600073ffffffffffffffffffffffffffffffffffffffff167fddf252ad1be2c89b69c2b068fc378daa952ba7f163c4a11628f55a4df523b3ef60405160405180910390a45050565b600080823b905060008111915050919050565b828054612cdd90614196565b90600052602060002090601f016020900481019282612cff5760008555612d46565b82601f10612d1857805160ff1916838001178555612d46565b82800160010185558215612d46579182015b82811115612d45578251825591602001919060010190612d2a565b5b509050612d539190612d57565b5090565b5b80821115612d70576000816000905550600101612d58565b5090565b6000612d87612d8284613f28565b613ef7565b905082815260208101848484011115612d9f57600080fd5b612daa848285614154565b509392505050565b6000612dc5612dc084613f58565b613ef7565b905082815260208101848484011115612ddd57600080fd5b612de8848285614154565b509392505050565b600081359050612dff81614319565b92915050565b60008083601f840112612e1757600080fd5b8235905067ffffffffffffffff811115612e3057600080fd5b602083019150836020820283011115612e4857600080fd5b9250929050565b600081359050612e5e81614330565b92915050565b600081359050612e7381614347565b92915050565b600081519050612e8881614347565b92915050565b600082601f830112612e9f57600080fd5b8135612eaf848260208601612d74565b91505092915050565b600082601f830112612ec957600080fd5b8135612ed9848260208601612db2565b91505092915050565b600081359050612ef18161435e565b92915050565b600060208284031215612f0957600080fd5b6000612f1784828501612df0565b91505092915050565b60008060408385031215612f3357600080fd5b6000612f4185828601612df0565b9250506020612f5285828601612df0565b9150509250929050565b600080600060608486031215612f7157600080fd5b6000612f7f86828701612df0565b9350506020612f9086828701612df0565b9250506040612fa186828701612ee2565b9150509250925092565b60008060008060808587031215612fc157600080fd5b6000612fcf87828801612df0565b9450506020612fe087828801612df0565b9350506040612ff187828801612ee2565b925050606085013567ffffffffffffffff81111561300e57600080fd5b61301a87828801612e8e565b91505092959194509250565b6000806040838503121561303957600080fd5b600061304785828601612df0565b925050602061305885828601612e4f565b9150509250929050565b6000806040838503121561307557600080fd5b600061308385828601612df0565b925050602061309485828601612ee2565b9150509250929050565b600080602083850312156130b157600080fd5b600083013567ffffffffffffffff8111156130cb57600080fd5b6130d785828601612e05565b92509250509250929050565b6000602082840312156130f557600080fd5b600061310384828501612e64565b91505092915050565b60006020828403121561311e57600080fd5b600061312c84828501612e79565b91505092915050565b60006020828403121561314757600080fd5b600082013567ffffffffffffffff81111561316157600080fd5b61316d84828501612eb8565b91505092915050565b60006020828403121561318857600080fd5b600061319684828501612ee2565b91505092915050565b600080604083850312156131b257600080fd5b60006131c085828601612ee2565b92505060206131d185828601612ee2565b9150509250929050565b6131e4816140e0565b82525050565b6131f3816140f2565b82525050565b600061320482613f88565b61320e8185613f9e565b935061321e818560208601614163565b61322781614308565b840191505092915050565b600061323d82613f93565b6132478185613faf565b9350613257818560208601614163565b61326081614308565b840191505092915050565b600061327682613f93565b6132808185613fc0565b9350613290818560208601614163565b80840191505092915050565b60006132a9602383613faf565b91507f53616c65206d7573742062652061637469766520746f206d696e74204661744860008301527f65616400000000000000000000000000000000000000000000000000000000006020830152604082019050919050565b600061330f602b83613faf565b91507f455243373231456e756d657261626c653a206f776e657220696e646578206f7560008301527f74206f6620626f756e64730000000000000000000000000000000000000000006020830152604082019050919050565b6000613375603283613faf565b91507f4552433732313a207472616e7366657220746f206e6f6e20455243373231526560008301527f63656976657220696d706c656d656e74657200000000000000000000000000006020830152604082019050919050565b60006133db602583613fc0565b91507f4552433732313a2053656e64657220646f6573206e6f74206f776e20546f6b6560008301527f6e49643a200000000000000000000000000000000000000000000000000000006020830152602582019050919050565b6000613441602683613faf565b91507f4f776e61626c653a206e6577206f776e657220697320746865207a65726f206160008301527f64647265737300000000000000000000000000000000000000000000000000006020830152604082019050919050565b60006134a7601c83613faf565b91507f4552433732313a20746f6b656e20616c7265616479206d696e746564000000006000830152602082019050919050565b60006134e7602483613faf565b91507f4552433732313a207472616e7366657220746f20746865207a65726f2061646460008301527f72657373000000000000000000000000000000000000000000000000000000006020830152604082019050919050565b600061354d601983613faf565b91507f4552433732313a20617070726f766520746f2063616c6c6572000000000000006000830152602082019050919050565b600061358d601f83613faf565b91507f45746865722076616c75652073656e74206973206e6f7420636f7272656374006000830152602082019050919050565b60006135cd602c83613faf565b91507f4552433732313a206f70657261746f7220717565727920666f72206e6f6e657860008301527f697374656e7420746f6b656e00000000000000000000000000000000000000006020830152604082019050919050565b6000613633603883613faf565b91507f4552433732313a20617070726f76652063616c6c6572206973206e6f74206f7760008301527f6e6572206e6f7220617070726f76656420666f7220616c6c00000000000000006020830152604082019050919050565b6000613699602a83613faf565b91507f4552433732313a2062616c616e636520717565727920666f7220746865207a6560008301527f726f2061646472657373000000000000000000000000000000000000000000006020830152604082019050919050565b60006136ff602983613faf565b91507f4552433732313a206f776e657220717565727920666f72206e6f6e657869737460008301527f656e7420746f6b656e00000000000000000000000000000000000000000000006020830152604082019050919050565b6000613765602083613faf565b91507f4552433732313a206d696e7420746f20746865207a65726f20616464726573736000830152602082019050919050565b60006137a5602c83613faf565b91507f4552433732313a20617070726f76656420717565727920666f72206e6f6e657860008301527f697374656e7420746f6b656e00000000000000000000000000000000000000006020830152604082019050919050565b600061380b602083613faf565b91507f4f776e61626c653a2063616c6c6572206973206e6f7420746865206f776e65726000830152602082019050919050565b600061384b602983613faf565b91507f4552433732313a207472616e73666572206f6620746f6b656e2074686174206960008301527f73206e6f74206f776e00000000000000000000000000000000000000000000006020830152604082019050919050565b60006138b1602f83613faf565b91507f4552433732314d657461646174613a2055524920717565727920666f72206e6f60008301527f6e6578697374656e7420746f6b656e00000000000000000000000000000000006020830152604082019050919050565b6000613917602183613faf565b91507f4552433732313a20617070726f76616c20746f2063757272656e74206f776e6560008301527f72000000000000000000000000000000000000000000000000000000000000006020830152604082019050919050565b600061397d603183613faf565b91507f4552433732313a207472616e736665722063616c6c6572206973206e6f74206f60008301527f776e6572206e6f7220617070726f7665640000000000000000000000000000006020830152604082019050919050565b60006139e3602c83613faf565b91507f455243373231456e756d657261626c653a20676c6f62616c20696e646578206f60008301527f7574206f6620626f756e647300000000000000000000000000000000000000006020830152604082019050919050565b6000613a49602b83613faf565b91507f507572636861736520776f756c6420657863656564206d617820737570706c7960008301527f206f6620466174486561640000000000000000000000000000000000000000006020830152604082019050919050565b6000613aaf602183613faf565b91507f43616e206f6e6c79206d696e7420313020746f6b656e7320617420612074696d60008301527f65000000000000000000000000000000000000000000000000000000000000006020830152604082019050919050565b613b118161414a565b82525050565b613b28613b238261414a565b614211565b82525050565b6000613b3a828561326b565b9150613b46828461326b565b91508190509392505050565b6000613b5d826133ce565b9150613b698284613b17565b60208201915081905092915050565b6000602082019050613b8d60008301846131db565b92915050565b6000608082019050613ba860008301876131db565b613bb560208301866131db565b613bc26040830185613b08565b8181036060830152613bd481846131f9565b905095945050505050565b6000602082019050613bf460008301846131ea565b92915050565b60006020820190508181036000830152613c148184613232565b905092915050565b60006020820190508181036000830152613c358161329c565b9050919050565b60006020820190508181036000830152613c5581613302565b9050919050565b60006020820190508181036000830152613c7581613368565b9050919050565b60006020820190508181036000830152613c9581613434565b9050919050565b60006020820190508181036000830152613cb58161349a565b9050919050565b60006020820190508181036000830152613cd5816134da565b9050919050565b60006020820190508181036000830152613cf581613540565b9050919050565b60006020820190508181036000830152613d1581613580565b9050919050565b60006020820190508181036000830152613d35816135c0565b9050919050565b60006020820190508181036000830152613d5581613626565b9050919050565b60006020820190508181036000830152613d758161368c565b9050919050565b60006020820190508181036000830152613d95816136f2565b9050919050565b60006020820190508181036000830152613db581613758565b9050919050565b60006020820190508181036000830152613dd581613798565b9050919050565b60006020820190508181036000830152613df5816137fe565b9050919050565b60006020820190508181036000830152613e158161383e565b9050919050565b60006020820190508181036000830152613e35816138a4565b9050919050565b60006020820190508181036000830152613e558161390a565b9050919050565b60006020820190508181036000830152613e7581613970565b9050919050565b60006020820190508181036000830152613e95816139d6565b9050919050565b60006020820190508181036000830152613eb581613a3c565b9050919050565b60006020820190508181036000830152613ed581613aa2565b9050919050565b6000602082019050613ef16000830184613b08565b92915050565b6000604051905081810181811067ffffffffffffffff82111715613f1e57613f1d6142d9565b5b8060405250919050565b600067ffffffffffffffff821115613f4357613f426142d9565b5b601f19601f8301169050602081019050919050565b600067ffffffffffffffff821115613f7357613f726142d9565b5b601f19601f8301169050602081019050919050565b600081519050919050565b600081519050919050565b600082825260208201905092915050565b600082825260208201905092915050565b600081905092915050565b6000613fd68261414a565b9150613fe18361414a565b9250827fffffffffffffffffffffffffffffffffffffffffffffffffffffffffffffffff038211156140165761401561424c565b5b828201905092915050565b600061402c8261414a565b91506140378361414a565b9250826140475761404661427b565b5b828204905092915050565b600061405d8261414a565b91506140688361414a565b9250817fffffffffffffffffffffffffffffffffffffffffffffffffffffffffffffffff04831182151516156140a1576140a061424c565b5b828202905092915050565b60006140b78261414a565b91506140c28361414a565b9250828210156140d5576140d461424c565b5b828203905092915050565b60006140eb8261412a565b9050919050565b60008115159050919050565b60007fffffffff0000000000000000000000000000000000000000000000000000000082169050919050565b600073ffffffffffffffffffffffffffffffffffffffff82169050919050565b6000819050919050565b82818337600083830152505050565b60005b83811015614181578082015181840152602081019050614166565b83811115614190576000848401525b50505050565b600060028204905060018216806141ae57607f821691505b602082108114156141c2576141c16142aa565b5b50919050565b60006141d38261414a565b91507fffffffffffffffffffffffffffffffffffffffffffffffffffffffffffffffff8214156142065761420561424c565b5b600182019050919050565b6000819050919050565b60006142268261414a565b91506142318361414a565b9250826142415761424061427b565b5b828206905092915050565b7f4e487b7100000000000000000000000000000000000000000000000000000000600052601160045260246000fd5b7f4e487b7100000000000000000000000000000000000000000000000000000000600052601260045260246000fd5b7f4e487b7100000000000000000000000000000000000000000000000000000000600052602260045260246000fd5b7f4e487b7100000000000000000000000000000000000000000000000000000000600052604160045260246000fd5b6000601f19601f8301169050919050565b614322816140e0565b811461432d57600080fd5b50565b614339816140f2565b811461434457600080fd5b50565b614350816140fe565b811461435b57600080fd5b50565b6143678161414a565b811461437257600080fd5b5056fea2646970667358221220bfe3f4ab45cfaeaa2f054cab2bba0e382f3d8216b6a70200c7c347819b63232964736f6c63430008000033",
  "devdoc": {
    "details": "Extends ERC721 Non-Fungible Token Standard basic implementation",
    "kind": "dev",
    "methods": {
      "approve(address,uint256)": {
        "details": "See {IERC721-approve}."
      },
      "balanceOf(address)": {
        "details": "See {IERC721-balanceOf}."
      },
      "getApproved(uint256)": {
        "details": "See {IERC721-getApproved}."
      },
      "isApprovedForAll(address,address)": {
        "details": "See {IERC721-isApprovedForAll}."
      },
      "name()": {
        "details": "See {IERC721Metadata-name}."
      },
      "owner()": {
        "details": "Returns the address of the current owner."
      },
      "ownerOf(uint256)": {
        "details": "See {IERC721-ownerOf}."
      },
      "renounceOwnership()": {
        "details": "Leaves the contract without owner. It will not be possible to call `onlyOwner` functions anymore. Can only be called by the current owner. NOTE: Renouncing ownership will leave the contract without an owner, thereby removing any functionality that is only available to the owner."
      },
      "safeTransferFrom(address,address,uint256)": {
        "details": "See {IERC721-safeTransferFrom}."
      },
      "safeTransferFrom(address,address,uint256,bytes)": {
        "details": "See {IERC721-safeTransferFrom}."
      },
      "setApprovalForAll(address,bool)": {
        "details": "See {IERC721-setApprovalForAll}."
      },
      "supportsInterface(bytes4)": {
        "details": "See {IERC165-supportsInterface}."
      },
      "symbol()": {
        "details": "See {IERC721Metadata-symbol}."
      },
      "tokenByIndex(uint256)": {
        "details": "See {IERC721Enumerable-tokenByIndex}."
      },
      "tokenOfOwnerByIndex(address,uint256)": {
        "details": "See {IERC721Enumerable-tokenOfOwnerByIndex}."
      },
      "tokenURI(uint256)": {
        "details": "See {IERC721Metadata-tokenURI}."
      },
      "totalSupply()": {
        "details": "See {IERC721Enumerable-totalSupply}."
      },
      "transferFrom(address,address,uint256)": {
        "details": "See {IERC721-transferFrom}."
      },
      "transferOwnership(address)": {
        "details": "Transfers ownership of the contract to a new account (`newOwner`). Can only be called by the current owner."
      }
    },
    "title": "FatHeadCryptoDeath contract",
    "version": 1
  },
  "userdoc": {
    "kind": "user",
    "methods": {
      "mintFatHead(uint256)": {
        "notice": "Mints FatHead"
      },
      "reserveFatHead(uint256)": {
        "notice": "Set some FatHead aside"
      }
    },
    "version": 1
  },
  "storageLayout": {
    "storage": [
      {
        "astId": 129,
        "contract": "contracts/FatHeadCryptoDeath.sol:FatHeadCryptoDeath",
        "label": "_name",
        "offset": 0,
        "slot": "0",
        "type": "t_string_storage"
      },
      {
        "astId": 131,
        "contract": "contracts/FatHeadCryptoDeath.sol:FatHeadCryptoDeath",
        "label": "_symbol",
        "offset": 0,
        "slot": "1",
        "type": "t_string_storage"
      },
      {
        "astId": 135,
        "contract": "contracts/FatHeadCryptoDeath.sol:FatHeadCryptoDeath",
        "label": "_owners",
        "offset": 0,
        "slot": "2",
        "type": "t_mapping(t_uint256,t_address)"
      },
      {
        "astId": 139,
        "contract": "contracts/FatHeadCryptoDeath.sol:FatHeadCryptoDeath",
        "label": "_balances",
        "offset": 0,
        "slot": "3",
        "type": "t_mapping(t_address,t_uint256)"
      },
      {
        "astId": 143,
        "contract": "contracts/FatHeadCryptoDeath.sol:FatHeadCryptoDeath",
        "label": "_tokenApprovals",
        "offset": 0,
        "slot": "4",
        "type": "t_mapping(t_uint256,t_address)"
      },
      {
        "astId": 149,
        "contract": "contracts/FatHeadCryptoDeath.sol:FatHeadCryptoDeath",
        "label": "_operatorApprovals",
        "offset": 0,
        "slot": "5",
        "type": "t_mapping(t_address,t_mapping(t_address,t_bool))"
      },
      {
        "astId": 1068,
        "contract": "contracts/FatHeadCryptoDeath.sol:FatHeadCryptoDeath",
        "label": "_ownedTokens",
        "offset": 0,
        "slot": "6",
        "type": "t_mapping(t_address,t_mapping(t_uint256,t_uint256))"
      },
      {
        "astId": 1072,
        "contract": "contracts/FatHeadCryptoDeath.sol:FatHeadCryptoDeath",
        "label": "_ownedTokensIndex",
        "offset": 0,
        "slot": "7",
        "type": "t_mapping(t_uint256,t_uint256)"
      },
      {
        "astId": 1075,
        "contract": "contracts/FatHeadCryptoDeath.sol:FatHeadCryptoDeath",
        "label": "_allTokens",
        "offset": 0,
        "slot": "8",
        "type": "t_array(t_uint256)dyn_storage"
      },
      {
        "astId": 1079,
        "contract": "contracts/FatHeadCryptoDeath.sol:FatHeadCryptoDeath",
        "label": "_allTokensIndex",
        "offset": 0,
        "slot": "9",
        "type": "t_mapping(t_uint256,t_uint256)"
      },
      {
        "astId": 7,
        "contract": "contracts/FatHeadCryptoDeath.sol:FatHeadCryptoDeath",
        "label": "_owner",
        "offset": 0,
        "slot": "10",
        "type": "t_address"
      },
      {
        "astId": 2019,
        "contract": "contracts/FatHeadCryptoDeath.sol:FatHeadCryptoDeath",
        "label": "FatHead_PROVENANCE",
        "offset": 0,
        "slot": "11",
        "type": "t_string_storage"
      },
      {
        "astId": 2027,
        "contract": "contracts/FatHeadCryptoDeath.sol:FatHeadCryptoDeath",
        "label": "MAX_FatHead",
        "offset": 0,
        "slot": "12",
        "type": "t_uint256"
      },
      {
        "astId": 2030,
        "contract": "contracts/FatHeadCryptoDeath.sol:FatHeadCryptoDeath",
        "label": "saleIsActive",
        "offset": 0,
        "slot": "13",
        "type": "t_bool"
      },
      {
        "astId": 2033,
        "contract": "contracts/FatHeadCryptoDeath.sol:FatHeadCryptoDeath",
        "label": "customfatHeadMinted",
        "offset": 1,
        "slot": "13",
        "type": "t_bool"
      },
      {
        "astId": 2037,
        "contract": "contracts/FatHeadCryptoDeath.sol:FatHeadCryptoDeath",
        "label": "whitelisted",
        "offset": 0,
        "slot": "14",
        "type": "t_mapping(t_address,t_bool)"
      },
      {
        "astId": 2041,
        "contract": "contracts/FatHeadCryptoDeath.sol:FatHeadCryptoDeath",
        "label": "minted",
        "offset": 0,
        "slot": "15",
        "type": "t_mapping(t_address,t_bool)"
      }
    ],
    "types": {
      "t_address": {
        "encoding": "inplace",
        "label": "address",
        "numberOfBytes": "20"
      },
      "t_array(t_uint256)dyn_storage": {
        "base": "t_uint256",
        "encoding": "dynamic_array",
        "label": "uint256[]",
        "numberOfBytes": "32"
      },
      "t_bool": {
        "encoding": "inplace",
        "label": "bool",
        "numberOfBytes": "1"
      },
      "t_mapping(t_address,t_bool)": {
        "encoding": "mapping",
        "key": "t_address",
        "label": "mapping(address => bool)",
        "numberOfBytes": "32",
        "value": "t_bool"
      },
      "t_mapping(t_address,t_mapping(t_address,t_bool))": {
        "encoding": "mapping",
        "key": "t_address",
        "label": "mapping(address => mapping(address => bool))",
        "numberOfBytes": "32",
        "value": "t_mapping(t_address,t_bool)"
      },
      "t_mapping(t_address,t_mapping(t_uint256,t_uint256))": {
        "encoding": "mapping",
        "key": "t_address",
        "label": "mapping(address => mapping(uint256 => uint256))",
        "numberOfBytes": "32",
        "value": "t_mapping(t_uint256,t_uint256)"
      },
      "t_mapping(t_address,t_uint256)": {
        "encoding": "mapping",
        "key": "t_address",
        "label": "mapping(address => uint256)",
        "numberOfBytes": "32",
        "value": "t_uint256"
      },
      "t_mapping(t_uint256,t_address)": {
        "encoding": "mapping",
        "key": "t_uint256",
        "label": "mapping(uint256 => address)",
        "numberOfBytes": "32",
        "value": "t_address"
      },
      "t_mapping(t_uint256,t_uint256)": {
        "encoding": "mapping",
        "key": "t_uint256",
        "label": "mapping(uint256 => uint256)",
        "numberOfBytes": "32",
        "value": "t_uint256"
      },
      "t_string_storage": {
        "encoding": "bytes",
        "label": "string",
        "numberOfBytes": "32"
      },
      "t_uint256": {
        "encoding": "inplace",
        "label": "uint256",
        "numberOfBytes": "32"
      }
    }
  }
}