{
  "address": "0x9fE46736679d2D9a65F0992F2272dE9f3c7fa6e0",
  "abi": [
    {
      "inputs": [],
      "stateMutability": "nonpayable",
      "type": "constructor"
    },
    {
      "anonymous": false,
      "inputs": [
        {
          "indexed": true,
          "internalType": "address",
          "name": "owner",
          "type": "address"
        },
        {
          "indexed": true,
          "internalType": "address",
          "name": "approved",
          "type": "address"
        },
        {
          "indexed": true,
          "internalType": "uint256",
          "name": "tokenId",
          "type": "uint256"
        }
      ],
      "name": "Approval",
      "type": "event"
    },
    {
      "anonymous": false,
      "inputs": [
        {
          "indexed": true,
          "internalType": "address",
          "name": "owner",
          "type": "address"
        },
        {
          "indexed": true,
          "internalType": "address",
          "name": "operator",
          "type": "address"
        },
        {
          "indexed": false,
          "internalType": "bool",
          "name": "approved",
          "type": "bool"
        }
      ],
      "name": "ApprovalForAll",
      "type": "event"
    },
    {
      "anonymous": false,
      "inputs": [
        {
          "indexed": true,
          "internalType": "uint256",
          "name": "tokenId",
          "type": "uint256"
        },
        {
          "indexed": false,
          "internalType": "string",
          "name": "tokenURI",
          "type": "string"
        }
      ],
      "name": "CreatedAIBanner",
      "type": "event"
    },
    {
      "anonymous": false,
      "inputs": [
        {
          "indexed": true,
          "internalType": "address",
          "name": "previousOwner",
          "type": "address"
        },
        {
          "indexed": true,
          "internalType": "address",
          "name": "newOwner",
          "type": "address"
        }
      ],
      "name": "OwnershipTransferred",
      "type": "event"
    },
    {
      "anonymous": false,
      "inputs": [
        {
          "indexed": true,
          "internalType": "address",
          "name": "from",
          "type": "address"
        },
        {
          "indexed": true,
          "internalType": "address",
          "name": "to",
          "type": "address"
        },
        {
          "indexed": true,
          "internalType": "uint256",
          "name": "tokenId",
          "type": "uint256"
        }
      ],
      "name": "Transfer",
      "type": "event"
    },
    {
      "inputs": [],
      "name": "MAX_Tokens",
      "outputs": [
        {
          "internalType": "uint256",
          "name": "",
          "type": "uint256"
        }
      ],
      "stateMutability": "view",
      "type": "function"
    },
    {
      "inputs": [
        {
          "internalType": "address",
          "name": "to",
          "type": "address"
        },
        {
          "internalType": "uint256",
          "name": "tokenId",
          "type": "uint256"
        }
      ],
      "name": "approve",
      "outputs": [],
      "stateMutability": "nonpayable",
      "type": "function"
    },
    {
      "inputs": [
        {
          "internalType": "address",
          "name": "owner",
          "type": "address"
        }
      ],
      "name": "balanceOf",
      "outputs": [
        {
          "internalType": "uint256",
          "name": "",
          "type": "uint256"
        }
      ],
      "stateMutability": "view",
      "type": "function"
    },
    {
      "inputs": [],
      "name": "flipSaleState",
      "outputs": [],
      "stateMutability": "nonpayable",
      "type": "function"
    },
    {
      "inputs": [
        {
          "internalType": "uint256",
          "name": "tokenId",
          "type": "uint256"
        }
      ],
      "name": "getApproved",
      "outputs": [
        {
          "internalType": "address",
          "name": "",
          "type": "address"
        }
      ],
      "stateMutability": "view",
      "type": "function"
    },
    {
      "inputs": [
        {
          "internalType": "address",
          "name": "owner",
          "type": "address"
        },
        {
          "internalType": "address",
          "name": "operator",
          "type": "address"
        }
      ],
      "name": "isApprovedForAll",
      "outputs": [
        {
          "internalType": "bool",
          "name": "",
          "type": "bool"
        }
      ],
      "stateMutability": "view",
      "type": "function"
    },
    {
      "inputs": [
        {
          "internalType": "string",
          "name": "imageURI",
          "type": "string"
        },
        {
          "internalType": "string[]",
          "name": "attributeArr",
          "type": "string[]"
        }
      ],
      "name": "mintBanner",
      "outputs": [],
      "stateMutability": "payable",
      "type": "function"
    },
    {
      "inputs": [],
      "name": "name",
      "outputs": [
        {
          "internalType": "string",
          "name": "",
          "type": "string"
        }
      ],
      "stateMutability": "view",
      "type": "function"
    },
    {
      "inputs": [],
      "name": "owner",
      "outputs": [
        {
          "internalType": "address",
          "name": "",
          "type": "address"
        }
      ],
      "stateMutability": "view",
      "type": "function"
    },
    {
      "inputs": [
        {
          "internalType": "uint256",
          "name": "tokenId",
          "type": "uint256"
        }
      ],
      "name": "ownerOf",
      "outputs": [
        {
          "internalType": "address",
          "name": "",
          "type": "address"
        }
      ],
      "stateMutability": "view",
      "type": "function"
    },
    {
      "inputs": [],
      "name": "price",
      "outputs": [
        {
          "internalType": "uint256",
          "name": "",
          "type": "uint256"
        }
      ],
      "stateMutability": "view",
      "type": "function"
    },
    {
      "inputs": [],
      "name": "renounceOwnership",
      "outputs": [],
      "stateMutability": "nonpayable",
      "type": "function"
    },
    {
      "inputs": [
        {
          "internalType": "address",
          "name": "from",
          "type": "address"
        },
        {
          "internalType": "address",
          "name": "to",
          "type": "address"
        },
        {
          "internalType": "uint256",
          "name": "tokenId",
          "type": "uint256"
        }
      ],
      "name": "safeTransferFrom",
      "outputs": [],
      "stateMutability": "nonpayable",
      "type": "function"
    },
    {
      "inputs": [
        {
          "internalType": "address",
          "name": "from",
          "type": "address"
        },
        {
          "internalType": "address",
          "name": "to",
          "type": "address"
        },
        {
          "internalType": "uint256",
          "name": "tokenId",
          "type": "uint256"
        },
        {
          "internalType": "bytes",
          "name": "_data",
          "type": "bytes"
        }
      ],
      "name": "safeTransferFrom",
      "outputs": [],
      "stateMutability": "nonpayable",
      "type": "function"
    },
    {
      "inputs": [],
      "name": "saleIsActive",
      "outputs": [
        {
          "internalType": "bool",
          "name": "",
          "type": "bool"
        }
      ],
      "stateMutability": "view",
      "type": "function"
    },
    {
      "inputs": [
        {
          "internalType": "address",
          "name": "operator",
          "type": "address"
        },
        {
          "internalType": "bool",
          "name": "approved",
          "type": "bool"
        }
      ],
      "name": "setApprovalForAll",
      "outputs": [],
      "stateMutability": "nonpayable",
      "type": "function"
    },
    {
      "inputs": [
        {
          "internalType": "bytes4",
          "name": "interfaceId",
          "type": "bytes4"
        }
      ],
      "name": "supportsInterface",
      "outputs": [
        {
          "internalType": "bool",
          "name": "",
          "type": "bool"
        }
      ],
      "stateMutability": "view",
      "type": "function"
    },
    {
      "inputs": [],
      "name": "symbol",
      "outputs": [
        {
          "internalType": "string",
          "name": "",
          "type": "string"
        }
      ],
      "stateMutability": "view",
      "type": "function"
    },
    {
      "inputs": [],
      "name": "tokenCounter",
      "outputs": [
        {
          "internalType": "uint256",
          "name": "",
          "type": "uint256"
        }
      ],
      "stateMutability": "view",
      "type": "function"
    },
    {
      "inputs": [
        {
          "internalType": "uint256",
          "name": "tokenId",
          "type": "uint256"
        }
      ],
      "name": "tokenURI",
      "outputs": [
        {
          "internalType": "string",
          "name": "",
          "type": "string"
        }
      ],
      "stateMutability": "view",
      "type": "function"
    },
    {
      "inputs": [
        {
          "internalType": "address",
          "name": "from",
          "type": "address"
        },
        {
          "internalType": "address",
          "name": "to",
          "type": "address"
        },
        {
          "internalType": "uint256",
          "name": "tokenId",
          "type": "uint256"
        }
      ],
      "name": "transferFrom",
      "outputs": [],
      "stateMutability": "nonpayable",
      "type": "function"
    },
    {
      "inputs": [
        {
          "internalType": "address",
          "name": "newOwner",
          "type": "address"
        }
      ],
      "name": "transferOwnership",
      "outputs": [],
      "stateMutability": "nonpayable",
      "type": "function"
    }
  ],
  "transactionHash": "0xcccede127ae52c6cb442b3a91d88cf0cf0e6f9dfcc90014bb7a91b90d1d873d5",
  "args": [],
  "solcInputHash": "b254037e10ccd7a5003fe74f37084759",
  "bytecode": "0x60806040526000600960006101000a81548160ff0219169083151502179055503480156200002c57600080fd5b506040518060400160405280600981526020017f41492042616e6e657200000000000000000000000000000000000000000000008152506040518060400160405280600881526020017f414942616e6e65720000000000000000000000000000000000000000000000008152508160009080519060200190620000b1929190620001c9565b508060019080519060200190620000ca929190620001c9565b505050620000ed620000e1620000fb60201b60201c565b6200010360201b60201c565b6000600881905550620002de565b600033905090565b6000600760009054906101000a900473ffffffffffffffffffffffffffffffffffffffff16905081600760006101000a81548173ffffffffffffffffffffffffffffffffffffffff021916908373ffffffffffffffffffffffffffffffffffffffff1602179055508173ffffffffffffffffffffffffffffffffffffffff168173ffffffffffffffffffffffffffffffffffffffff167f8be0079c531659141344cd1fd0a4f28419497f9722a3daafe3b4186f6b6457e060405160405180910390a35050565b828054620001d79062000279565b90600052602060002090601f016020900481019282620001fb576000855562000247565b82601f106200021657805160ff191683800117855562000247565b8280016001018555821562000247579182015b828111156200024657825182559160200191906001019062000229565b5b5090506200025691906200025a565b5090565b5b80821115620002755760008160009055506001016200025b565b5090565b600060028204905060018216806200029257607f821691505b60208210811415620002a957620002a8620002af565b5b50919050565b7f4e487b7100000000000000000000000000000000000000000000000000000000600052602260045260246000fd5b613adb80620002ee6000396000f3fe6080604052600436106101355760003560e01c80638da5cb5b116100ab578063b88d4fde1161006f578063b88d4fde146103f3578063c87b56dd1461041c578063d082e38114610459578063e985e9c514610484578063eb8d2444146104c1578063f2fde38b146104ec57610135565b80638da5cb5b1461032d57806395d89b41146103585780639c78ab7814610383578063a035b1fe1461039f578063a22cb465146103ca57610135565b806334918dfd116100fd57806334918dfd1461023157806342842e0e146102485780636352211e1461027157806370a08231146102ae578063715018a6146102eb57806371de315c1461030257610135565b806301ffc9a71461013a57806306fdde0314610177578063081812fc146101a2578063095ea7b3146101df57806323b872dd14610208575b600080fd5b34801561014657600080fd5b50610161600480360381019061015c9190612671565b610515565b60405161016e91906132cd565b60405180910390f35b34801561018357600080fd5b5061018c6105f7565b60405161019991906132e8565b60405180910390f35b3480156101ae57600080fd5b506101c960048036038101906101c4919061272f565b610689565b6040516101d69190613266565b60405180910390f35b3480156101eb57600080fd5b5061020660048036038101906102019190612635565b61070e565b005b34801561021457600080fd5b5061022f600480360381019061022a919061252f565b610826565b005b34801561023d57600080fd5b50610246610886565b005b34801561025457600080fd5b5061026f600480360381019061026a919061252f565b61092e565b005b34801561027d57600080fd5b506102986004803603810190610293919061272f565b61094e565b6040516102a59190613266565b60405180910390f35b3480156102ba57600080fd5b506102d560048036038101906102d091906124ca565b610a00565b6040516102e291906135aa565b60405180910390f35b3480156102f757600080fd5b50610300610ab8565b005b34801561030e57600080fd5b50610317610b40565b60405161032491906135aa565b60405180910390f35b34801561033957600080fd5b50610342610b46565b60405161034f9190613266565b60405180910390f35b34801561036457600080fd5b5061036d610b70565b60405161037a91906132e8565b60405180910390f35b61039d600480360381019061039891906126c3565b610c02565b005b3480156103ab57600080fd5b506103b4610d68565b6040516103c191906135aa565b60405180910390f35b3480156103d657600080fd5b506103f160048036038101906103ec91906125f9565b610d74565b005b3480156103ff57600080fd5b5061041a6004803603810190610415919061257e565b610ef5565b005b34801561042857600080fd5b50610443600480360381019061043e919061272f565b610f57565b60405161045091906132e8565b60405180910390f35b34801561046557600080fd5b5061046e6110a9565b60405161047b91906135aa565b60405180910390f35b34801561049057600080fd5b506104ab60048036038101906104a691906124f3565b6110af565b6040516104b891906132cd565b60405180910390f35b3480156104cd57600080fd5b506104d6611143565b6040516104e391906132cd565b60405180910390f35b3480156104f857600080fd5b50610513600480360381019061050e91906124ca565b611156565b005b60007f80ac58cd000000000000000000000000000000000000000000000000000000007bffffffffffffffffffffffffffffffffffffffffffffffffffffffff1916827bffffffffffffffffffffffffffffffffffffffffffffffffffffffff191614806105e057507f5b5e139f000000000000000000000000000000000000000000000000000000007bffffffffffffffffffffffffffffffffffffffffffffffffffffffff1916827bffffffffffffffffffffffffffffffffffffffffffffffffffffffff1916145b806105f057506105ef8261124e565b5b9050919050565b60606000805461060690613890565b80601f016020809104026020016040519081016040528092919081815260200182805461063290613890565b801561067f5780601f106106545761010080835404028352916020019161067f565b820191906000526020600020905b81548152906001019060200180831161066257829003601f168201915b5050505050905090565b6000610694826112b8565b6106d3576040517f08c379a00000000000000000000000000000000000000000000000000000000081526004016106ca906134ca565b60405180910390fd5b6004600083815260200190815260200160002060009054906101000a900473ffffffffffffffffffffffffffffffffffffffff169050919050565b60006107198261094e565b90508073ffffffffffffffffffffffffffffffffffffffff168373ffffffffffffffffffffffffffffffffffffffff16141561078a576040517f08c379a00000000000000000000000000000000000000000000000000000000081526004016107819061356a565b60405180910390fd5b8073ffffffffffffffffffffffffffffffffffffffff166107a9611324565b73ffffffffffffffffffffffffffffffffffffffff1614806107d857506107d7816107d2611324565b6110af565b5b610817576040517f08c379a000000000000000000000000000000000000000000000000000000000815260040161080e906133ea565b60405180910390fd5b610821838361132c565b505050565b610837610831611324565b826113e5565b610876576040517f08c379a000000000000000000000000000000000000000000000000000000000815260040161086d9061358a565b60405180910390fd5b6108818383836114c3565b505050565b61088e611324565b73ffffffffffffffffffffffffffffffffffffffff166108ac610b46565b73ffffffffffffffffffffffffffffffffffffffff1614610902576040517f08c379a00000000000000000000000000000000000000000000000000000000081526004016108f9906134ea565b60405180910390fd5b600960009054906101000a900460ff1615600960006101000a81548160ff021916908315150217905550565b61094983838360405180602001604052806000815250610ef5565b505050565b6000806002600084815260200190815260200160002060009054906101000a900473ffffffffffffffffffffffffffffffffffffffff169050600073ffffffffffffffffffffffffffffffffffffffff168173ffffffffffffffffffffffffffffffffffffffff1614156109f7576040517f08c379a00000000000000000000000000000000000000000000000000000000081526004016109ee9061342a565b60405180910390fd5b80915050919050565b60008073ffffffffffffffffffffffffffffffffffffffff168273ffffffffffffffffffffffffffffffffffffffff161415610a71576040517f08c379a0000000000000000000000000000000000000000000000000000000008152600401610a689061340a565b60405180910390fd5b600360008373ffffffffffffffffffffffffffffffffffffffff1673ffffffffffffffffffffffffffffffffffffffff168152602001908152602001600020549050919050565b610ac0611324565b73ffffffffffffffffffffffffffffffffffffffff16610ade610b46565b73ffffffffffffffffffffffffffffffffffffffff1614610b34576040517f08c379a0000000000000000000000000000000000000000000000000000000008152600401610b2b906134ea565b60405180910390fd5b610b3e600061171f565b565b6122b881565b6000600760009054906101000a900473ffffffffffffffffffffffffffffffffffffffff16905090565b606060018054610b7f90613890565b80601f0160208091040260200160405190810160405280929190818152602001828054610bab90613890565b8015610bf85780601f10610bcd57610100808354040283529160200191610bf8565b820191906000526020600020905b815481529060010190602001808311610bdb57829003601f168201915b5050505050905090565b346701bc16d674ec800014610c4c576040517f08c379a0000000000000000000000000000000000000000000000000000000008152600401610c43906133aa565b60405180910390fd5b600960009054906101000a900460ff16610c9b576040517f08c379a0000000000000000000000000000000000000000000000000000000008152600401610c929061354a565b60405180910390fd5b6122b86001600854610cad91906136c5565b1115610cee576040517f08c379a0000000000000000000000000000000000000000000000000000000008152600401610ce59061346a565b60405180910390fd5b610cfa336008546117e5565b6000610d068383611803565b9050610d14600854826119a9565b6008547fe851783ba8a3c655a2dea91aa58be9db00033ae9e46b7d8b81e1ed03358f37a782604051610d4691906132e8565b60405180910390a26001600854610d5d91906136c5565b600881905550505050565b6701bc16d674ec800081565b610d7c611324565b73ffffffffffffffffffffffffffffffffffffffff168273ffffffffffffffffffffffffffffffffffffffff161415610dea576040517f08c379a0000000000000000000000000000000000000000000000000000000008152600401610de19061338a565b60405180910390fd5b8060056000610df7611324565b73ffffffffffffffffffffffffffffffffffffffff1673ffffffffffffffffffffffffffffffffffffffff16815260200190815260200160002060008473ffffffffffffffffffffffffffffffffffffffff1673ffffffffffffffffffffffffffffffffffffffff16815260200190815260200160002060006101000a81548160ff0219169083151502179055508173ffffffffffffffffffffffffffffffffffffffff16610ea4611324565b73ffffffffffffffffffffffffffffffffffffffff167f17307eab39ab6107e8899845ad3d59bd9653f200f220920489ca2b5937696c3183604051610ee991906132cd565b60405180910390a35050565b610f06610f00611324565b836113e5565b610f45576040517f08c379a0000000000000000000000000000000000000000000000000000000008152600401610f3c9061358a565b60405180910390fd5b610f5184848484611a1d565b50505050565b6060610f62826112b8565b610fa1576040517f08c379a0000000000000000000000000000000000000000000000000000000008152600401610f98906134aa565b60405180910390fd5b6000600660008481526020019081526020016000208054610fc190613890565b80601f0160208091040260200160405190810160405280929190818152602001828054610fed90613890565b801561103a5780601f1061100f5761010080835404028352916020019161103a565b820191906000526020600020905b81548152906001019060200180831161101d57829003601f168201915b50505050509050600061104b611a79565b90506000815114156110615781925050506110a4565b60008251111561109657808260405160200161107e929190613194565b604051602081830303815290604052925050506110a4565b61109f84611a90565b925050505b919050565b60085481565b6000600560008473ffffffffffffffffffffffffffffffffffffffff1673ffffffffffffffffffffffffffffffffffffffff16815260200190815260200160002060008373ffffffffffffffffffffffffffffffffffffffff1673ffffffffffffffffffffffffffffffffffffffff16815260200190815260200160002060009054906101000a900460ff16905092915050565b600960009054906101000a900460ff1681565b61115e611324565b73ffffffffffffffffffffffffffffffffffffffff1661117c610b46565b73ffffffffffffffffffffffffffffffffffffffff16146111d2576040517f08c379a00000000000000000000000000000000000000000000000000000000081526004016111c9906134ea565b60405180910390fd5b600073ffffffffffffffffffffffffffffffffffffffff168173ffffffffffffffffffffffffffffffffffffffff161415611242576040517f08c379a00000000000000000000000000000000000000000000000000000000081526004016112399061332a565b60405180910390fd5b61124b8161171f565b50565b60007f01ffc9a7000000000000000000000000000000000000000000000000000000007bffffffffffffffffffffffffffffffffffffffffffffffffffffffff1916827bffffffffffffffffffffffffffffffffffffffffffffffffffffffff1916149050919050565b60008073ffffffffffffffffffffffffffffffffffffffff166002600084815260200190815260200160002060009054906101000a900473ffffffffffffffffffffffffffffffffffffffff1673ffffffffffffffffffffffffffffffffffffffff1614159050919050565b600033905090565b816004600083815260200190815260200160002060006101000a81548173ffffffffffffffffffffffffffffffffffffffff021916908373ffffffffffffffffffffffffffffffffffffffff160217905550808273ffffffffffffffffffffffffffffffffffffffff1661139f8361094e565b73ffffffffffffffffffffffffffffffffffffffff167f8c5be1e5ebec7d5bd14f71427d1e84f3dd0314c0f7b2291e5b200ac8c7c3b92560405160405180910390a45050565b60006113f0826112b8565b61142f576040517f08c379a0000000000000000000000000000000000000000000000000000000008152600401611426906133ca565b60405180910390fd5b600061143a8361094e565b90508073ffffffffffffffffffffffffffffffffffffffff168473ffffffffffffffffffffffffffffffffffffffff1614806114a957508373ffffffffffffffffffffffffffffffffffffffff1661149184610689565b73ffffffffffffffffffffffffffffffffffffffff16145b806114ba57506114b981856110af565b5b91505092915050565b8273ffffffffffffffffffffffffffffffffffffffff166114e38261094e565b73ffffffffffffffffffffffffffffffffffffffff1614611539576040517f08c379a00000000000000000000000000000000000000000000000000000000081526004016115309061350a565b60405180910390fd5b600073ffffffffffffffffffffffffffffffffffffffff168273ffffffffffffffffffffffffffffffffffffffff1614156115a9576040517f08c379a00000000000000000000000000000000000000000000000000000000081526004016115a09061336a565b60405180910390fd5b6115b4838383611b37565b6115bf60008261132c565b6001600360008573ffffffffffffffffffffffffffffffffffffffff1673ffffffffffffffffffffffffffffffffffffffff168152602001908152602001600020600082825461160f91906137a6565b925050819055506001600360008473ffffffffffffffffffffffffffffffffffffffff1673ffffffffffffffffffffffffffffffffffffffff168152602001908152602001600020600082825461166691906136c5565b92505081905550816002600083815260200190815260200160002060006101000a81548173ffffffffffffffffffffffffffffffffffffffff021916908373ffffffffffffffffffffffffffffffffffffffff160217905550808273ffffffffffffffffffffffffffffffffffffffff168473ffffffffffffffffffffffffffffffffffffffff167fddf252ad1be2c89b69c2b068fc378daa952ba7f163c4a11628f55a4df523b3ef60405160405180910390a4505050565b6000600760009054906101000a900473ffffffffffffffffffffffffffffffffffffffff16905081600760006101000a81548173ffffffffffffffffffffffffffffffffffffffff021916908373ffffffffffffffffffffffffffffffffffffffff1602179055508173ffffffffffffffffffffffffffffffffffffffff168173ffffffffffffffffffffffffffffffffffffffff167f8be0079c531659141344cd1fd0a4f28419497f9722a3daafe3b4186f6b6457e060405160405180910390a35050565b6117ff828260405180602001604052806000815250611b3c565b5050565b606060006040518060400160405280601d81526020017f646174613a6170706c69636174696f6e2f6a736f6e3b6261736536342c0000008152509050600060405180602001604052806000815250905060005b6001855161186491906137a6565b8110156118e257818582815181106118a5577f4e487b7100000000000000000000000000000000000000000000000000000000600052603260045260246000fd5b60200260200101516040516020016118be9291906131b8565b604051602081830303815290604052915080806118da906138c2565b915050611856565b508084600186516118f391906137a6565b8151811061192a577f4e487b7100000000000000000000000000000000000000000000000000000000600052603260045260246000fd5b602002602001015160405160200161194392919061322c565b60405160208183030381529060405290508161197f828760405160200161196b9291906131e7565b604051602081830303815290604052611b97565b604051602001611990929190613194565b6040516020818303038152906040529250505092915050565b6119b2826112b8565b6119f1576040517f08c379a00000000000000000000000000000000000000000000000000000000081526004016119e89061344a565b60405180910390fd5b80600660008481526020019081526020016000209080519060200190611a18929190612267565b505050565b611a288484846114c3565b611a3484848484611d42565b611a73576040517f08c379a0000000000000000000000000000000000000000000000000000000008152600401611a6a9061330a565b60405180910390fd5b50505050565b606060405180602001604052806000815250905090565b6060611a9b826112b8565b611ada576040517f08c379a0000000000000000000000000000000000000000000000000000000008152600401611ad19061352a565b60405180910390fd5b6000611ae4611a79565b90506000815111611b045760405180602001604052806000815250611b2f565b80611b0e84611ed9565b604051602001611b1f929190613194565b6040516020818303038152906040525b915050919050565b505050565b611b468383612086565b611b536000848484611d42565b611b92576040517f08c379a0000000000000000000000000000000000000000000000000000000008152600401611b899061330a565b60405180910390fd5b505050565b6060600082511415611bba57604051806020016040528060008152509050611d3d565b6000604051806060016040528060408152602001613a666040913990506000600360028551611be991906136c5565b611bf3919061371b565b6004611bff919061374c565b90506000602082611c1091906136c5565b67ffffffffffffffff811115611c4f577f4e487b7100000000000000000000000000000000000000000000000000000000600052604160045260246000fd5b6040519080825280601f01601f191660200182016040528015611c815781602001600182028036833780820191505090505b509050818152600183018586518101602084015b81831015611cfc576003830192508251603f8160121c1685015160f81b8252600182019150603f81600c1c1685015160f81b8252600182019150603f8160061c1685015160f81b8252600182019150603f811685015160f81b825260018201915050611c95565b600389510660018114611d165760028114611d2657611d31565b613d3d60f01b6002830352611d31565b603d60f81b60018303525b50505050508093505050505b919050565b6000611d638473ffffffffffffffffffffffffffffffffffffffff16612254565b15611ecc578373ffffffffffffffffffffffffffffffffffffffff1663150b7a02611d8c611324565b8786866040518563ffffffff1660e01b8152600401611dae9493929190613281565b602060405180830381600087803b158015611dc857600080fd5b505af1925050508015611df957506040513d601f19601f82011682018060405250810190611df6919061269a565b60015b611e7c573d8060008114611e29576040519150601f19603f3d011682016040523d82523d6000602084013e611e2e565b606091505b50600081511415611e74576040517f08c379a0000000000000000000000000000000000000000000000000000000008152600401611e6b9061330a565b60405180910390fd5b805181602001fd5b63150b7a0260e01b7bffffffffffffffffffffffffffffffffffffffffffffffffffffffff1916817bffffffffffffffffffffffffffffffffffffffffffffffffffffffff191614915050611ed1565b600190505b949350505050565b60606000821415611f21576040518060400160405280600181526020017f30000000000000000000000000000000000000000000000000000000000000008152509050612081565b600082905060005b60008214611f53578080611f3c906138c2565b915050600a82611f4c919061371b565b9150611f29565b60008167ffffffffffffffff811115611f95577f4e487b7100000000000000000000000000000000000000000000000000000000600052604160045260246000fd5b6040519080825280601f01601f191660200182016040528015611fc75781602001600182028036833780820191505090505b5090505b6000851461207a57600182611fe091906137a6565b9150600a85611fef919061390b565b6030611ffb91906136c5565b60f81b818381518110612037577f4e487b7100000000000000000000000000000000000000000000000000000000600052603260045260246000fd5b60200101907effffffffffffffffffffffffffffffffffffffffffffffffffffffffffffff1916908160001a905350600a85612073919061371b565b9450611fcb565b8093505050505b919050565b600073ffffffffffffffffffffffffffffffffffffffff168273ffffffffffffffffffffffffffffffffffffffff1614156120f6576040517f08c379a00000000000000000000000000000000000000000000000000000000081526004016120ed9061348a565b60405180910390fd5b6120ff816112b8565b1561213f576040517f08c379a00000000000000000000000000000000000000000000000000000000081526004016121369061334a565b60405180910390fd5b61214b60008383611b37565b6001600360008473ffffffffffffffffffffffffffffffffffffffff1673ffffffffffffffffffffffffffffffffffffffff168152602001908152602001600020600082825461219b91906136c5565b92505081905550816002600083815260200190815260200160002060006101000a81548173ffffffffffffffffffffffffffffffffffffffff021916908373ffffffffffffffffffffffffffffffffffffffff160217905550808273ffffffffffffffffffffffffffffffffffffffff16600073ffffffffffffffffffffffffffffffffffffffff167fddf252ad1be2c89b69c2b068fc378daa952ba7f163c4a11628f55a4df523b3ef60405160405180910390a45050565b600080823b905060008111915050919050565b82805461227390613890565b90600052602060002090601f01602090048101928261229557600085556122dc565b82601f106122ae57805160ff19168380011785556122dc565b828001600101855582156122dc579182015b828111156122db5782518255916020019190600101906122c0565b5b5090506122e991906122ed565b5090565b5b808211156123065760008160009055506001016122ee565b5090565b600061231d612318846135f6565b6135c5565b9050808382526020820190508260005b8581101561235d5781358501612343888261248b565b84526020840193506020830192505060018101905061232d565b5050509392505050565b600061237a61237584613622565b6135c5565b90508281526020810184848401111561239257600080fd5b61239d84828561384e565b509392505050565b60006123b86123b384613652565b6135c5565b9050828152602081018484840111156123d057600080fd5b6123db84828561384e565b509392505050565b6000813590506123f281613a09565b92915050565b600082601f83011261240957600080fd5b813561241984826020860161230a565b91505092915050565b60008135905061243181613a20565b92915050565b60008135905061244681613a37565b92915050565b60008151905061245b81613a37565b92915050565b600082601f83011261247257600080fd5b8135612482848260208601612367565b91505092915050565b600082601f83011261249c57600080fd5b81356124ac8482602086016123a5565b91505092915050565b6000813590506124c481613a4e565b92915050565b6000602082840312156124dc57600080fd5b60006124ea848285016123e3565b91505092915050565b6000806040838503121561250657600080fd5b6000612514858286016123e3565b9250506020612525858286016123e3565b9150509250929050565b60008060006060848603121561254457600080fd5b6000612552868287016123e3565b9350506020612563868287016123e3565b9250506040612574868287016124b5565b9150509250925092565b6000806000806080858703121561259457600080fd5b60006125a2878288016123e3565b94505060206125b3878288016123e3565b93505060406125c4878288016124b5565b925050606085013567ffffffffffffffff8111156125e157600080fd5b6125ed87828801612461565b91505092959194509250565b6000806040838503121561260c57600080fd5b600061261a858286016123e3565b925050602061262b85828601612422565b9150509250929050565b6000806040838503121561264857600080fd5b6000612656858286016123e3565b9250506020612667858286016124b5565b9150509250929050565b60006020828403121561268357600080fd5b600061269184828501612437565b91505092915050565b6000602082840312156126ac57600080fd5b60006126ba8482850161244c565b91505092915050565b600080604083850312156126d657600080fd5b600083013567ffffffffffffffff8111156126f057600080fd5b6126fc8582860161248b565b925050602083013567ffffffffffffffff81111561271957600080fd5b612725858286016123f8565b9150509250929050565b60006020828403121561274157600080fd5b600061274f848285016124b5565b91505092915050565b612761816137da565b82525050565b612770816137ec565b82525050565b600061278182613682565b61278b8185613698565b935061279b81856020860161385d565b6127a4816139f8565b840191505092915050565b60006127ba8261368d565b6127c481856136a9565b93506127d481856020860161385d565b6127dd816139f8565b840191505092915050565b60006127f38261368d565b6127fd81856136ba565b935061280d81856020860161385d565b80840191505092915050565b6000612826604a836136ba565b91507f7b226e616d65223a202242616e6e6572222c226465736372697074696f6e223a60008301527f20224e46542041492047656e6572617465642042616e6e657221222c2022617460208301527f7472696275746573223a000000000000000000000000000000000000000000006040830152604a82019050919050565b60006128b26032836136a9565b91507f4552433732313a207472616e7366657220746f206e6f6e20455243373231526560008301527f63656976657220696d706c656d656e74657200000000000000000000000000006020830152604082019050919050565b60006129186026836136a9565b91507f4f776e61626c653a206e6577206f776e657220697320746865207a65726f206160008301527f64647265737300000000000000000000000000000000000000000000000000006020830152604082019050919050565b600061297e601c836136a9565b91507f4552433732313a20746f6b656e20616c7265616479206d696e746564000000006000830152602082019050919050565b60006129be6001836136ba565b91507f2c000000000000000000000000000000000000000000000000000000000000006000830152600182019050919050565b60006129fe6024836136a9565b91507f4552433732313a207472616e7366657220746f20746865207a65726f2061646460008301527f72657373000000000000000000000000000000000000000000000000000000006020830152604082019050919050565b6000612a646019836136a9565b91507f4552433732313a20617070726f766520746f2063616c6c6572000000000000006000830152602082019050919050565b6000612aa4601f836136a9565b91507f45746865722076616c75652073656e74206973206e6f7420636f7272656374006000830152602082019050919050565b6000612ae4602c836136a9565b91507f4552433732313a206f70657261746f7220717565727920666f72206e6f6e657860008301527f697374656e7420746f6b656e00000000000000000000000000000000000000006020830152604082019050919050565b6000612b4a6038836136a9565b91507f4552433732313a20617070726f76652063616c6c6572206973206e6f74206f7760008301527f6e6572206e6f7220617070726f76656420666f7220616c6c00000000000000006020830152604082019050919050565b6000612bb0600a836136ba565b91507f2c2022696d616765223a000000000000000000000000000000000000000000006000830152600a82019050919050565b6000612bf0602a836136a9565b91507f4552433732313a2062616c616e636520717565727920666f7220746865207a6560008301527f726f2061646472657373000000000000000000000000000000000000000000006020830152604082019050919050565b6000612c566029836136a9565b91507f4552433732313a206f776e657220717565727920666f72206e6f6e657869737460008301527f656e7420746f6b656e00000000000000000000000000000000000000000000006020830152604082019050919050565b6000612cbc602e836136a9565b91507f45524337323155524953746f726167653a2055524920736574206f66206e6f6e60008301527f6578697374656e7420746f6b656e0000000000000000000000000000000000006020830152604082019050919050565b6000612d22602a836136a9565b91507f507572636861736520776f756c6420657863656564206d617820737570706c7960008301527f206f6620746f6b656e73000000000000000000000000000000000000000000006020830152604082019050919050565b6000612d886002836136ba565b91507f227d0000000000000000000000000000000000000000000000000000000000006000830152600282019050919050565b6000612dc86020836136a9565b91507f4552433732313a206d696e7420746f20746865207a65726f20616464726573736000830152602082019050919050565b6000612e086031836136a9565b91507f45524337323155524953746f726167653a2055524920717565727920666f722060008301527f6e6f6e6578697374656e7420746f6b656e0000000000000000000000000000006020830152604082019050919050565b6000612e6e602c836136a9565b91507f4552433732313a20617070726f76656420717565727920666f72206e6f6e657860008301527f697374656e7420746f6b656e00000000000000000000000000000000000000006020830152604082019050919050565b6000612ed46020836136a9565b91507f4f776e61626c653a2063616c6c6572206973206e6f7420746865206f776e65726000830152602082019050919050565b6000612f146001836136ba565b91507f5b000000000000000000000000000000000000000000000000000000000000006000830152600182019050919050565b6000612f546029836136a9565b91507f4552433732313a207472616e73666572206f6620746f6b656e2074686174206960008301527f73206e6f74206f776e00000000000000000000000000000000000000000000006020830152604082019050919050565b6000612fba602f836136a9565b91507f4552433732314d657461646174613a2055524920717565727920666f72206e6f60008301527f6e6578697374656e7420746f6b656e00000000000000000000000000000000006020830152604082019050919050565b60006130206022836136a9565b91507f53616c65206d7573742062652061637469766520746f206d696e7420746f6b6560008301527f6e730000000000000000000000000000000000000000000000000000000000006020830152604082019050919050565b60006130866001836136ba565b91507f5d000000000000000000000000000000000000000000000000000000000000006000830152600182019050919050565b60006130c66021836136a9565b91507f4552433732313a20617070726f76616c20746f2063757272656e74206f776e6560008301527f72000000000000000000000000000000000000000000000000000000000000006020830152604082019050919050565b600061312c6031836136a9565b91507f4552433732313a207472616e736665722063616c6c6572206973206e6f74206f60008301527f776e6572206e6f7220617070726f7665640000000000000000000000000000006020830152604082019050919050565b61318e81613844565b82525050565b60006131a082856127e8565b91506131ac82846127e8565b91508190509392505050565b60006131c482856127e8565b91506131d082846127e8565b91506131db826129b1565b91508190509392505050565b60006131f282612819565b91506131fe82856127e8565b915061320982612ba3565b915061321582846127e8565b915061322082612d7b565b91508190509392505050565b600061323782612f07565b915061324382856127e8565b915061324f82846127e8565b915061325a82613079565b91508190509392505050565b600060208201905061327b6000830184612758565b92915050565b60006080820190506132966000830187612758565b6132a36020830186612758565b6132b06040830185613185565b81810360608301526132c28184612776565b905095945050505050565b60006020820190506132e26000830184612767565b92915050565b6000602082019050818103600083015261330281846127af565b905092915050565b60006020820190508181036000830152613323816128a5565b9050919050565b600060208201905081810360008301526133438161290b565b9050919050565b6000602082019050818103600083015261336381612971565b9050919050565b60006020820190508181036000830152613383816129f1565b9050919050565b600060208201905081810360008301526133a381612a57565b9050919050565b600060208201905081810360008301526133c381612a97565b9050919050565b600060208201905081810360008301526133e381612ad7565b9050919050565b6000602082019050818103600083015261340381612b3d565b9050919050565b6000602082019050818103600083015261342381612be3565b9050919050565b6000602082019050818103600083015261344381612c49565b9050919050565b6000602082019050818103600083015261346381612caf565b9050919050565b6000602082019050818103600083015261348381612d15565b9050919050565b600060208201905081810360008301526134a381612dbb565b9050919050565b600060208201905081810360008301526134c381612dfb565b9050919050565b600060208201905081810360008301526134e381612e61565b9050919050565b6000602082019050818103600083015261350381612ec7565b9050919050565b6000602082019050818103600083015261352381612f47565b9050919050565b6000602082019050818103600083015261354381612fad565b9050919050565b6000602082019050818103600083015261356381613013565b9050919050565b60006020820190508181036000830152613583816130b9565b9050919050565b600060208201905081810360008301526135a38161311f565b9050919050565b60006020820190506135bf6000830184613185565b92915050565b6000604051905081810181811067ffffffffffffffff821117156135ec576135eb6139c9565b5b8060405250919050565b600067ffffffffffffffff821115613611576136106139c9565b5b602082029050602081019050919050565b600067ffffffffffffffff82111561363d5761363c6139c9565b5b601f19601f8301169050602081019050919050565b600067ffffffffffffffff82111561366d5761366c6139c9565b5b601f19601f8301169050602081019050919050565b600081519050919050565b600081519050919050565b600082825260208201905092915050565b600082825260208201905092915050565b600081905092915050565b60006136d082613844565b91506136db83613844565b9250827fffffffffffffffffffffffffffffffffffffffffffffffffffffffffffffffff038211156137105761370f61393c565b5b828201905092915050565b600061372682613844565b915061373183613844565b9250826137415761374061396b565b5b828204905092915050565b600061375782613844565b915061376283613844565b9250817fffffffffffffffffffffffffffffffffffffffffffffffffffffffffffffffff048311821515161561379b5761379a61393c565b5b828202905092915050565b60006137b182613844565b91506137bc83613844565b9250828210156137cf576137ce61393c565b5b828203905092915050565b60006137e582613824565b9050919050565b60008115159050919050565b60007fffffffff0000000000000000000000000000000000000000000000000000000082169050919050565b600073ffffffffffffffffffffffffffffffffffffffff82169050919050565b6000819050919050565b82818337600083830152505050565b60005b8381101561387b578082015181840152602081019050613860565b8381111561388a576000848401525b50505050565b600060028204905060018216806138a857607f821691505b602082108114156138bc576138bb61399a565b5b50919050565b60006138cd82613844565b91507fffffffffffffffffffffffffffffffffffffffffffffffffffffffffffffffff821415613900576138ff61393c565b5b600182019050919050565b600061391682613844565b915061392183613844565b9250826139315761393061396b565b5b828206905092915050565b7f4e487b7100000000000000000000000000000000000000000000000000000000600052601160045260246000fd5b7f4e487b7100000000000000000000000000000000000000000000000000000000600052601260045260246000fd5b7f4e487b7100000000000000000000000000000000000000000000000000000000600052602260045260246000fd5b7f4e487b7100000000000000000000000000000000000000000000000000000000600052604160045260246000fd5b6000601f19601f8301169050919050565b613a12816137da565b8114613a1d57600080fd5b50565b613a29816137ec565b8114613a3457600080fd5b50565b613a40816137f8565b8114613a4b57600080fd5b50565b613a5781613844565b8114613a6257600080fd5b5056fe4142434445464748494a4b4c4d4e4f505152535455565758595a6162636465666768696a6b6c6d6e6f707172737475767778797a303132333435363738392b2fa264697066735822122045872c290b55a3dfff1a1bf0d910e75e1de2b7bcb54e9ae9f6e62f4434a2ab2964736f6c63430008000033",
  "devdoc": {
    "kind": "dev",
    "methods": {
      "approve(address,uint256)": {
        "details": "See {IERC721-approve}."
      },
      "balanceOf(address)": {
        "details": "See {IERC721-balanceOf}."
      },
      "getApproved(uint256)": {
        "details": "See {IERC721-getApproved}."
      },
      "isApprovedForAll(address,address)": {
        "details": "See {IERC721-isApprovedForAll}."
      },
      "name()": {
        "details": "See {IERC721Metadata-name}."
      },
      "owner()": {
        "details": "Returns the address of the current owner."
      },
      "ownerOf(uint256)": {
        "details": "See {IERC721-ownerOf}."
      },
      "renounceOwnership()": {
        "details": "Leaves the contract without owner. It will not be possible to call `onlyOwner` functions anymore. Can only be called by the current owner. NOTE: Renouncing ownership will leave the contract without an owner, thereby removing any functionality that is only available to the owner."
      },
      "safeTransferFrom(address,address,uint256)": {
        "details": "See {IERC721-safeTransferFrom}."
      },
      "safeTransferFrom(address,address,uint256,bytes)": {
        "details": "See {IERC721-safeTransferFrom}."
      },
      "setApprovalForAll(address,bool)": {
        "details": "See {IERC721-setApprovalForAll}."
      },
      "supportsInterface(bytes4)": {
        "details": "See {IERC165-supportsInterface}."
      },
      "symbol()": {
        "details": "See {IERC721Metadata-symbol}."
      },
      "tokenURI(uint256)": {
        "details": "See {IERC721Metadata-tokenURI}."
      },
      "transferFrom(address,address,uint256)": {
        "details": "See {IERC721-transferFrom}."
      },
      "transferOwnership(address)": {
        "details": "Transfers ownership of the contract to a new account (`newOwner`). Can only be called by the current owner."
      }
    },
    "version": 1
  },
  "userdoc": {
    "kind": "user",
    "methods": {},
    "version": 1
  },
  "storageLayout": {
    "storage": [
      {
        "astId": 129,
        "contract": "contracts/AIBanner.sol:AIBanner",
        "label": "_name",
        "offset": 0,
        "slot": "0",
        "type": "t_string_storage"
      },
      {
        "astId": 131,
        "contract": "contracts/AIBanner.sol:AIBanner",
        "label": "_symbol",
        "offset": 0,
        "slot": "1",
        "type": "t_string_storage"
      },
      {
        "astId": 135,
        "contract": "contracts/AIBanner.sol:AIBanner",
        "label": "_owners",
        "offset": 0,
        "slot": "2",
        "type": "t_mapping(t_uint256,t_address)"
      },
      {
        "astId": 139,
        "contract": "contracts/AIBanner.sol:AIBanner",
        "label": "_balances",
        "offset": 0,
        "slot": "3",
        "type": "t_mapping(t_address,t_uint256)"
      },
      {
        "astId": 143,
        "contract": "contracts/AIBanner.sol:AIBanner",
        "label": "_tokenApprovals",
        "offset": 0,
        "slot": "4",
        "type": "t_mapping(t_uint256,t_address)"
      },
      {
        "astId": 149,
        "contract": "contracts/AIBanner.sol:AIBanner",
        "label": "_operatorApprovals",
        "offset": 0,
        "slot": "5",
        "type": "t_mapping(t_address,t_mapping(t_address,t_bool))"
      },
      {
        "astId": 1066,
        "contract": "contracts/AIBanner.sol:AIBanner",
        "label": "_tokenURIs",
        "offset": 0,
        "slot": "6",
        "type": "t_mapping(t_uint256,t_string_storage)"
      },
      {
        "astId": 7,
        "contract": "contracts/AIBanner.sol:AIBanner",
        "label": "_owner",
        "offset": 0,
        "slot": "7",
        "type": "t_address"
      },
      {
        "astId": 1827,
        "contract": "contracts/AIBanner.sol:AIBanner",
        "label": "tokenCounter",
        "offset": 0,
        "slot": "8",
        "type": "t_uint256"
      },
      {
        "astId": 1842,
        "contract": "contracts/AIBanner.sol:AIBanner",
        "label": "saleIsActive",
        "offset": 0,
        "slot": "9",
        "type": "t_bool"
      }
    ],
    "types": {
      "t_address": {
        "encoding": "inplace",
        "label": "address",
        "numberOfBytes": "20"
      },
      "t_bool": {
        "encoding": "inplace",
        "label": "bool",
        "numberOfBytes": "1"
      },
      "t_mapping(t_address,t_bool)": {
        "encoding": "mapping",
        "key": "t_address",
        "label": "mapping(address => bool)",
        "numberOfBytes": "32",
        "value": "t_bool"
      },
      "t_mapping(t_address,t_mapping(t_address,t_bool))": {
        "encoding": "mapping",
        "key": "t_address",
        "label": "mapping(address => mapping(address => bool))",
        "numberOfBytes": "32",
        "value": "t_mapping(t_address,t_bool)"
      },
      "t_mapping(t_address,t_uint256)": {
        "encoding": "mapping",
        "key": "t_address",
        "label": "mapping(address => uint256)",
        "numberOfBytes": "32",
        "value": "t_uint256"
      },
      "t_mapping(t_uint256,t_address)": {
        "encoding": "mapping",
        "key": "t_uint256",
        "label": "mapping(uint256 => address)",
        "numberOfBytes": "32",
        "value": "t_address"
      },
      "t_mapping(t_uint256,t_string_storage)": {
        "encoding": "mapping",
        "key": "t_uint256",
        "label": "mapping(uint256 => string)",
        "numberOfBytes": "32",
        "value": "t_string_storage"
      },
      "t_string_storage": {
        "encoding": "bytes",
        "label": "string",
        "numberOfBytes": "32"
      },
      "t_uint256": {
        "encoding": "inplace",
        "label": "uint256",
        "numberOfBytes": "32"
      }
    }
  }
}